{
  "abi": [
    {
      "inputs": [
        {
          "internalType": "address",
          "name": "_vault",
          "type": "address"
        },
        {
          "internalType": "address",
          "name": "_dealer",
          "type": "address"
        }
      ],
      "stateMutability": "payable",
      "type": "constructor"
    },
    {
      "anonymous": false,
      "inputs": [
        {
          "indexed": false,
          "internalType": "uint8",
          "name": "",
          "type": "uint8"
        }
      ],
      "name": "Bust",
      "type": "event"
    },
    {
      "anonymous": false,
      "inputs": [
        {
          "indexed": false,
          "internalType": "uint8",
          "name": "",
          "type": "uint8"
        }
      ],
      "name": "Hit",
      "type": "event"
    },
    {
      "anonymous": false,
      "inputs": [
        {
          "indexed": false,
          "internalType": "uint8",
          "name": "",
          "type": "uint8"
        }
      ],
      "name": "Loss",
      "type": "event"
    },
    {
      "anonymous": false,
      "inputs": [
        {
          "indexed": true,
          "internalType": "address",
          "name": "previousOwner",
          "type": "address"
        },
        {
          "indexed": true,
          "internalType": "address",
          "name": "newOwner",
          "type": "address"
        }
      ],
      "name": "OwnershipTransferred",
      "type": "event"
    },
    {
      "anonymous": false,
      "inputs": [],
      "name": "Paid",
      "type": "event"
    },
    {
      "anonymous": false,
      "inputs": [],
      "name": "PlayerBlackjack",
      "type": "event"
    },
    {
      "anonymous": false,
      "inputs": [
        {
          "indexed": false,
          "internalType": "uint8",
          "name": "",
          "type": "uint8"
        }
      ],
      "name": "Push",
      "type": "event"
    },
    {
      "anonymous": false,
      "inputs": [
        {
          "indexed": false,
          "internalType": "uint8",
          "name": "",
          "type": "uint8"
        }
      ],
      "name": "Split",
      "type": "event"
    },
    {
      "anonymous": false,
      "inputs": [
        {
          "indexed": false,
          "internalType": "uint8",
          "name": "",
          "type": "uint8"
        }
      ],
      "name": "Win",
      "type": "event"
    },
    {
      "inputs": [],
      "name": "dealer",
      "outputs": [
        {
          "internalType": "contract Dealer",
          "name": "",
          "type": "address"
        }
      ],
      "stateMutability": "view",
      "type": "function"
    },
    {
      "inputs": [],
      "name": "gameData",
      "outputs": [
        {
          "internalType": "uint256",
          "name": "betAmount",
          "type": "uint256"
        },
        {
          "components": [
            {
              "internalType": "uint8[]",
              "name": "cards",
              "type": "uint8[]"
            },
            {
              "internalType": "bool",
              "name": "soft",
              "type": "bool"
            },
            {
              "internalType": "bool",
              "name": "firstTurn",
              "type": "bool"
            },
            {
              "internalType": "bool",
              "name": "finished",
              "type": "bool"
            }
          ],
          "internalType": "struct Blackjack.Hand",
          "name": "dealerHand",
          "type": "tuple"
        },
        {
          "internalType": "uint8",
          "name": "nextOpenHandSlot",
          "type": "uint8"
        },
        {
          "internalType": "bool",
          "name": "insurance",
          "type": "bool"
        }
      ],
      "stateMutability": "view",
      "type": "function"
    },
    {
      "inputs": [],
      "name": "getBetAmount",
      "outputs": [
        {
          "internalType": "uint256",
          "name": "",
          "type": "uint256"
        }
      ],
      "stateMutability": "view",
      "type": "function"
    },
    {
      "inputs": [
        {
          "internalType": "uint8",
          "name": "handNum",
          "type": "uint8"
        }
      ],
      "name": "getCardsFromHand",
      "outputs": [
        {
          "internalType": "uint8[]",
          "name": "",
          "type": "uint8[]"
        }
      ],
      "stateMutability": "view",
      "type": "function"
    },
    {
      "inputs": [],
      "name": "getDealerCards",
      "outputs": [
        {
          "internalType": "uint8[]",
          "name": "",
          "type": "uint8[]"
        }
      ],
      "stateMutability": "view",
      "type": "function"
    },
    {
      "inputs": [],
      "name": "getHands",
      "outputs": [
        {
          "components": [
            {
              "internalType": "uint8[]",
              "name": "cards",
              "type": "uint8[]"
            },
            {
              "internalType": "bool",
              "name": "soft",
              "type": "bool"
            },
            {
              "internalType": "bool",
              "name": "firstTurn",
              "type": "bool"
            },
            {
              "internalType": "bool",
              "name": "finished",
              "type": "bool"
            }
          ],
          "internalType": "struct Blackjack.Hand[4]",
          "name": "",
          "type": "tuple[4]"
        }
      ],
      "stateMutability": "view",
      "type": "function"
    },
    {
      "inputs": [],
      "name": "getInsurance",
      "outputs": [
        {
          "internalType": "bool",
          "name": "",
          "type": "bool"
        }
      ],
      "stateMutability": "view",
      "type": "function"
    },
    {
      "inputs": [],
      "name": "getNextOpenHandSlot",
      "outputs": [
        {
          "internalType": "uint8",
          "name": "",
          "type": "uint8"
        }
      ],
      "stateMutability": "view",
      "type": "function"
    },
    {
      "inputs": [
        {
          "internalType": "bool",
          "name": "_insurance",
          "type": "bool"
        },
        {
          "internalType": "uint8",
          "name": "handNum",
          "type": "uint8"
        }
      ],
      "name": "hit",
      "outputs": [
        {
          "internalType": "uint8",
          "name": "",
          "type": "uint8"
        }
      ],
      "stateMutability": "payable",
      "type": "function"
    },
    {
      "inputs": [],
      "name": "owner",
      "outputs": [
        {
          "internalType": "address",
          "name": "",
          "type": "address"
        }
      ],
      "stateMutability": "view",
      "type": "function"
    },
    {
      "inputs": [],
      "name": "player",
      "outputs": [
        {
          "internalType": "address",
          "name": "",
          "type": "address"
        }
      ],
      "stateMutability": "view",
      "type": "function"
    },
    {
      "inputs": [],
      "name": "renounceOwnership",
      "outputs": [],
      "stateMutability": "nonpayable",
      "type": "function"
    },
    {
      "inputs": [
        {
          "internalType": "uint8",
          "name": "_card1",
          "type": "uint8"
        },
        {
          "internalType": "uint8",
          "name": "_card2",
          "type": "uint8"
        }
      ],
      "name": "setDealerCards",
      "outputs": [],
      "stateMutability": "nonpayable",
      "type": "function"
    },
    {
      "inputs": [
        {
          "internalType": "uint8",
          "name": "_card1",
          "type": "uint8"
        },
        {
          "internalType": "uint8",
          "name": "_card2",
          "type": "uint8"
        },
        {
          "internalType": "uint8",
          "name": "handNum",
          "type": "uint8"
        }
      ],
      "name": "setPlayerCards",
      "outputs": [],
      "stateMutability": "nonpayable",
      "type": "function"
    },
    {
      "inputs": [
        {
          "internalType": "uint8",
          "name": "handNum",
          "type": "uint8"
        }
      ],
      "name": "split",
      "outputs": [],
      "stateMutability": "payable",
      "type": "function"
    },
    {
      "inputs": [
        {
          "internalType": "uint8",
          "name": "handNum",
          "type": "uint8"
        }
      ],
      "name": "stand",
      "outputs": [],
      "stateMutability": "nonpayable",
      "type": "function"
    },
    {
      "inputs": [
        {
          "internalType": "address",
          "name": "newOwner",
          "type": "address"
        }
      ],
      "name": "transferOwnership",
      "outputs": [],
      "stateMutability": "nonpayable",
      "type": "function"
    },
    {
      "inputs": [],
      "name": "vault",
      "outputs": [
        {
          "internalType": "address",
          "name": "",
          "type": "address"
        }
      ],
      "stateMutability": "view",
      "type": "function"
    }
  ],
  "bytecode": {
    "object": "0x608060405260405162001e9f38038062001e9f83398101604081905262000026916200029a565b62000031336200022d565b60003411620000865760405162461bcd60e51b815260206004820152601d60248201527f4e65656420746f20706c61636520616e20696e697469616c2062657421000000604482015260640160405180910390fd5b600e80546001600160a01b038085166001600160a01b031992831617909255600d805492841692821683179055600f80549091163317905560408051635ec01e4d60e01b8152905160009291635ec01e4d916004808301926020929190829003018187875af1158015620000fe573d6000803e3d6000fd5b505050506040513d601f19601f82011682018060405250810190620001249190620002d2565b60018054808201825560208082047fb10e2d527612073b26eecdfd717e6a320cf44b4afac2b0732d9fcbe2b7fa0cf69081018054601f94851661010090810a60ff81810219909316600d808b068a0185169290920217909355600a80548089019091557fc65a7bb8d6351c1cf70c95a316cc6a92839c986682d98bc35f958f4883f9d2a886820401805460648b048690068a018516928916840a92830292850219169190911790558654808801885560008890529485049093018054612710909804929092068601811693909416820a928302929093021990941617905534600955600c80546002805461ff00191690941790935561ffff1990921617905550620002ec915050565b600080546001600160a01b038381166001600160a01b0319831681178455604051919092169283917f8be0079c531659141344cd1fd0a4f28419497f9722a3daafe3b4186f6b6457e09190a35050565b80516001600160a01b03811681146200029557600080fd5b919050565b60008060408385031215620002ae57600080fd5b620002b9836200027d565b9150620002c9602084016200027d565b90509250929050565b600060208284031215620002e557600080fd5b5051919050565b611ba380620002fc6000396000f3fe6080604052600436106101095760003560e01c8063715018a611610095578063e8fa988d11610064578063e8fa988d146102ba578063f2fde38b146102dc578063fa24f743146102fc578063fbfa77cf14610321578063fde41e291461034157600080fd5b8063715018a6146102525780638da5cb5b14610267578063974ee4d8146102855780639de2ee211461029a57600080fd5b806334e6a776116100dc57806334e6a7761461019057806340e2e20c146101b557806348db5f89146101d55780635a20d60b1461020d5780635db060ee1461023a57600080fd5b80630a2d343a1461010e5780631707ea98146101305780631ef44aed14610150578063267a8da014610163575b600080fd5b34801561011a57600080fd5b5061012e6101293660046117e6565b61035f565b005b34801561013c57600080fd5b5061012e61014b366004611801565b61063f565b61012e61015e3660046117e6565b6106d3565b34801561016f57600080fd5b50600c54610100900460ff1660405190151581526020015b60405180910390f35b6101a361019e366004611834565b610bd8565b60405160ff9091168152602001610187565b3480156101c157600080fd5b5061012e6101d0366004611857565b611004565b3480156101e157600080fd5b50600f546101f5906001600160a01b031681565b6040516001600160a01b039091168152602001610187565b34801561021957600080fd5b5061022d6102283660046117e6565b6110ba565b604051610187919061189a565b34801561024657600080fd5b50600c5460ff166101a3565b34801561025e57600080fd5b5061012e611147565b34801561027357600080fd5b506000546001600160a01b03166101f5565b34801561029157600080fd5b5061022d61115b565b3480156102a657600080fd5b50600d546101f5906001600160a01b031681565b3480156102c657600080fd5b506102cf6111d0565b6040516101879190611956565b3480156102e857600080fd5b5061012e6102f73660046119a3565b6112c0565b34801561030857600080fd5b50610311611339565b60405161018794939291906119cc565b34801561032d57600080fd5b50600e546101f5906001600160a01b031681565b34801561034d57600080fd5b50600954604051908152602001610187565b600f546001600160a01b031633146103925760405162461bcd60e51b815260040161038990611a00565b60405180910390fd5b80600160ff8216600481106103a9576103a9611a37565b60020201546000036103cd5760405162461bcd60e51b815260040161038990611a4d565b600d5460408051635ec01e4d60e01b815290516000926001600160a01b031691635ec01e4d916004808301926020929190829003018187875af1158015610418573d6000803e3d6000fd5b505050506040513d601f19601f8201168201806040525081019061043c9190611a73565b9050600061044b8460006113fb565b9050600061045b600060016113fb565b90505b6104696015836115ed565b60ff168160ff16116105345760128160ff1610158061049957508060ff1660111480156104995750600b5460ff16155b6105345760006104bf6104ad600d86611aa2565b6104b8906001611acc565b600a6115ed565b90506104cc606485611adf565b600a8054600181810183556000928352602082047fc65a7bb8d6351c1cf70c95a316cc6a92839c986682d98bc35f958f4883f9d2a801805460ff808816601f9095166101000a948502940219169290921790915591955061052c916113fb565b91505061045e565b60158160ff16118061054b57508060ff168260ff16115b1561058c5760405160ff831681527f1bf0bb3b8aecbdd715eacadcfc823650fc174b037c21da88af0beb4f55bfe4e9906020015b60405180910390a1610603565b8160ff168160ff16036105cc5760405160ff831681527fb4891788e5aeae0a7c35bc54a5c88724c39b101c0efcbf08357254a031870b749060200161057f565b60405160ff831681527fdf7e02b4cc7d28bf9e9c21e7c83f9a8d0926b26168fdc0a43393fe57ddaed8289060200160405180910390a15b8160ff16601503610638576040517fac12b2cd30b1f4db38d94e07d1376d0a700299ee9f243744847703a0b55ef5af90600090a15b5050505050565b600a805483919060009061065557610655611a37565b6000918252602080832081830401805460ff958616601f94851661010090810a9182029188021990921617909155600a805460018101825594529083047fc65a7bb8d6351c1cf70c95a316cc6a92839c986682d98bc35f958f4883f9d2a801805495851693909216900a918202919092021990921691909117905550565b600f546001600160a01b031633146106fd5760405162461bcd60e51b815260040161038990611a00565b80600160ff82166004811061071457610714611a37565b60020201546000036107385760405162461bcd60e51b815260040161038990611a4d565b6000600160ff84166004811061075057610750611a37565b600202018054604080516020808402820181019092528281529291908301828280156107b957602002820191906000526020600020906000905b825461010083900a900460ff1681526020600192830181810494850194909303909202910180841161078a5790505b50505050509050806001815181106107d3576107d3611a37565b602002602001015160ff16816000815181106107f1576107f1611a37565b602002602001015160ff161461083f5760405162461bcd60e51b8152602060048201526013602482015272139959590818481c185a5c881a5b881a185b99606a1b6044820152606401610389565b60095434146108905760405162461bcd60e51b815260206004820152601a60248201527f4e65656420746f206d61746368206f726967696e616c206265740000000000006044820152606401610389565b600c54600460ff909116106108e75760405162461bcd60e51b815260206004820152601c60248201527f43616e206f6e6c792073706c697420746f20666f75722068616e6473000000006044820152606401610389565b600d5460408051635ec01e4d60e01b815290516000926001600160a01b031691635ec01e4d916004808301926020929190829003018187875af1158015610932573d6000803e3d6000fd5b505050506040513d601f19601f820116820180604052508101906109569190611a73565b90506000610965600d83611aa2565b610970906001611acc565b905080600160ff87166004811061098957610989611a37565b60020201805460019081106109a0576109a0611a37565b90600052602060002090602091828204019190066101000a81548160ff021916908360ff1602179055506000600267ffffffffffffffff8111156109e6576109e6611af3565b604051908082528060200260200182016040528015610a0f578160200160208202803683370190505b5090506000600d610a21606486611adf565b610a2b9190611aa2565b610a36906001611acc565b905084600181518110610a4b57610a4b611a37565b602002602001015182600081518110610a6657610a66611a37565b602002602001019060ff16908160ff16815250508082600181518110610a8e57610a8e611a37565b60ff928316602091820292909201810191909152604080516080810182528581526000928101839052600191810182905260608101839052600c805491949293919092169190610add83611b09565b91906101000a81548160ff021916908360ff16021790555060ff1660048110610b0857610b08611a37565b600202016000820151816000019080519060200190610b289291906116ce565b5060208201516001909101805460408401516060909401511515620100000262ff0000199415156101000261ff00199415159490941661ffff1990921691909117929092179290921617905584517f738fbb20ac06733db9d189b456de5d77d03f3f832ea1da86c2a1569fbfd711c6908690600090610ba957610ba9611a37565b6020026020010151604051610bc7919060ff91909116815260200190565b60405180910390a150505050505050565b600f546000906001600160a01b03163314610c055760405162461bcd60e51b815260040161038990611a00565b81600160ff821660048110610c1c57610c1c611a37565b6002020154600003610c405760405162461bcd60e51b815260040161038990611a4d565b8315610d1557600160ff841660048110610c5c57610c5c611a37565b6002020160010160019054906101000a900460ff168015610c7e575060095434145b8015610cbf5750600a8054600090610c9857610c98611a37565b90600052602060002090602091828204019190069054906101000a900460ff1660ff166001145b8015610cf35750600160ff841660048110610cdc57610cdc611a37565b6002020160010160029054906101000a900460ff16155b610cfc57600080fd5b600c805461ff0019166101001790556009805460011b90555b600d805460408051635ec01e4d60e01b81529051600093926001600160a01b031691635ec01e4d916004808301926020929190829003018188875af1158015610d62573d6000803e3d6000fd5b505050506040513d601f19601f82011682018060405250810190610d869190611a73565b610d909190611aa2565b610d9b906001611b28565b9050600160ff851660048110610db357610db3611a37565b6002020180546001810182556000918252602080832090820401805460ff808616601f9094166101000a93840293021916919091179055610df590859061160b565b15610f16577f7ed0b9d88fc0672a79b9f48e433842d27015f2e5ca611abe22218ed0737ac84e600160ff861660048110610e3157610e31611a37565b6002020180546001908110610e4857610e48611a37565b90600052602060002090602091828204019190069054906101000a900460ff1660016000018660ff1660048110610e8157610e81611a37565b600202018054600090610e9657610e96611a37565b90600052602060002090602091828204019190069054906101000a900460ff1683610ec19190611b28565b610ecb9190611b28565b60405160ff909116815260200160405180910390a160018060ff861660048110610ef757610ef7611a37565b6002020160010160026101000a81548160ff0219169083151502179055505b7f76f79ba55614c6fd9a839698f6674fd0a80c3988d6594633c95fdd63814f676e600160ff861660048110610f4d57610f4d611a37565b6002020180546001908110610f6457610f64611a37565b90600052602060002090602091828204019190069054906101000a900460ff1660016000018660ff1660048110610f9d57610f9d611a37565b600202018054600090610fb257610fb2611a37565b90600052602060002090602091828204019190069054906101000a900460ff1683610fdd9190611b28565b610fe79190611b28565b60405160ff909116815260200160405180910390a1949350505050565b82600160ff83166004811061101b5761101b611a37565b60020201805460009061103057611030611a37565b90600052602060002090602091828204019190066101000a81548160ff021916908360ff1602179055508160016000018260ff166004811061107457611074611a37565b600202018054600190811061108b5761108b611a37565b90600052602060002090602091828204019190066101000a81548160ff021916908360ff160217905550505050565b6060600160ff8316600481106110d2576110d2611a37565b6002020180546040805160208084028201810190925282815292919083018282801561113b57602002820191906000526020600020906000905b825461010083900a900460ff1681526020600192830181810494850194909303909202910180841161110c5790505b50505050509050919050565b61114f611624565b611159600061167e565b565b600a805460408051602080840282018101909252828152606093909290918301828280156111c657602002820191906000526020600020906000905b825461010083900a900460ff168152602060019283018181049485019490930390920291018084116111975790505b5050505050905090565b6111d8611774565b6040805160808101909152600160046000835b828210156112b75760408051600284028601805460a06020820284018101909452608083018181529293919284929091849184018282801561126a57602002820191906000526020600020906000905b825461010083900a900460ff1681526020600192830181810494850194909303909202910180841161123b5790505b505050918352505060019182015460ff80821615156020808501919091526101008304821615156040850152620100009092041615156060909201919091529183529290920191016111eb565b50505050905090565b6112c8611624565b6001600160a01b03811661132d5760405162461bcd60e51b815260206004820152602660248201527f4f776e61626c653a206e6577206f776e657220697320746865207a65726f206160448201526564647265737360d01b6064820152608401610389565b6113368161167e565b50565b60095460408051600a805460a0602082028401810190945260808301818152600194849284918401828280156113ac57602002820191906000526020600020906000905b825461010083900a900460ff1681526020600192830181810494850194909303909202910180841161137d5790505b50505091835250506001919091015460ff808216151560208401526101008083048216151560408501526201000090920481161515606090930192909252600b90930154919282821692041684565b60008060008361142457600160ff86166004811061141b5761141b611a37565b60020201611427565b600a5b80548060200260200160405190810160405280929190818152602001828054801561148f57602002820191906000526020600020906000905b825461010083900a900460ff168152602060019283018181049485019490930390920291018084116114605790505b505050505090506000815190506000805b8260ff1681101561151e5760008482815181106114bf576114bf611a37565b602002602001015190508060ff1660011461150157600a8160ff1610156114ef576114ea8187611b28565b6114fa565b6114fa86600a611b28565b955061150d565b61150a83611b09565b92505b5061151781611b41565b90506114a0565b5060005b8160ff16811015611594576015600161153e8360ff8616611b5a565b6115489190611b5a565b61155387600b611b28565b60ff166115609190611acc565b11156115765761156f85611b09565b9450611584565b611581600b86611b28565b94505b61158d81611b41565b9050611522565b50600b8460ff161180156115ab575060008160ff16115b600160ff8916600481106115c1576115c1611a37565b6002020160010160006101000a81548160ff021916908315150217905550839450505050505b92915050565b60008160ff168360ff16106116025781611604565b825b9392505050565b6000601561161984846113fb565b60ff16119392505050565b6000546001600160a01b031633146111595760405162461bcd60e51b815260206004820181905260248201527f4f776e61626c653a2063616c6c6572206973206e6f7420746865206f776e65726044820152606401610389565b600080546001600160a01b038381166001600160a01b0319831681178455604051919092169283917f8be0079c531659141344cd1fd0a4f28419497f9722a3daafe3b4186f6b6457e09190a35050565b82805482825590600052602060002090601f016020900481019282156117645791602002820160005b8382111561173557835183826101000a81548160ff021916908360ff16021790555092602001926001016020816000010492830192600103026116f7565b80156117625782816101000a81549060ff0219169055600101602081600001049283019260010302611735565b505b506117709291506117bb565b5090565b60405180608001604052806004905b604080516080810182526060808252600060208084018290529383018190529082015282526000199092019101816117835790505090565b5b8082111561177057600081556001016117bc565b803560ff811681146117e157600080fd5b919050565b6000602082840312156117f857600080fd5b611604826117d0565b6000806040838503121561181457600080fd5b61181d836117d0565b915061182b602084016117d0565b90509250929050565b6000806040838503121561184757600080fd5b8235801515811461181d57600080fd5b60008060006060848603121561186c57600080fd5b611875846117d0565b9250611883602085016117d0565b9150611891604085016117d0565b90509250925092565b6020808252825182820181905260009190848201906040850190845b818110156118d557835160ff16835292840192918401916001016118b6565b50909695505050505050565b8051608080845281519084018190526000916020919082019060a0860190845b8181101561192057835160ff1683529284019291840191600101611901565b5050828501511515838701526040850151151560408701526060850151925061194d606087018415159052565b95945050505050565b602080825260009060a0830183820185845b600481101561199757601f198785030183526119858483516118e1565b93509184019190840190600101611968565b50919695505050505050565b6000602082840312156119b557600080fd5b81356001600160a01b038116811461160457600080fd5b8481526080602082015260006119e560808301866118e1565b60ff9490941660408301525090151560609091015292915050565b6020808252601f908201527f4d75737420626520706c6179657220746f2063616c6c2066756e6374696f6e00604082015260600190565b634e487b7160e01b600052603260045260246000fd5b6020808252600c908201526b12185b99081a5b9d985b1a5960a21b604082015260600190565b600060208284031215611a8557600080fd5b5051919050565b634e487b7160e01b600052601260045260246000fd5b600082611ab157611ab1611a8c565b500690565b634e487b7160e01b600052601160045260246000fd5b808201808211156115e7576115e7611ab6565b600082611aee57611aee611a8c565b500490565b634e487b7160e01b600052604160045260246000fd5b600060ff821660ff8103611b1f57611b1f611ab6565b60010192915050565b60ff81811683821601908111156115e7576115e7611ab6565b600060018201611b5357611b53611ab6565b5060010190565b818103818111156115e7576115e7611ab656fea2646970667358221220a6182bf9294b57301d4d8ba47ab37f74f0726afb08ede0ba5e4e5bd3d0f10f9064736f6c63430008150033",
    "linkReferences": {}
  },
  "methodIdentifiers": {
    "dealer()": "9de2ee21",
    "gameData()": "fa24f743",
    "getBetAmount()": "fde41e29",
    "getCardsFromHand(uint8)": "5a20d60b",
    "getDealerCards()": "974ee4d8",
    "getHands()": "e8fa988d",
    "getInsurance()": "267a8da0",
    "getNextOpenHandSlot()": "5db060ee",
    "hit(bool,uint8)": "34e6a776",
    "owner()": "8da5cb5b",
    "player()": "48db5f89",
    "renounceOwnership()": "715018a6",
    "setDealerCards(uint8,uint8)": "1707ea98",
    "setPlayerCards(uint8,uint8,uint8)": "40e2e20c",
    "split(uint8)": "1ef44aed",
    "stand(uint8)": "0a2d343a",
    "transferOwnership(address)": "f2fde38b",
    "vault()": "fbfa77cf"
  },
  "id": 20
}