{
  "abi": [
    {
      "inputs": [
        {
          "internalType": "address",
          "name": "_vault",
          "type": "address"
        },
        {
          "internalType": "address",
          "name": "_dealer",
          "type": "address"
        }
      ],
      "stateMutability": "payable",
      "type": "constructor"
    },
    {
      "anonymous": false,
      "inputs": [],
      "name": "Bust",
      "type": "event"
    },
    {
      "anonymous": false,
      "inputs": [],
      "name": "Hit",
      "type": "event"
    },
    {
      "anonymous": false,
      "inputs": [
        {
          "indexed": true,
          "internalType": "address",
          "name": "previousOwner",
          "type": "address"
        },
        {
          "indexed": true,
          "internalType": "address",
          "name": "newOwner",
          "type": "address"
        }
      ],
      "name": "OwnershipTransferred",
      "type": "event"
    },
    {
      "anonymous": false,
      "inputs": [],
      "name": "Paid",
      "type": "event"
    },
    {
      "anonymous": false,
      "inputs": [],
      "name": "Split",
      "type": "event"
    },
    {
      "anonymous": false,
      "inputs": [],
      "name": "Win",
      "type": "event"
    },
    {
      "inputs": [
        {
          "internalType": "bool",
          "name": "_insurance",
          "type": "bool"
        },
        {
          "internalType": "uint8",
          "name": "handNum",
          "type": "uint8"
        }
      ],
      "name": "hit",
      "outputs": [],
      "stateMutability": "payable",
      "type": "function"
    },
    {
      "inputs": [],
      "name": "owner",
      "outputs": [
        {
          "internalType": "address",
          "name": "",
          "type": "address"
        }
      ],
      "stateMutability": "view",
      "type": "function"
    },
    {
      "inputs": [],
      "name": "renounceOwnership",
      "outputs": [],
      "stateMutability": "nonpayable",
      "type": "function"
    },
    {
      "inputs": [
        {
          "internalType": "uint8",
          "name": "handNum",
          "type": "uint8"
        }
      ],
      "name": "split",
      "outputs": [],
      "stateMutability": "payable",
      "type": "function"
    },
    {
      "inputs": [
        {
          "internalType": "uint8",
          "name": "handNum",
          "type": "uint8"
        }
      ],
      "name": "stand",
      "outputs": [],
      "stateMutability": "nonpayable",
      "type": "function"
    },
    {
      "inputs": [
        {
          "internalType": "address",
          "name": "newOwner",
          "type": "address"
        }
      ],
      "name": "transferOwnership",
      "outputs": [],
      "stateMutability": "nonpayable",
      "type": "function"
    }
  ],
  "bytecode": {
    "object": "0x60c06040526040516200128f3803806200128f8339810160408190526100249161022c565b61002d336101c0565b6001600160a01b03828116608052600d80546001600160a01b03191691831691821790553360a05260408051635ec01e4d60e01b8152905160009291635ec01e4d916004808301926020929190829003018187875af1158015610094573d6000803e3d6000fd5b505050506040513d601f19601f820116820180604052508101906100b8919061025f565b60018054808201825560208082047fb10e2d527612073b26eecdfd717e6a320cf44b4afac2b0732d9fcbe2b7fa0cf69081018054601f94851661010090810a60ff81810219909316600d808b068a0185169290920217909355600a80548089019091557fc65a7bb8d6351c1cf70c95a316cc6a92839c986682d98bc35f958f4883f9d2a886820401805460648b048690068a018516928916840a92830292850219169190911790558654808801885560008890529485049093018054612710909804929092068601811693909416820a928302929093021990941617905534600955600c80546002805461ff00191690941790935561ffff1990921617905550610278915050565b600080546001600160a01b038381166001600160a01b0319831681178455604051919092169283917f8be0079c531659141344cd1fd0a4f28419497f9722a3daafe3b4186f6b6457e09190a35050565b80516001600160a01b038116811461022757600080fd5b919050565b6000806040838503121561023f57600080fd5b61024883610210565b915061025660208401610210565b90509250929050565b60006020828403121561027157600080fd5b5051919050565b60805160a051610fe6620002a96000396000818161010e015281816103520152610761015260005050610fe66000f3fe6080604052600436106100555760003560e01c80630a2d343a1461005a5780631ef44aed1461007c57806334e6a7761461008f578063715018a6146100a25780638da5cb5b146100b7578063f2fde38b146100e3575b600080fd5b34801561006657600080fd5b5061007a610075366004610e22565b610103565b005b61007a61008a366004610e22565b610347565b61007a61009d366004610e3d565b610756565b3480156100ae57600080fd5b5061007a610928565b3480156100c357600080fd5b50600054604080516001600160a01b039092168252519081900360200190f35b3480156100ef57600080fd5b5061007a6100fe366004610e77565b61093c565b336001600160a01b037f0000000000000000000000000000000000000000000000000000000000000000161461013857600080fd5b80600160ff82166004811061014f5761014f610ea0565b600202015460000361016057600080fd5b600d5460408051635ec01e4d60e01b815290516000926001600160a01b031691635ec01e4d916004808301926020929190829003018187875af11580156101ab573d6000803e3d6000fd5b505050506040513d601f19601f820116820180604052508101906101cf9190610eb6565b905060006101de8460006109ba565b600a805491925060009182906101f6576101f6610ea0565b90600052602060002090602091828204019190069054906101000a900460ff1690505b610224601583610bac565b60ff168160ff16116102ef5760128160ff1610158061025457508060ff1660111480156102545750600b5460ff16155b6102ef57600061027a610268600d86610ee5565b610273906001610f0f565b600a610bac565b9050610287606485610f22565b600a8054600181810183556000928352602082047fc65a7bb8d6351c1cf70c95a316cc6a92839c986682d98bc35f958f4883f9d2a801805460ff808816601f9095166101000a94850294021916929092179091559195506102e7916109ba565b915050610219565b60158160ff16118061030657508060ff168260ff16115b1561034057610316338684610bca565b6040517f29822734f2619c764b25a111ff2328da08e02d6652fc891eb80227a6ec58774390600090a15b5050505050565b336001600160a01b037f0000000000000000000000000000000000000000000000000000000000000000161461037c57600080fd5b80600160ff82166004811061039357610393610ea0565b60020201546000036103a457600080fd5b6000600160ff8416600481106103bc576103bc610ea0565b6002020180546040805160208084028201810190925282815292919083018282801561042557602002820191906000526020600020906000905b825461010083900a900460ff168152602060019283018181049485019490930390920291018084116103f65790505b505050505090508060018151811061043f5761043f610ea0565b602002602001015160ff168160008151811061045d5761045d610ea0565b602002602001015160ff161461047257600080fd5b600954341461048057600080fd5b600c54600460ff9091161061049457600080fd5b600d5460408051635ec01e4d60e01b815290516000926001600160a01b031691635ec01e4d916004808301926020929190829003018187875af11580156104df573d6000803e3d6000fd5b505050506040513d601f19601f820116820180604052508101906105039190610eb6565b90506000610512600d83610ee5565b61051d906001610f0f565b905080600160ff87166004811061053657610536610ea0565b600202018054600190811061054d5761054d610ea0565b90600052602060002090602091828204019190066101000a81548160ff021916908360ff1602179055506000600267ffffffffffffffff81111561059357610593610f36565b6040519080825280602002602001820160405280156105bc578160200160208202803683370190505b5090506000600d6105ce606486610f22565b6105d89190610ee5565b6105e3906001610f0f565b9050846001815181106105f8576105f8610ea0565b60200260200101518260008151811061061357610613610ea0565b602002602001019060ff16908160ff1681525050808260018151811061063b5761063b610ea0565b60ff928316602091820292909201810191909152604080516080810182528581526000928101839052600191810182905260608101839052600c80549194929391909216919061068a83610f4c565b91906101000a81548160ff021916908360ff16021790555060ff16600481106106b5576106b5610ea0565b6002020160008201518160000190805190602001906106d5929190610d51565b506020820151600190910180546040808501516060909501511515620100000262ff0000199515156101000261ff00199515159590951661ffff1990931692909217939093179390931692909217909155517f55d842d7b8c6edb757dd47be55f527a7dec7b2070bff29e947e6d22a65a01fd690600090a150505050505050565b336001600160a01b037f0000000000000000000000000000000000000000000000000000000000000000161461078b57600080fd5b80600160ff8216600481106107a2576107a2610ea0565b60020201546000036107b357600080fd5b821561081357600160ff8316600481106107cf576107cf610ea0565b6002020160010160019054906101000a900460ff1680156107f1575060095434145b6107fa57600080fd5b600c805461ff0019166101001790556009805460011b90555b600d805460408051635ec01e4d60e01b81529051600093926001600160a01b031691635ec01e4d916004808301926020929190829003018188875af1158015610860573d6000803e3d6000fd5b505050506040513d601f19601f820116820180604052508101906108849190610eb6565b61088e9190610ee5565b610899906001610f6b565b9050600160ff8416600481106108b1576108b1610ea0565b6002020180546001810182556000918252602080832090820401805460ff808616601f9094166101000a938402930219169190911790556108f3908490610c8e565b15610922576040517f4883f1286f79865b3c6bdba55835c3aa09a60485fb4de5f7ad0acaab6810518490600090a15b50505050565b610930610ca7565b61093a6000610d01565b565b610944610ca7565b6001600160a01b0381166109ae5760405162461bcd60e51b815260206004820152602660248201527f4f776e61626c653a206e6577206f776e657220697320746865207a65726f206160448201526564647265737360d01b60648201526084015b60405180910390fd5b6109b781610d01565b50565b6000806000836109e357600160ff8616600481106109da576109da610ea0565b600202016109e6565b600a5b805480602002602001604051908101604052809291908181526020018280548015610a4e57602002820191906000526020600020906000905b825461010083900a900460ff16815260206001928301818104948501949093039092029101808411610a1f5790505b505050505090506000815190506000805b8260ff16811015610add576000848281518110610a7e57610a7e610ea0565b602002602001015190508060ff16600114610ac057600a8160ff161015610aae57610aa98187610f6b565b610ab9565b610ab986600a610f6b565b9550610acc565b610ac983610f4c565b92505b50610ad681610f84565b9050610a5f565b5060005b8160ff16811015610b535760156001610afd8360ff8616610f9d565b610b079190610f9d565b610b1287600b610f6b565b60ff16610b1f9190610f0f565b1115610b3557610b2e85610f4c565b9450610b43565b610b40600b86610f6b565b94505b610b4c81610f84565b9050610ae1565b50600b8460ff16118015610b6a575060008160ff16115b600160ff891660048110610b8057610b80610ea0565b6002020160010160006101000a81548160ff021916908315150217905550839450505050505b92915050565b60008160ff168360ff1610610bc15781610bc3565b825b9392505050565b600160ff831660048110610be057610be0610ea0565b6002020160010160029054906101000a900460ff1615610bff57600080fd5b60008160ff16601514610c175760095460021b610c25565b6002600160080154901c6005025b6040519091506001600160a01b0385169082156108fc029083906000818181858888f19350505050158015610c5e573d6000803e3d6000fd5b506040517f34ec5380860d4fd12cd95d4d2f001afc87d48bfc50847bec134b0c315c8e2d7790600090a150505050565b60006015610c9c84846109ba565b60ff16119392505050565b6000546001600160a01b0316331461093a5760405162461bcd60e51b815260206004820181905260248201527f4f776e61626c653a2063616c6c6572206973206e6f7420746865206f776e657260448201526064016109a5565b600080546001600160a01b038381166001600160a01b0319831681178455604051919092169283917f8be0079c531659141344cd1fd0a4f28419497f9722a3daafe3b4186f6b6457e09190a35050565b82805482825590600052602060002090601f01602090048101928215610de75791602002820160005b83821115610db857835183826101000a81548160ff021916908360ff1602179055509260200192600101602081600001049283019260010302610d7a565b8015610de55782816101000a81549060ff0219169055600101602081600001049283019260010302610db8565b505b50610df3929150610df7565b5090565b5b80821115610df35760008155600101610df8565b803560ff81168114610e1d57600080fd5b919050565b600060208284031215610e3457600080fd5b610bc382610e0c565b60008060408385031215610e5057600080fd5b82358015158114610e6057600080fd5b9150610e6e60208401610e0c565b90509250929050565b600060208284031215610e8957600080fd5b81356001600160a01b0381168114610bc357600080fd5b634e487b7160e01b600052603260045260246000fd5b600060208284031215610ec857600080fd5b5051919050565b634e487b7160e01b600052601260045260246000fd5b600082610ef457610ef4610ecf565b500690565b634e487b7160e01b600052601160045260246000fd5b80820180821115610ba657610ba6610ef9565b600082610f3157610f31610ecf565b500490565b634e487b7160e01b600052604160045260246000fd5b600060ff821660ff8103610f6257610f62610ef9565b60010192915050565b60ff8181168382160190811115610ba657610ba6610ef9565b600060018201610f9657610f96610ef9565b5060010190565b81810381811115610ba657610ba6610ef956fea26469706673582212202b484b3871d5ea1e4224bb2daa1adca88b17a3e8ce943da8045fdef23bbbb4d264736f6c63430008150033",
    "linkReferences": {}
  },
  "methodIdentifiers": {
    "hit(bool,uint8)": "34e6a776",
    "owner()": "8da5cb5b",
    "renounceOwnership()": "715018a6",
    "split(uint8)": "1ef44aed",
    "stand(uint8)": "0a2d343a",
    "transferOwnership(address)": "f2fde38b"
  },
  "id": 24
}