{
  "abi": [
    {
      "inputs": [
        {
          "internalType": "address payable",
          "name": "_vault",
          "type": "address"
        },
        {
          "internalType": "address",
          "name": "_dealer",
          "type": "address"
        }
      ],
      "stateMutability": "payable",
      "type": "constructor"
    },
    {
      "anonymous": false,
      "inputs": [
        {
          "indexed": false,
          "internalType": "uint8",
          "name": "",
          "type": "uint8"
        }
      ],
      "name": "Bust",
      "type": "event"
    },
    {
      "anonymous": false,
      "inputs": [
        {
          "indexed": false,
          "internalType": "uint8",
          "name": "",
          "type": "uint8"
        }
      ],
      "name": "Hit",
      "type": "event"
    },
    {
      "anonymous": false,
      "inputs": [
        {
          "indexed": false,
          "internalType": "uint8",
          "name": "",
          "type": "uint8"
        }
      ],
      "name": "Loss",
      "type": "event"
    },
    {
      "anonymous": false,
      "inputs": [
        {
          "indexed": true,
          "internalType": "address",
          "name": "previousOwner",
          "type": "address"
        },
        {
          "indexed": true,
          "internalType": "address",
          "name": "newOwner",
          "type": "address"
        }
      ],
      "name": "OwnershipTransferred",
      "type": "event"
    },
    {
      "anonymous": false,
      "inputs": [
        {
          "indexed": false,
          "internalType": "uint256",
          "name": "",
          "type": "uint256"
        }
      ],
      "name": "Paid",
      "type": "event"
    },
    {
      "anonymous": false,
      "inputs": [],
      "name": "PlayerBlackjack",
      "type": "event"
    },
    {
      "anonymous": false,
      "inputs": [
        {
          "indexed": false,
          "internalType": "uint8",
          "name": "",
          "type": "uint8"
        }
      ],
      "name": "Push",
      "type": "event"
    },
    {
      "anonymous": false,
      "inputs": [
        {
          "indexed": false,
          "internalType": "uint8",
          "name": "",
          "type": "uint8"
        }
      ],
      "name": "Split",
      "type": "event"
    },
    {
      "anonymous": false,
      "inputs": [
        {
          "indexed": false,
          "internalType": "uint8",
          "name": "",
          "type": "uint8"
        }
      ],
      "name": "Win",
      "type": "event"
    },
    {
      "inputs": [
        {
          "internalType": "uint8[]",
          "name": "_cards",
          "type": "uint8[]"
        },
        {
          "internalType": "uint8",
          "name": "handNum",
          "type": "uint8"
        }
      ],
      "name": "addPlayerCards",
      "outputs": [],
      "stateMutability": "nonpayable",
      "type": "function"
    },
    {
      "inputs": [],
      "name": "dealer",
      "outputs": [
        {
          "internalType": "contract Dealer",
          "name": "",
          "type": "address"
        }
      ],
      "stateMutability": "view",
      "type": "function"
    },
    {
      "inputs": [
        {
          "internalType": "uint8",
          "name": "handNum",
          "type": "uint8"
        }
      ],
      "name": "doubleDown",
      "outputs": [],
      "stateMutability": "payable",
      "type": "function"
    },
    {
      "inputs": [],
      "name": "gameData",
      "outputs": [
        {
          "internalType": "uint256",
          "name": "betAmount",
          "type": "uint256"
        },
        {
          "internalType": "uint256",
          "name": "doubleDownAmount",
          "type": "uint256"
        },
        {
          "components": [
            {
              "internalType": "uint8[]",
              "name": "cards",
              "type": "uint8[]"
            },
            {
              "internalType": "bool",
              "name": "soft",
              "type": "bool"
            },
            {
              "internalType": "bool",
              "name": "firstTurn",
              "type": "bool"
            },
            {
              "internalType": "bool",
              "name": "finished",
              "type": "bool"
            }
          ],
          "internalType": "struct Blackjack.Hand",
          "name": "dealerHand",
          "type": "tuple"
        },
        {
          "internalType": "uint8",
          "name": "nextOpenHandSlot",
          "type": "uint8"
        },
        {
          "internalType": "bool",
          "name": "insurance",
          "type": "bool"
        }
      ],
      "stateMutability": "view",
      "type": "function"
    },
    {
      "inputs": [],
      "name": "getBetAmount",
      "outputs": [
        {
          "internalType": "uint256",
          "name": "",
          "type": "uint256"
        }
      ],
      "stateMutability": "view",
      "type": "function"
    },
    {
      "inputs": [
        {
          "internalType": "uint8",
          "name": "handNum",
          "type": "uint8"
        }
      ],
      "name": "getCardsFromHand",
      "outputs": [
        {
          "internalType": "uint8[]",
          "name": "",
          "type": "uint8[]"
        }
      ],
      "stateMutability": "view",
      "type": "function"
    },
    {
      "inputs": [],
      "name": "getDealerCards",
      "outputs": [
        {
          "internalType": "uint8[]",
          "name": "",
          "type": "uint8[]"
        }
      ],
      "stateMutability": "view",
      "type": "function"
    },
    {
      "inputs": [
        {
          "internalType": "uint8",
          "name": "handNum",
          "type": "uint8"
        },
        {
          "internalType": "bool",
          "name": "_dealer",
          "type": "bool"
        }
      ],
      "name": "getHandSum",
      "outputs": [
        {
          "internalType": "uint8",
          "name": "",
          "type": "uint8"
        }
      ],
      "stateMutability": "nonpayable",
      "type": "function"
    },
    {
      "inputs": [],
      "name": "getHands",
      "outputs": [
        {
          "components": [
            {
              "internalType": "uint8[]",
              "name": "cards",
              "type": "uint8[]"
            },
            {
              "internalType": "bool",
              "name": "soft",
              "type": "bool"
            },
            {
              "internalType": "bool",
              "name": "firstTurn",
              "type": "bool"
            },
            {
              "internalType": "bool",
              "name": "finished",
              "type": "bool"
            }
          ],
          "internalType": "struct Blackjack.Hand[4]",
          "name": "",
          "type": "tuple[4]"
        }
      ],
      "stateMutability": "view",
      "type": "function"
    },
    {
      "inputs": [],
      "name": "getInsurance",
      "outputs": [
        {
          "internalType": "bool",
          "name": "",
          "type": "bool"
        }
      ],
      "stateMutability": "view",
      "type": "function"
    },
    {
      "inputs": [],
      "name": "getNextOpenHandSlot",
      "outputs": [
        {
          "internalType": "uint8",
          "name": "",
          "type": "uint8"
        }
      ],
      "stateMutability": "view",
      "type": "function"
    },
    {
      "inputs": [
        {
          "internalType": "bool",
          "name": "_insurance",
          "type": "bool"
        },
        {
          "internalType": "uint8",
          "name": "handNum",
          "type": "uint8"
        }
      ],
      "name": "hit",
      "outputs": [
        {
          "internalType": "uint8",
          "name": "",
          "type": "uint8"
        }
      ],
      "stateMutability": "payable",
      "type": "function"
    },
    {
      "inputs": [],
      "name": "owner",
      "outputs": [
        {
          "internalType": "address",
          "name": "",
          "type": "address"
        }
      ],
      "stateMutability": "view",
      "type": "function"
    },
    {
      "inputs": [],
      "name": "player",
      "outputs": [
        {
          "internalType": "address",
          "name": "",
          "type": "address"
        }
      ],
      "stateMutability": "view",
      "type": "function"
    },
    {
      "inputs": [],
      "name": "renounceOwnership",
      "outputs": [],
      "stateMutability": "nonpayable",
      "type": "function"
    },
    {
      "inputs": [
        {
          "internalType": "uint8",
          "name": "_card1",
          "type": "uint8"
        },
        {
          "internalType": "uint8",
          "name": "_card2",
          "type": "uint8"
        }
      ],
      "name": "setDealerCards",
      "outputs": [],
      "stateMutability": "nonpayable",
      "type": "function"
    },
    {
      "inputs": [
        {
          "internalType": "uint8",
          "name": "_card1",
          "type": "uint8"
        },
        {
          "internalType": "uint8",
          "name": "_card2",
          "type": "uint8"
        },
        {
          "internalType": "uint8",
          "name": "handNum",
          "type": "uint8"
        }
      ],
      "name": "setPlayerCards",
      "outputs": [],
      "stateMutability": "nonpayable",
      "type": "function"
    },
    {
      "inputs": [
        {
          "internalType": "uint8",
          "name": "handNum",
          "type": "uint8"
        }
      ],
      "name": "split",
      "outputs": [],
      "stateMutability": "payable",
      "type": "function"
    },
    {
      "inputs": [
        {
          "internalType": "bool",
          "name": "_insurance",
          "type": "bool"
        },
        {
          "internalType": "uint8",
          "name": "handNum",
          "type": "uint8"
        }
      ],
      "name": "stand",
      "outputs": [],
      "stateMutability": "payable",
      "type": "function"
    },
    {
      "inputs": [
        {
          "internalType": "address",
          "name": "newOwner",
          "type": "address"
        }
      ],
      "name": "transferOwnership",
      "outputs": [],
      "stateMutability": "nonpayable",
      "type": "function"
    },
    {
      "inputs": [],
      "name": "vault",
      "outputs": [
        {
          "internalType": "contract Vault",
          "name": "",
          "type": "address"
        }
      ],
      "stateMutability": "view",
      "type": "function"
    }
  ],
  "bytecode": {
    "object": "0x6080604052604051620029ae380380620029ae833981016040819052620000269162000293565b62000031336200022a565b60003411620000865760405162461bcd60e51b815260206004820152601d60248201527f4e65656420746f20706c61636520616e20696e697469616c2062657421000000604482015260640160405180910390fd5b600f80546001600160a01b038085166001600160a01b031992831617909255600e805492841692821683179055601080549091163317905560408051635ec01e4d60e01b8152905160009291635ec01e4d916004808301926020929190829003018187875af1158015620000fe573d6000803e3d6000fd5b505050506040513d601f19601f82011682018060405250810190620001249190620002d2565b60018054808201825560208082047fb10e2d527612073b26eecdfd717e6a320cf44b4afac2b0732d9fcbe2b7fa0cf69081018054601f94851661010090810a60ff81810219909316600d808b068a0185169290920217909355600b80548089019091557f0175b7a638427703f0dbe7bb9bbf987a2551717b34e79f33b5b1008d1fa01db986820401805460648b048690068a018516928916840a928302928502191691909117905586548088018855600088905294850490930180546127109098048390068701821694909516830a938402930219909516919091179091553460095582546002805461ff00191690921790915561ffff191617905550620002ec915050565b600080546001600160a01b038381166001600160a01b0319831681178455604051919092169283917f8be0079c531659141344cd1fd0a4f28419497f9722a3daafe3b4186f6b6457e09190a35050565b6001600160a01b03811681146200029057600080fd5b50565b60008060408385031215620002a757600080fd5b8251620002b4816200027a565b6020840151909250620002c7816200027a565b809150509250929050565b600060208284031215620002e557600080fd5b5051919050565b6126b280620002fc6000396000f3fe60806040526004361061012a5760003560e01c8063720d984e116100ab5780639de2ee211161006f5780639de2ee2114610301578063e8fa988d14610321578063f2fde38b14610343578063fa24f74314610363578063fbfa77cf14610389578063fde41e29146103a957600080fd5b8063720d984e14610288578063743922b81461029b5780637b2f76a7146102ae5780638da5cb5b146102ce578063974ee4d8146102ec57600080fd5b806340e2e20c116100f257806340e2e20c146101d657806348db5f89146101f65780635a20d60b1461022e5780635db060ee1461025b578063715018a61461027357600080fd5b80631707ea981461012f5780631d6c4e3b146101515780631ef44aed14610171578063267a8da01461018457806334e6a776146101b1575b600080fd5b34801561013b57600080fd5b5061014f61014a366004612227565b6103c7565b005b34801561015d57600080fd5b5061014f61016c36600461225a565b61045b565b61014f61017f3660046122de565b6104f4565b34801561019057600080fd5b50600d54610100900460ff1660405190151581526020015b60405180910390f35b6101c46101bf366004612309565b610a02565b60405160ff90911681526020016101a8565b3480156101e257600080fd5b5061014f6101f1366004612325565b610d8a565b34801561020257600080fd5b50601054610216906001600160a01b031681565b6040516001600160a01b0390911681526020016101a8565b34801561023a57600080fd5b5061024e6102493660046122de565b610e40565b6040516101a8919061235f565b34801561026757600080fd5b50600d5460ff166101c4565b34801561027f57600080fd5b5061014f610ecd565b61014f6102963660046122de565b610ee1565b61014f6102a9366004612309565b611130565b3480156102ba57600080fd5b506101c46102c93660046123a6565b61146b565b3480156102da57600080fd5b506000546001600160a01b0316610216565b3480156102f857600080fd5b5061024e61168e565b34801561030d57600080fd5b50600e54610216906001600160a01b031681565b34801561032d57600080fd5b50610336611703565b6040516101a89190612445565b34801561034f57600080fd5b5061014f61035e366004612492565b6117f3565b34801561036f57600080fd5b5061037861186c565b6040516101a89594939291906124bb565b34801561039557600080fd5b50600f54610216906001600160a01b031681565b3480156103b557600080fd5b506009546040519081526020016101a8565b600b80548391906000906103dd576103dd6124f6565b6000918252602080832081830401805460ff958616601f94851661010090810a9182029188021990921617909155600b805460018101825594529083047f0175b7a638427703f0dbe7bb9bbf987a2551717b34e79f33b5b1008d1fa01db901805495851693909216900a918202919092021990921691909117905550565b60005b828110156104ee57600160ff83166004811061047c5761047c6124f6565b60020201848483818110610492576104926124f6565b90506020020160208101906104a791906122de565b81546001810183556000928352602092839020928104909201805460ff928316601f9094166101000a93840292909302199092161790556104e781612522565b905061045e565b50505050565b6010546001600160a01b031633146105275760405162461bcd60e51b815260040161051e9061253b565b60405180910390fd5b80600160ff82166004811061053e5761053e6124f6565b60020201546000036105625760405162461bcd60e51b815260040161051e90612572565b6000600160ff84166004811061057a5761057a6124f6565b600202018054604080516020808402820181019092528281529291908301828280156105e357602002820191906000526020600020906000905b825461010083900a900460ff168152602060019283018181049485019490930390920291018084116105b45790505b50505050509050806001815181106105fd576105fd6124f6565b602002602001015160ff168160008151811061061b5761061b6124f6565b602002602001015160ff16146106695760405162461bcd60e51b8152602060048201526013602482015272139959590818481c185a5c881a5b881a185b99606a1b604482015260640161051e565b60095434146106ba5760405162461bcd60e51b815260206004820152601a60248201527f4e65656420746f206d61746368206f726967696e616c20626574000000000000604482015260640161051e565b600d54600460ff909116106107115760405162461bcd60e51b815260206004820152601c60248201527f43616e206f6e6c792073706c697420746f20666f75722068616e647300000000604482015260640161051e565b600e5460408051635ec01e4d60e01b815290516000926001600160a01b031691635ec01e4d916004808301926020929190829003018187875af115801561075c573d6000803e3d6000fd5b505050506040513d601f19601f820116820180604052508101906107809190612598565b9050600061078f600d836125c7565b61079a9060016125db565b905080600160ff8716600481106107b3576107b36124f6565b60020201805460019081106107ca576107ca6124f6565b90600052602060002090602091828204019190066101000a81548160ff021916908360ff1602179055506000600267ffffffffffffffff811115610810576108106125ee565b604051908082528060200260200182016040528015610839578160200160208202803683370190505b5090506000600d61084b606486612604565b61085591906125c7565b6108609060016125db565b905084600181518110610875576108756124f6565b602002602001015182600081518110610890576108906124f6565b602002602001019060ff16908160ff168152505080826001815181106108b8576108b86124f6565b60ff928316602091820292909201810191909152604080516080810182528581526000928101839052600191810182905260608101839052600d80549194929391909216919061090783612618565b91906101000a81548160ff021916908360ff16021790555060ff1660048110610932576109326124f6565b60020201600082015181600001908051906020019061095292919061210f565b5060208201516001909101805460408401516060909401511515620100000262ff0000199415156101000261ff00199415159490941661ffff1990921691909117929092179290921617905584517f738fbb20ac06733db9d189b456de5d77d03f3f832ea1da86c2a1569fbfd711c69086906000906109d3576109d36124f6565b60200260200101516040516109f1919060ff91909116815260200190565b60405180910390a150505050505050565b6010546000906001600160a01b03163314610a2f5760405162461bcd60e51b815260040161051e9061253b565b81600160ff821660048110610a4657610a466124f6565b6002020154600003610a6a5760405162461bcd60e51b815260040161051e90612572565b8315610a7957610a7983611931565b6000600160ff851660048110610a9157610a916124f6565b6002020160010160016101000a81548160ff0219169083151502179055506000600d600e60009054906101000a90046001600160a01b03166001600160a01b0316635ec01e4d6040518163ffffffff1660e01b81526004016020604051808303816000875af1158015610b08573d6000803e3d6000fd5b505050506040513d601f19601f82011682018060405250810190610b2c9190612598565b610b3691906125c7565b610b41906001612637565b9050600160ff851660048110610b5957610b596124f6565b6002020180546001810182556000918252602080832090820401805460ff808616601f9094166101000a93840293021916919091179055610b9b908590611b9a565b15610c9c577f7ed0b9d88fc0672a79b9f48e433842d27015f2e5ca611abe22218ed0737ac84e600160ff861660048110610bd757610bd76124f6565b6002020180546001908110610bee57610bee6124f6565b90600052602060002090602091828204019190069054906101000a900460ff1660016000018660ff1660048110610c2757610c276124f6565b600202018054600090610c3c57610c3c6124f6565b90600052602060002090602091828204019190069054906101000a900460ff1683610c679190612637565b610c719190612637565b60405160ff909116815260200160405180910390a1610c9c84610c9586600061146b565b6015611bb3565b7f76f79ba55614c6fd9a839698f6674fd0a80c3988d6594633c95fdd63814f676e600160ff861660048110610cd357610cd36124f6565b6002020180546001908110610cea57610cea6124f6565b90600052602060002090602091828204019190069054906101000a900460ff1660016000018660ff1660048110610d2357610d236124f6565b600202018054600090610d3857610d386124f6565b90600052602060002090602091828204019190069054906101000a900460ff1683610d639190612637565b610d6d9190612637565b60405160ff909116815260200160405180910390a1949350505050565b82600160ff831660048110610da157610da16124f6565b600202018054600090610db657610db66124f6565b90600052602060002090602091828204019190066101000a81548160ff021916908360ff1602179055508160016000018260ff1660048110610dfa57610dfa6124f6565b6002020180546001908110610e1157610e116124f6565b90600052602060002090602091828204019190066101000a81548160ff021916908360ff160217905550505050565b6060600160ff831660048110610e5857610e586124f6565b60020201805460408051602080840282018101909252828152929190830182828015610ec157602002820191906000526020600020906000905b825461010083900a900460ff16815260206001928301818104948501949093039092029101808411610e925790505b50505050509050919050565b610ed5612047565b610edf60006120a1565b565b60408051610140810190915260009060018160c0810182600486835b82821015610fc95760408051600284028601805460a060208202840181019094526080830181815292939192849290918491840182828015610f7c57602002820191906000526020600020906000905b825461010083900a900460ff16815260206001928301818104948501949093039092029101808411610f4d5790505b505050918352505060019182015460ff8082161515602080850191909152610100830482161515604085015262010000909204161515606090920191909152918352929092019101610efd565b5050505081526020016008820154815260200160098201548152602001600a82016040518060800160405290816000820180548060200260200160405190810160405280929190818152602001828054801561106257602002820191906000526020600020906000905b825461010083900a900460ff168152602060019283018181049485019490930390920291018084116110335790505b50505091835250506001919091015460ff8082161515602080850191909152610100808404831615156040808701919091526201000090940483161515606090950194909452938552600c95909501548086169385019390935291049092161515910152905060006110d4838261146b565b905060026110e3600983612650565b60ff16111580156110f8575081602001513411155b825160ff85166004811061110e5761110e6124f6565b6020020151901515604090910181905261112757600080fd5b505034600a5550565b6010546001600160a01b0316331461115a5760405162461bcd60e51b815260040161051e9061253b565b80600160ff821660048110611171576111716124f6565b60020201546000036111955760405162461bcd60e51b815260040161051e90612572565b82156111a4576111a482611931565b6000600160ff8416600481106111bc576111bc6124f6565b6002020160010160016101000a81548160ff0219169083151502179055506000600e60009054906101000a90046001600160a01b03166001600160a01b0316635ec01e4d6040518163ffffffff1660e01b81526004016020604051808303816000875af1158015611231573d6000803e3d6000fd5b505050506040513d601f19601f820116820180604052508101906112559190612598565b9050600061126484600061146b565b905060006112746000600161146b565b90505b6112826015836120f1565b60ff168160ff161161134d5760128160ff161015806112b257508060ff1660111480156112b25750600c5460ff16155b61134d5760006112d86112c6600d866125c7565b6112d19060016125db565b600a6120f1565b90506112e5606485612604565b600b8054600181810183556000928352602082047f0175b7a638427703f0dbe7bb9bbf987a2551717b34e79f33b5b1008d1fa01db901805460ff808816601f9095166101000a94850294021916929092179091559195506113459161146b565b915050611277565b8160ff168160ff16036113955760405160ff831681527fb4891788e5aeae0a7c35bc54a5c88724c39b101c0efcbf08357254a031870b749060200160405180910390a161142e565b60158160ff1611806113ac57508060ff168260ff16115b156113ec5760405160ff831681527f1bf0bb3b8aecbdd715eacadcfc823650fc174b037c21da88af0beb4f55bfe4e99060200160405180910390a1611423565b60405160ff831681527fdf7e02b4cc7d28bf9e9c21e7c83f9a8d0926b26168fdc0a43393fe57ddaed8289060200160405180910390a15b61142e858383611bb3565b8160ff16601503611463576040517fac12b2cd30b1f4db38d94e07d1376d0a700299ee9f243744847703a0b55ef5af90600090a15b505050505050565b60008060008361149457600160ff86166004811061148b5761148b6124f6565b60020201611497565b600b5b8054806020026020016040519081016040528092919081815260200182805480156114ff57602002820191906000526020600020906000905b825461010083900a900460ff168152602060019283018181049485019490930390920291018084116114d05790505b505050505090506000815190506000805b8260ff1681101561158e57600084828151811061152f5761152f6124f6565b602002602001015190508060ff1660011461157157600a8160ff16101561155f5761155a8187612637565b61156a565b61156a86600a612637565b955061157d565b61157a83612618565b92505b5061158781612522565b9050611510565b5060005b8160ff1681101561160457601560016115ae8360ff8616612669565b6115b89190612669565b6115c387600b612637565b60ff166115d091906125db565b11156115e6576115df85612618565b94506115f4565b6115f1600b86612637565b94505b6115fd81612522565b9050611592565b508561165957600b8460ff16118015611620575060008160ff16115b600160ff891660048110611636576116366124f6565b6002020160010160006101000a81548160ff021916908315150217905550611681565b600b8460ff1611801561166f575060008160ff16115b600c805460ff19169115159190911790555b5091925050505b92915050565b600b805460408051602080840282018101909252828152606093909290918301828280156116f957602002820191906000526020600020906000905b825461010083900a900460ff168152602060019283018181049485019490930390920291018084116116ca5790505b5050505050905090565b61170b6121b5565b6040805160808101909152600160046000835b828210156117ea5760408051600284028601805460a06020820284018101909452608083018181529293919284929091849184018282801561179d57602002820191906000526020600020906000905b825461010083900a900460ff1681526020600192830181810494850194909303909202910180841161176e5790505b505050918352505060019182015460ff808216151560208085019190915261010083048216151560408501526201000090920416151560609092019190915291835292909201910161171e565b50505050905090565b6117fb612047565b6001600160a01b0381166118605760405162461bcd60e51b815260206004820152602660248201527f4f776e61626c653a206e6577206f776e657220697320746865207a65726f206160448201526564647265737360d01b606482015260840161051e565b611869816120a1565b50565b600954600a5460408051600b805460a0602082028401810190945260808301818152600194849284918401828280156118e257602002820191906000526020600020906000905b825461010083900a900460ff168152602060019283018181049485019490930390920291018084116118b35790505b50505091835250506001919091015460ff808216151560208401526101008083048216151560408501526201000090920481161515606090930192909252600c90930154919282821692041685565b60408051610140810190915260009060018160c0810182600486835b82821015611a195760408051600284028601805460a0602082028401810190945260808301818152929391928492909184918401828280156119cc57602002820191906000526020600020906000905b825461010083900a900460ff1681526020600192830181810494850194909303909202910180841161199d5790505b505050918352505060019182015460ff808216151560208085019190915261010083048216151560408501526201000090920416151560609092019190915291835292909201910161194d565b5050505081526020016008820154815260200160098201548152602001600a820160405180608001604052908160008201805480602002602001604051908101604052809291908181526020018280548015611ab257602002820191906000526020600020906000905b825461010083900a900460ff16815260206001928301818104948501949093039092029101808411611a835790505b50505091835250506001919091015460ff8082161515602080850191909152610100808404831615156040808701919091526201000090940483161515606090950194909452938552600c9590950154808616938501939093529104831615159101529091508216158015611b4857506060810151518051600090611b3957611b396124f6565b602002602001015160ff166001145b8015611b6f5750805160ff831660048110611b6557611b656124f6565b6020020151604001515b8015611b7e5750806020015134145b611b8757600080fd5b5050600d805461ff001916610100179055565b60006015611ba8848461146b565b60ff16119392505050565b60408051610140810190915260009060018160c0810182600486835b82821015611c9b5760408051600284028601805460a060208202840181019094526080830181815292939192849290918491840182828015611c4e57602002820191906000526020600020906000905b825461010083900a900460ff16815260206001928301818104948501949093039092029101808411611c1f5790505b505050918352505060019182015460ff8082161515602080850191909152610100830482161515604085015262010000909204161515606090920191909152918352929092019101611bcf565b5050505081526020016008820154815260200160098201548152602001600a820160405180608001604052908160008201805480602002602001604051908101604052809291908181526020018280548015611d3457602002820191906000526020600020906000905b825461010083900a900460ff16815260206001928301818104948501949093039092029101808411611d055790505b50505091835250506001919091015460ff8082161515602080850191909152610100808404831615156040808701919091526201000090940483161515606090950194909452938552600c9590950154808616938501939093529104831615159101528151919250851660048110611dae57611dae6124f6565b60200201516060015115611dfc5760405162461bcd60e51b815260206004820152601560248201527412185b9908185b1c9958591e48199a5b9a5cda1959605a1b604482015260640161051e565b60018060ff861660048110611e1357611e136124f6565b6002020160010160026101000a81548160ff02191690831515021790555060008160200151905060008360ff168560ff16118015611e595750611e57866000611b9a565b155b15611eb25760158560ff1611611eb2578460ff166015148015611e985750825160ff871660048110611e8d57611e8d6124f6565b602002015151516002145b611ea657600182901b611eaf565b600182901c6005025b90505b606083015151516002148015611ecb57508360ff166015145b8015611ed857508260a001515b15611eee57611eeb600183901b826125db565b90505b6040830151611f009060011b826125db565b600f54601054604051634d1a8de160e01b8152600481018490526001600160a01b0391821660248201529293501690634d1a8de190604401600060405180830381600087803b158015611f5257600080fd5b505af1158015611f66573d6000803e3d6000fd5b505050506000811115611fa7576040518181527f581d416ae9dff30c9305c2b35cb09ed5991897ab97804db29ccf92678e9531609060200160405180910390a15b600f546040516000916001600160a01b03169084908381818185875af1925050503d8060008114611ff4576040519150601f19603f3d011682016040523d82523d6000602084013e611ff9565b606091505b505090508061203e5760405162461bcd60e51b8152602060048201526011602482015270139bdd081cd95b9d081d1bc81d985d5b1d607a1b604482015260640161051e565b50505050505050565b6000546001600160a01b03163314610edf5760405162461bcd60e51b815260206004820181905260248201527f4f776e61626c653a2063616c6c6572206973206e6f7420746865206f776e6572604482015260640161051e565b600080546001600160a01b038381166001600160a01b0319831681178455604051919092169283917f8be0079c531659141344cd1fd0a4f28419497f9722a3daafe3b4186f6b6457e09190a35050565b60008160ff168360ff16106121065781612108565b825b9392505050565b82805482825590600052602060002090601f016020900481019282156121a55791602002820160005b8382111561217657835183826101000a81548160ff021916908360ff1602179055509260200192600101602081600001049283019260010302612138565b80156121a35782816101000a81549060ff0219169055600101602081600001049283019260010302612176565b505b506121b19291506121fc565b5090565b60405180608001604052806004905b604080516080810182526060808252600060208084018290529383018190529082015282526000199092019101816121c45790505090565b5b808211156121b157600081556001016121fd565b803560ff8116811461222257600080fd5b919050565b6000806040838503121561223a57600080fd5b61224383612211565b915061225160208401612211565b90509250929050565b60008060006040848603121561226f57600080fd5b833567ffffffffffffffff8082111561228757600080fd5b818601915086601f83011261229b57600080fd5b8135818111156122aa57600080fd5b8760208260051b85010111156122bf57600080fd5b6020928301955093506122d59186019050612211565b90509250925092565b6000602082840312156122f057600080fd5b61210882612211565b8035801515811461222257600080fd5b6000806040838503121561231c57600080fd5b612243836122f9565b60008060006060848603121561233a57600080fd5b61234384612211565b925061235160208501612211565b91506122d560408501612211565b6020808252825182820181905260009190848201906040850190845b8181101561239a57835160ff168352928401929184019160010161237b565b50909695505050505050565b600080604083850312156123b957600080fd5b6123c283612211565b9150612251602084016122f9565b8051608080845281519084018190526000916020919082019060a0860190845b8181101561240f57835160ff16835292840192918401916001016123f0565b5050828501511515838701526040850151151560408701526060850151925061243c606087018415159052565b95945050505050565b602080825260009060a0830183820185845b600481101561248657601f198785030183526124748483516123d0565b93509184019190840190600101612457565b50919695505050505050565b6000602082840312156124a457600080fd5b81356001600160a01b038116811461210857600080fd5b85815284602082015260a0604082015260006124da60a08301866123d0565b60ff949094166060830152509015156080909101529392505050565b634e487b7160e01b600052603260045260246000fd5b634e487b7160e01b600052601160045260246000fd5b6000600182016125345761253461250c565b5060010190565b6020808252601f908201527f4d75737420626520706c6179657220746f2063616c6c2066756e6374696f6e00604082015260600190565b6020808252600c908201526b12185b99081a5b9d985b1a5960a21b604082015260600190565b6000602082840312156125aa57600080fd5b5051919050565b634e487b7160e01b600052601260045260246000fd5b6000826125d6576125d66125b1565b500690565b808201808211156116885761168861250c565b634e487b7160e01b600052604160045260246000fd5b600082612613576126136125b1565b500490565b600060ff821660ff810361262e5761262e61250c565b60010192915050565b60ff81811683821601908111156116885761168861250c565b60ff82811682821603908111156116885761168861250c565b818103818111156116885761168861250c56fea2646970667358221220a40a3a57677ca98207c2c1f092a39bca97864d0fb402dc08f28845e1fb3307fb64736f6c63430008150033",
    "linkReferences": {}
  },
  "methodIdentifiers": {
    "addPlayerCards(uint8[],uint8)": "1d6c4e3b",
    "dealer()": "9de2ee21",
    "doubleDown(uint8)": "720d984e",
    "gameData()": "fa24f743",
    "getBetAmount()": "fde41e29",
    "getCardsFromHand(uint8)": "5a20d60b",
    "getDealerCards()": "974ee4d8",
    "getHandSum(uint8,bool)": "7b2f76a7",
    "getHands()": "e8fa988d",
    "getInsurance()": "267a8da0",
    "getNextOpenHandSlot()": "5db060ee",
    "hit(bool,uint8)": "34e6a776",
    "owner()": "8da5cb5b",
    "player()": "48db5f89",
    "renounceOwnership()": "715018a6",
    "setDealerCards(uint8,uint8)": "1707ea98",
    "setPlayerCards(uint8,uint8,uint8)": "40e2e20c",
    "split(uint8)": "1ef44aed",
    "stand(bool,uint8)": "743922b8",
    "transferOwnership(address)": "f2fde38b",
    "vault()": "fbfa77cf"
  },
  "id": 21
}