{
  "abi": [
    {
      "inputs": [
        {
          "internalType": "address",
          "name": "_vault",
          "type": "address"
        },
        {
          "internalType": "address",
          "name": "_dealer",
          "type": "address"
        }
      ],
      "stateMutability": "payable",
      "type": "constructor"
    },
    {
      "anonymous": false,
      "inputs": [],
      "name": "Bust",
      "type": "event"
    },
    {
      "anonymous": false,
      "inputs": [],
      "name": "Hit",
      "type": "event"
    },
    {
      "anonymous": false,
      "inputs": [
        {
          "indexed": true,
          "internalType": "address",
          "name": "previousOwner",
          "type": "address"
        },
        {
          "indexed": true,
          "internalType": "address",
          "name": "newOwner",
          "type": "address"
        }
      ],
      "name": "OwnershipTransferred",
      "type": "event"
    },
    {
      "anonymous": false,
      "inputs": [],
      "name": "Paid",
      "type": "event"
    },
    {
      "anonymous": false,
      "inputs": [],
      "name": "Split",
      "type": "event"
    },
    {
      "anonymous": false,
      "inputs": [],
      "name": "Win",
      "type": "event"
    },
    {
      "inputs": [],
      "name": "dealer",
      "outputs": [
        {
          "internalType": "contract Dealer",
          "name": "",
          "type": "address"
        }
      ],
      "stateMutability": "view",
      "type": "function"
    },
    {
      "inputs": [],
      "name": "gameData",
      "outputs": [
        {
          "internalType": "uint256",
          "name": "betAmount",
          "type": "uint256"
        },
        {
          "components": [
            {
              "internalType": "uint8[]",
              "name": "cards",
              "type": "uint8[]"
            },
            {
              "internalType": "bool",
              "name": "soft",
              "type": "bool"
            },
            {
              "internalType": "bool",
              "name": "firstTurn",
              "type": "bool"
            },
            {
              "internalType": "bool",
              "name": "finished",
              "type": "bool"
            }
          ],
          "internalType": "struct Blackjack.Hand",
          "name": "dealerHand",
          "type": "tuple"
        },
        {
          "internalType": "uint8",
          "name": "nextOpenHandSlot",
          "type": "uint8"
        },
        {
          "internalType": "bool",
          "name": "insurance",
          "type": "bool"
        }
      ],
      "stateMutability": "view",
      "type": "function"
    },
    {
      "inputs": [],
      "name": "getBetAmount",
      "outputs": [
        {
          "internalType": "uint256",
          "name": "",
          "type": "uint256"
        }
      ],
      "stateMutability": "view",
      "type": "function"
    },
    {
      "inputs": [
        {
          "internalType": "uint8",
          "name": "handNum",
          "type": "uint8"
        }
      ],
      "name": "getCardsFromHand",
      "outputs": [
        {
          "internalType": "uint8[]",
          "name": "",
          "type": "uint8[]"
        }
      ],
      "stateMutability": "view",
      "type": "function"
    },
    {
      "inputs": [],
      "name": "getDealerCards",
      "outputs": [
        {
          "internalType": "uint8[]",
          "name": "",
          "type": "uint8[]"
        }
      ],
      "stateMutability": "view",
      "type": "function"
    },
    {
      "inputs": [],
      "name": "getHands",
      "outputs": [
        {
          "components": [
            {
              "internalType": "uint8[]",
              "name": "cards",
              "type": "uint8[]"
            },
            {
              "internalType": "bool",
              "name": "soft",
              "type": "bool"
            },
            {
              "internalType": "bool",
              "name": "firstTurn",
              "type": "bool"
            },
            {
              "internalType": "bool",
              "name": "finished",
              "type": "bool"
            }
          ],
          "internalType": "struct Blackjack.Hand[4]",
          "name": "",
          "type": "tuple[4]"
        }
      ],
      "stateMutability": "view",
      "type": "function"
    },
    {
      "inputs": [],
      "name": "getInsurance",
      "outputs": [
        {
          "internalType": "bool",
          "name": "",
          "type": "bool"
        }
      ],
      "stateMutability": "view",
      "type": "function"
    },
    {
      "inputs": [],
      "name": "getNextOpenHandSlot",
      "outputs": [
        {
          "internalType": "uint8",
          "name": "",
          "type": "uint8"
        }
      ],
      "stateMutability": "view",
      "type": "function"
    },
    {
      "inputs": [
        {
          "internalType": "bool",
          "name": "_insurance",
          "type": "bool"
        },
        {
          "internalType": "uint8",
          "name": "handNum",
          "type": "uint8"
        }
      ],
      "name": "hit",
      "outputs": [],
      "stateMutability": "payable",
      "type": "function"
    },
    {
      "inputs": [],
      "name": "owner",
      "outputs": [
        {
          "internalType": "address",
          "name": "",
          "type": "address"
        }
      ],
      "stateMutability": "view",
      "type": "function"
    },
    {
      "inputs": [],
      "name": "player",
      "outputs": [
        {
          "internalType": "address",
          "name": "",
          "type": "address"
        }
      ],
      "stateMutability": "view",
      "type": "function"
    },
    {
      "inputs": [],
      "name": "renounceOwnership",
      "outputs": [],
      "stateMutability": "nonpayable",
      "type": "function"
    },
    {
      "inputs": [
        {
          "internalType": "uint8",
          "name": "handNum",
          "type": "uint8"
        }
      ],
      "name": "split",
      "outputs": [],
      "stateMutability": "payable",
      "type": "function"
    },
    {
      "inputs": [
        {
          "internalType": "uint8",
          "name": "handNum",
          "type": "uint8"
        }
      ],
      "name": "stand",
      "outputs": [],
      "stateMutability": "nonpayable",
      "type": "function"
    },
    {
      "inputs": [
        {
          "internalType": "address",
          "name": "newOwner",
          "type": "address"
        }
      ],
      "name": "transferOwnership",
      "outputs": [],
      "stateMutability": "nonpayable",
      "type": "function"
    },
    {
      "inputs": [],
      "name": "vault",
      "outputs": [
        {
          "internalType": "address",
          "name": "",
          "type": "address"
        }
      ],
      "stateMutability": "view",
      "type": "function"
    }
  ],
  "bytecode": {
    "object": "0x6080604052604051620018be380380620018be83398101604081905262000026916200029a565b62000031336200022d565b60003411620000865760405162461bcd60e51b815260206004820152601d60248201527f4e65656420746f20706c61636520616e20696e697469616c2062657421000000604482015260640160405180910390fd5b600e80546001600160a01b038085166001600160a01b031992831617909255600d805492841692821683179055600f80549091163317905560408051635ec01e4d60e01b8152905160009291635ec01e4d916004808301926020929190829003018187875af1158015620000fe573d6000803e3d6000fd5b505050506040513d601f19601f82011682018060405250810190620001249190620002d2565b60018054808201825560208082047fb10e2d527612073b26eecdfd717e6a320cf44b4afac2b0732d9fcbe2b7fa0cf69081018054601f94851661010090810a60ff81810219909316600d808b068a0185169290920217909355600a80548089019091557fc65a7bb8d6351c1cf70c95a316cc6a92839c986682d98bc35f958f4883f9d2a886820401805460648b048690068a018516928916840a92830292850219169190911790558654808801885560008890529485049093018054612710909804929092068601811693909416820a928302929093021990941617905534600955600c80546002805461ff00191690941790935561ffff1990921617905550620002ec915050565b600080546001600160a01b038381166001600160a01b0319831681178455604051919092169283917f8be0079c531659141344cd1fd0a4f28419497f9722a3daafe3b4186f6b6457e09190a35050565b80516001600160a01b03811681146200029557600080fd5b919050565b60008060408385031215620002ae57600080fd5b620002b9836200027d565b9150620002c9602084016200027d565b90509250929050565b600060208284031215620002e557600080fd5b5051919050565b6115c280620002fc6000396000f3fe6080604052600436106100f35760003560e01c80638da5cb5b1161008a578063f2fde38b11610059578063f2fde38b1461027e578063fa24f7431461029e578063fbfa77cf146102c3578063fde41e29146102e357600080fd5b80638da5cb5b14610209578063974ee4d8146102275780639de2ee211461023c578063e8fa988d1461025c57600080fd5b806348db5f89116100c657806348db5f891461016d5780635a20d60b146101a55780635db060ee146101d2578063715018a6146101f457600080fd5b80630a2d343a146100f85780631ef44aed1461011a578063267a8da01461012d57806334e6a7761461015a575b600080fd5b34801561010457600080fd5b506101186101133660046112c1565b610301565b005b6101186101283660046112c1565b610527565b34801561013957600080fd5b50600c54610100900460ff1660405190151581526020015b60405180910390f35b6101186101683660046112dc565b610918565b34801561017957600080fd5b50600f5461018d906001600160a01b031681565b6040516001600160a01b039091168152602001610151565b3480156101b157600080fd5b506101c56101c03660046112c1565b610acc565b6040516101519190611316565b3480156101de57600080fd5b50600c5460405160ff9091168152602001610151565b34801561020057600080fd5b50610118610b59565b34801561021557600080fd5b506000546001600160a01b031661018d565b34801561023357600080fd5b506101c5610b6d565b34801561024857600080fd5b50600d5461018d906001600160a01b031681565b34801561026857600080fd5b50610271610be2565b60405161015191906113d2565b34801561028a57600080fd5b5061011861029936600461141f565b610cd2565b3480156102aa57600080fd5b506102b3610d50565b6040516101519493929190611448565b3480156102cf57600080fd5b50600e5461018d906001600160a01b031681565b3480156102ef57600080fd5b50600954604051908152602001610151565b600f546001600160a01b0316331461031857600080fd5b80600160ff82166004811061032f5761032f61147c565b600202015460000361034057600080fd5b600d5460408051635ec01e4d60e01b815290516000926001600160a01b031691635ec01e4d916004808301926020929190829003018187875af115801561038b573d6000803e3d6000fd5b505050506040513d601f19601f820116820180604052508101906103af9190611492565b905060006103be846000610e12565b600a805491925060009182906103d6576103d661147c565b90600052602060002090602091828204019190069054906101000a900460ff1690505b610404601583611004565b60ff168160ff16116104cf5760128160ff1610158061043457508060ff1660111480156104345750600b5460ff16155b6104cf57600061045a610448600d866114c1565b6104539060016114eb565b600a611004565b90506104676064856114fe565b600a8054600181810183556000928352602082047fc65a7bb8d6351c1cf70c95a316cc6a92839c986682d98bc35f958f4883f9d2a801805460ff808816601f9095166101000a94850294021916929092179091559195506104c791610e12565b9150506103f9565b60158160ff1611806104e657508060ff168260ff16115b15610520576104f6338684611022565b6040517f29822734f2619c764b25a111ff2328da08e02d6652fc891eb80227a6ec58774390600090a15b5050505050565b600f546001600160a01b0316331461053e57600080fd5b80600160ff8216600481106105555761055561147c565b600202015460000361056657600080fd5b6000600160ff84166004811061057e5761057e61147c565b600202018054604080516020808402820181019092528281529291908301828280156105e757602002820191906000526020600020906000905b825461010083900a900460ff168152602060019283018181049485019490930390920291018084116105b85790505b50505050509050806001815181106106015761060161147c565b602002602001015160ff168160008151811061061f5761061f61147c565b602002602001015160ff161461063457600080fd5b600954341461064257600080fd5b600c54600460ff9091161061065657600080fd5b600d5460408051635ec01e4d60e01b815290516000926001600160a01b031691635ec01e4d916004808301926020929190829003018187875af11580156106a1573d6000803e3d6000fd5b505050506040513d601f19601f820116820180604052508101906106c59190611492565b905060006106d4600d836114c1565b6106df9060016114eb565b905080600160ff8716600481106106f8576106f861147c565b600202018054600190811061070f5761070f61147c565b90600052602060002090602091828204019190066101000a81548160ff021916908360ff1602179055506000600267ffffffffffffffff81111561075557610755611512565b60405190808252806020026020018201604052801561077e578160200160208202803683370190505b5090506000600d6107906064866114fe565b61079a91906114c1565b6107a59060016114eb565b9050846001815181106107ba576107ba61147c565b6020026020010151826000815181106107d5576107d561147c565b602002602001019060ff16908160ff168152505080826001815181106107fd576107fd61147c565b60ff928316602091820292909201810191909152604080516080810182528581526000928101839052600191810182905260608101839052600c80549194929391909216919061084c83611528565b91906101000a81548160ff021916908360ff16021790555060ff16600481106108775761087761147c565b6002020160008201518160000190805190602001906108979291906111a9565b506020820151600190910180546040808501516060909501511515620100000262ff0000199515156101000261ff00199515159590951661ffff1990931692909217939093179390931692909217909155517f55d842d7b8c6edb757dd47be55f527a7dec7b2070bff29e947e6d22a65a01fd690600090a150505050505050565b600f546001600160a01b0316331461092f57600080fd5b80600160ff8216600481106109465761094661147c565b600202015460000361095757600080fd5b82156109b757600160ff8316600481106109735761097361147c565b6002020160010160019054906101000a900460ff168015610995575060095434145b61099e57600080fd5b600c805461ff0019166101001790556009805460011b90555b600d805460408051635ec01e4d60e01b81529051600093926001600160a01b031691635ec01e4d916004808301926020929190829003018188875af1158015610a04573d6000803e3d6000fd5b505050506040513d601f19601f82011682018060405250810190610a289190611492565b610a3291906114c1565b610a3d906001611547565b9050600160ff841660048110610a5557610a5561147c565b6002020180546001810182556000918252602080832090820401805460ff808616601f9094166101000a93840293021916919091179055610a979084906110e6565b15610ac6576040517f4883f1286f79865b3c6bdba55835c3aa09a60485fb4de5f7ad0acaab6810518490600090a15b50505050565b6060600160ff831660048110610ae457610ae461147c565b60020201805460408051602080840282018101909252828152929190830182828015610b4d57602002820191906000526020600020906000905b825461010083900a900460ff16815260206001928301818104948501949093039092029101808411610b1e5790505b50505050509050919050565b610b616110ff565b610b6b6000611159565b565b600a80546040805160208084028201810190925282815260609390929091830182828015610bd857602002820191906000526020600020906000905b825461010083900a900460ff16815260206001928301818104948501949093039092029101808411610ba95790505b5050505050905090565b610bea61124f565b6040805160808101909152600160046000835b82821015610cc95760408051600284028601805460a060208202840181019094526080830181815292939192849290918491840182828015610c7c57602002820191906000526020600020906000905b825461010083900a900460ff16815260206001928301818104948501949093039092029101808411610c4d5790505b505050918352505060019182015460ff8082161515602080850191909152610100830482161515604085015262010000909204161515606090920191909152918352929092019101610bfd565b50505050905090565b610cda6110ff565b6001600160a01b038116610d445760405162461bcd60e51b815260206004820152602660248201527f4f776e61626c653a206e6577206f776e657220697320746865207a65726f206160448201526564647265737360d01b60648201526084015b60405180910390fd5b610d4d81611159565b50565b60095460408051600a805460a060208202840181019094526080830181815260019484928491840182828015610dc357602002820191906000526020600020906000905b825461010083900a900460ff16815260206001928301818104948501949093039092029101808411610d945790505b50505091835250506001919091015460ff808216151560208401526101008083048216151560408501526201000090920481161515606090930192909252600b90930154919282821692041684565b600080600083610e3b57600160ff861660048110610e3257610e3261147c565b60020201610e3e565b600a5b805480602002602001604051908101604052809291908181526020018280548015610ea657602002820191906000526020600020906000905b825461010083900a900460ff16815260206001928301818104948501949093039092029101808411610e775790505b505050505090506000815190506000805b8260ff16811015610f35576000848281518110610ed657610ed661147c565b602002602001015190508060ff16600114610f1857600a8160ff161015610f0657610f018187611547565b610f11565b610f1186600a611547565b9550610f24565b610f2183611528565b92505b50610f2e81611560565b9050610eb7565b5060005b8160ff16811015610fab5760156001610f558360ff8616611579565b610f5f9190611579565b610f6a87600b611547565b60ff16610f7791906114eb565b1115610f8d57610f8685611528565b9450610f9b565b610f98600b86611547565b94505b610fa481611560565b9050610f39565b50600b8460ff16118015610fc2575060008160ff16115b600160ff891660048110610fd857610fd861147c565b6002020160010160006101000a81548160ff021916908315150217905550839450505050505b92915050565b60008160ff168360ff1610611019578161101b565b825b9392505050565b600160ff8316600481106110385761103861147c565b6002020160010160029054906101000a900460ff161561105757600080fd5b60008160ff1660151461106f5760095460021b61107d565b6002600160080154901c6005025b6040519091506001600160a01b0385169082156108fc029083906000818181858888f193505050501580156110b6573d6000803e3d6000fd5b506040517f34ec5380860d4fd12cd95d4d2f001afc87d48bfc50847bec134b0c315c8e2d7790600090a150505050565b600060156110f48484610e12565b60ff16119392505050565b6000546001600160a01b03163314610b6b5760405162461bcd60e51b815260206004820181905260248201527f4f776e61626c653a2063616c6c6572206973206e6f7420746865206f776e65726044820152606401610d3b565b600080546001600160a01b038381166001600160a01b0319831681178455604051919092169283917f8be0079c531659141344cd1fd0a4f28419497f9722a3daafe3b4186f6b6457e09190a35050565b82805482825590600052602060002090601f0160209004810192821561123f5791602002820160005b8382111561121057835183826101000a81548160ff021916908360ff16021790555092602001926001016020816000010492830192600103026111d2565b801561123d5782816101000a81549060ff0219169055600101602081600001049283019260010302611210565b505b5061124b929150611296565b5090565b60405180608001604052806004905b6040805160808101825260608082526000602080840182905293830181905290820152825260001990920191018161125e5790505090565b5b8082111561124b5760008155600101611297565b803560ff811681146112bc57600080fd5b919050565b6000602082840312156112d357600080fd5b61101b826112ab565b600080604083850312156112ef57600080fd5b823580151581146112ff57600080fd5b915061130d602084016112ab565b90509250929050565b6020808252825182820181905260009190848201906040850190845b8181101561135157835160ff1683529284019291840191600101611332565b50909695505050505050565b8051608080845281519084018190526000916020919082019060a0860190845b8181101561139c57835160ff168352928401929184019160010161137d565b505082850151151583870152604085015115156040870152606085015192506113c9606087018415159052565b95945050505050565b602080825260009060a0830183820185845b600481101561141357601f1987850301835261140184835161135d565b935091840191908401906001016113e4565b50919695505050505050565b60006020828403121561143157600080fd5b81356001600160a01b038116811461101b57600080fd5b848152608060208201526000611461608083018661135d565b60ff9490941660408301525090151560609091015292915050565b634e487b7160e01b600052603260045260246000fd5b6000602082840312156114a457600080fd5b5051919050565b634e487b7160e01b600052601260045260246000fd5b6000826114d0576114d06114ab565b500690565b634e487b7160e01b600052601160045260246000fd5b80820180821115610ffe57610ffe6114d5565b60008261150d5761150d6114ab565b500490565b634e487b7160e01b600052604160045260246000fd5b600060ff821660ff810361153e5761153e6114d5565b60010192915050565b60ff8181168382160190811115610ffe57610ffe6114d5565b600060018201611572576115726114d5565b5060010190565b81810381811115610ffe57610ffe6114d556fea26469706673582212201d71d17278d23373c73a685a6dbb6d2ee621077e1e668aff87d91f8a1225601064736f6c63430008150033",
    "linkReferences": {}
  },
  "methodIdentifiers": {
    "dealer()": "9de2ee21",
    "gameData()": "fa24f743",
    "getBetAmount()": "fde41e29",
    "getCardsFromHand(uint8)": "5a20d60b",
    "getDealerCards()": "974ee4d8",
    "getHands()": "e8fa988d",
    "getInsurance()": "267a8da0",
    "getNextOpenHandSlot()": "5db060ee",
    "hit(bool,uint8)": "34e6a776",
    "owner()": "8da5cb5b",
    "player()": "48db5f89",
    "renounceOwnership()": "715018a6",
    "split(uint8)": "1ef44aed",
    "stand(uint8)": "0a2d343a",
    "transferOwnership(address)": "f2fde38b",
    "vault()": "fbfa77cf"
  },
  "id": 20
}