{
  "abi": [
    {
      "inputs": [
        {
          "internalType": "address",
          "name": "_vault",
          "type": "address"
        },
        {
          "internalType": "address",
          "name": "_dealer",
          "type": "address"
        }
      ],
      "stateMutability": "payable",
      "type": "constructor"
    },
    {
      "anonymous": false,
      "inputs": [
        {
          "indexed": false,
          "internalType": "uint8",
          "name": "",
          "type": "uint8"
        }
      ],
      "name": "Bust",
      "type": "event"
    },
    {
      "anonymous": false,
      "inputs": [
        {
          "indexed": false,
          "internalType": "uint8",
          "name": "",
          "type": "uint8"
        }
      ],
      "name": "Hit",
      "type": "event"
    },
    {
      "anonymous": false,
      "inputs": [
        {
          "indexed": true,
          "internalType": "address",
          "name": "previousOwner",
          "type": "address"
        },
        {
          "indexed": true,
          "internalType": "address",
          "name": "newOwner",
          "type": "address"
        }
      ],
      "name": "OwnershipTransferred",
      "type": "event"
    },
    {
      "anonymous": false,
      "inputs": [],
      "name": "Paid",
      "type": "event"
    },
    {
      "anonymous": false,
      "inputs": [],
      "name": "Split",
      "type": "event"
    },
    {
      "anonymous": false,
      "inputs": [],
      "name": "Win",
      "type": "event"
    },
    {
      "inputs": [],
      "name": "dealer",
      "outputs": [
        {
          "internalType": "contract Dealer",
          "name": "",
          "type": "address"
        }
      ],
      "stateMutability": "view",
      "type": "function"
    },
    {
      "inputs": [],
      "name": "gameData",
      "outputs": [
        {
          "internalType": "uint256",
          "name": "betAmount",
          "type": "uint256"
        },
        {
          "components": [
            {
              "internalType": "uint8[]",
              "name": "cards",
              "type": "uint8[]"
            },
            {
              "internalType": "bool",
              "name": "soft",
              "type": "bool"
            },
            {
              "internalType": "bool",
              "name": "firstTurn",
              "type": "bool"
            },
            {
              "internalType": "bool",
              "name": "finished",
              "type": "bool"
            }
          ],
          "internalType": "struct Blackjack.Hand",
          "name": "dealerHand",
          "type": "tuple"
        },
        {
          "internalType": "uint8",
          "name": "nextOpenHandSlot",
          "type": "uint8"
        },
        {
          "internalType": "bool",
          "name": "insurance",
          "type": "bool"
        }
      ],
      "stateMutability": "view",
      "type": "function"
    },
    {
      "inputs": [],
      "name": "getBetAmount",
      "outputs": [
        {
          "internalType": "uint256",
          "name": "",
          "type": "uint256"
        }
      ],
      "stateMutability": "view",
      "type": "function"
    },
    {
      "inputs": [
        {
          "internalType": "uint8",
          "name": "handNum",
          "type": "uint8"
        }
      ],
      "name": "getCardsFromHand",
      "outputs": [
        {
          "internalType": "uint8[]",
          "name": "",
          "type": "uint8[]"
        }
      ],
      "stateMutability": "view",
      "type": "function"
    },
    {
      "inputs": [],
      "name": "getDealerCards",
      "outputs": [
        {
          "internalType": "uint8[]",
          "name": "",
          "type": "uint8[]"
        }
      ],
      "stateMutability": "view",
      "type": "function"
    },
    {
      "inputs": [],
      "name": "getHands",
      "outputs": [
        {
          "components": [
            {
              "internalType": "uint8[]",
              "name": "cards",
              "type": "uint8[]"
            },
            {
              "internalType": "bool",
              "name": "soft",
              "type": "bool"
            },
            {
              "internalType": "bool",
              "name": "firstTurn",
              "type": "bool"
            },
            {
              "internalType": "bool",
              "name": "finished",
              "type": "bool"
            }
          ],
          "internalType": "struct Blackjack.Hand[4]",
          "name": "",
          "type": "tuple[4]"
        }
      ],
      "stateMutability": "view",
      "type": "function"
    },
    {
      "inputs": [],
      "name": "getInsurance",
      "outputs": [
        {
          "internalType": "bool",
          "name": "",
          "type": "bool"
        }
      ],
      "stateMutability": "view",
      "type": "function"
    },
    {
      "inputs": [],
      "name": "getNextOpenHandSlot",
      "outputs": [
        {
          "internalType": "uint8",
          "name": "",
          "type": "uint8"
        }
      ],
      "stateMutability": "view",
      "type": "function"
    },
    {
      "inputs": [
        {
          "internalType": "bool",
          "name": "_insurance",
          "type": "bool"
        },
        {
          "internalType": "uint8",
          "name": "handNum",
          "type": "uint8"
        }
      ],
      "name": "hit",
      "outputs": [
        {
          "internalType": "uint8",
          "name": "",
          "type": "uint8"
        }
      ],
      "stateMutability": "payable",
      "type": "function"
    },
    {
      "inputs": [],
      "name": "owner",
      "outputs": [
        {
          "internalType": "address",
          "name": "",
          "type": "address"
        }
      ],
      "stateMutability": "view",
      "type": "function"
    },
    {
      "inputs": [],
      "name": "player",
      "outputs": [
        {
          "internalType": "address",
          "name": "",
          "type": "address"
        }
      ],
      "stateMutability": "view",
      "type": "function"
    },
    {
      "inputs": [],
      "name": "renounceOwnership",
      "outputs": [],
      "stateMutability": "nonpayable",
      "type": "function"
    },
    {
      "inputs": [
        {
          "internalType": "uint8",
          "name": "_card",
          "type": "uint8"
        }
      ],
      "name": "setDealerCard",
      "outputs": [],
      "stateMutability": "nonpayable",
      "type": "function"
    },
    {
      "inputs": [
        {
          "internalType": "uint8",
          "name": "_card1",
          "type": "uint8"
        },
        {
          "internalType": "uint8",
          "name": "_card2",
          "type": "uint8"
        },
        {
          "internalType": "uint8",
          "name": "handNum",
          "type": "uint8"
        }
      ],
      "name": "setPlayerCards",
      "outputs": [],
      "stateMutability": "nonpayable",
      "type": "function"
    },
    {
      "inputs": [
        {
          "internalType": "uint8",
          "name": "handNum",
          "type": "uint8"
        }
      ],
      "name": "split",
      "outputs": [],
      "stateMutability": "payable",
      "type": "function"
    },
    {
      "inputs": [
        {
          "internalType": "uint8",
          "name": "handNum",
          "type": "uint8"
        }
      ],
      "name": "stand",
      "outputs": [],
      "stateMutability": "nonpayable",
      "type": "function"
    },
    {
      "inputs": [
        {
          "internalType": "address",
          "name": "newOwner",
          "type": "address"
        }
      ],
      "name": "transferOwnership",
      "outputs": [],
      "stateMutability": "nonpayable",
      "type": "function"
    },
    {
      "inputs": [],
      "name": "vault",
      "outputs": [
        {
          "internalType": "address",
          "name": "",
          "type": "address"
        }
      ],
      "stateMutability": "view",
      "type": "function"
    }
  ],
  "bytecode": {
    "object": "0x608060405260405162001dca38038062001dca83398101604081905262000026916200029a565b62000031336200022d565b60003411620000865760405162461bcd60e51b815260206004820152601d60248201527f4e65656420746f20706c61636520616e20696e697469616c2062657421000000604482015260640160405180910390fd5b600e80546001600160a01b038085166001600160a01b031992831617909255600d805492841692821683179055600f80549091163317905560408051635ec01e4d60e01b8152905160009291635ec01e4d916004808301926020929190829003018187875af1158015620000fe573d6000803e3d6000fd5b505050506040513d601f19601f82011682018060405250810190620001249190620002d2565b60018054808201825560208082047fb10e2d527612073b26eecdfd717e6a320cf44b4afac2b0732d9fcbe2b7fa0cf69081018054601f94851661010090810a60ff81810219909316600d808b068a0185169290920217909355600a80548089019091557fc65a7bb8d6351c1cf70c95a316cc6a92839c986682d98bc35f958f4883f9d2a886820401805460648b048690068a018516928916840a92830292850219169190911790558654808801885560008890529485049093018054612710909804929092068601811693909416820a928302929093021990941617905534600955600c80546002805461ff00191690941790935561ffff1990921617905550620002ec915050565b600080546001600160a01b038381166001600160a01b0319831681178455604051919092169283917f8be0079c531659141344cd1fd0a4f28419497f9722a3daafe3b4186f6b6457e09190a35050565b80516001600160a01b03811681146200029557600080fd5b919050565b60008060408385031215620002ae57600080fd5b620002b9836200027d565b9150620002c9602084016200027d565b90509250929050565b600060208284031215620002e557600080fd5b5051919050565b611ace80620002fc6000396000f3fe6080604052600436106101095760003560e01c80638da5cb5b11610095578063e8fa988d11610064578063e8fa988d146102ba578063f2fde38b146102dc578063fa24f743146102fc578063fbfa77cf14610321578063fde41e291461034157600080fd5b80638da5cb5b14610247578063974ee4d8146102655780639de2ee211461027a578063b047860a1461029a57600080fd5b806340e2e20c116100dc57806340e2e20c1461019557806348db5f89146101b55780635a20d60b146101ed5780635db060ee1461021a578063715018a61461023257600080fd5b80630a2d343a1461010e5780631ef44aed14610130578063267a8da01461014357806334e6a77614610170575b600080fd5b34801561011a57600080fd5b5061012e61012936600461172d565b61035f565b005b61012e61013e36600461172d565b6105b4565b34801561014f57600080fd5b50600c54610100900460ff1660405190151581526020015b60405180910390f35b61018361017e366004611748565b6109cb565b60405160ff9091168152602001610167565b3480156101a157600080fd5b5061012e6101b0366004611782565b610df7565b3480156101c157600080fd5b50600f546101d5906001600160a01b031681565b6040516001600160a01b039091168152602001610167565b3480156101f957600080fd5b5061020d61020836600461172d565b610ead565b60405161016791906117c5565b34801561022657600080fd5b50600c5460ff16610183565b34801561023e57600080fd5b5061012e610f3a565b34801561025357600080fd5b506000546001600160a01b03166101d5565b34801561027157600080fd5b5061020d610f4e565b34801561028657600080fd5b50600d546101d5906001600160a01b031681565b3480156102a657600080fd5b5061012e6102b536600461172d565b610fc3565b3480156102c657600080fd5b506102cf611006565b6040516101679190611881565b3480156102e857600080fd5b5061012e6102f73660046118ce565b6110f6565b34801561030857600080fd5b5061031161116f565b60405161016794939291906118f7565b34801561032d57600080fd5b50600e546101d5906001600160a01b031681565b34801561034d57600080fd5b50600954604051908152602001610167565b600f546001600160a01b031633146103925760405162461bcd60e51b81526004016103899061192b565b60405180910390fd5b80600160ff8216600481106103a9576103a9611962565b60020201546000036103cd5760405162461bcd60e51b815260040161038990611978565b600d5460408051635ec01e4d60e01b815290516000926001600160a01b031691635ec01e4d916004808301926020929190829003018187875af1158015610418573d6000803e3d6000fd5b505050506040513d601f19601f8201168201806040525081019061043c919061199e565b9050600061044b846000611231565b600a8054919250600091829061046357610463611962565b90600052602060002090602091828204019190069054906101000a900460ff1690505b610491601583611423565b60ff168160ff161161055c5760128160ff161015806104c157508060ff1660111480156104c15750600b5460ff16155b61055c5760006104e76104d5600d866119cd565b6104e09060016119f7565b600a611423565b90506104f4606485611a0a565b600a8054600181810183556000928352602082047fc65a7bb8d6351c1cf70c95a316cc6a92839c986682d98bc35f958f4883f9d2a801805460ff808816601f9095166101000a948502940219169290921790915591955061055491611231565b915050610486565b60158160ff16118061057357508060ff168260ff16115b156105ad57610583338684611441565b6040517f29822734f2619c764b25a111ff2328da08e02d6652fc891eb80227a6ec58774390600090a15b5050505050565b600f546001600160a01b031633146105de5760405162461bcd60e51b81526004016103899061192b565b80600160ff8216600481106105f5576105f5611962565b60020201546000036106195760405162461bcd60e51b815260040161038990611978565b6000600160ff84166004811061063157610631611962565b6002020180546040805160208084028201810190925282815292919083018282801561069a57602002820191906000526020600020906000905b825461010083900a900460ff1681526020600192830181810494850194909303909202910180841161066b5790505b50505050509050806001815181106106b4576106b4611962565b602002602001015160ff16816000815181106106d2576106d2611962565b602002602001015160ff16146106e757600080fd5b60095434146106f557600080fd5b600c54600460ff9091161061070957600080fd5b600d5460408051635ec01e4d60e01b815290516000926001600160a01b031691635ec01e4d916004808301926020929190829003018187875af1158015610754573d6000803e3d6000fd5b505050506040513d601f19601f82011682018060405250810190610778919061199e565b90506000610787600d836119cd565b6107929060016119f7565b905080600160ff8716600481106107ab576107ab611962565b60020201805460019081106107c2576107c2611962565b90600052602060002090602091828204019190066101000a81548160ff021916908360ff1602179055506000600267ffffffffffffffff81111561080857610808611a1e565b604051908082528060200260200182016040528015610831578160200160208202803683370190505b5090506000600d610843606486611a0a565b61084d91906119cd565b6108589060016119f7565b90508460018151811061086d5761086d611962565b60200260200101518260008151811061088857610888611962565b602002602001019060ff16908160ff168152505080826001815181106108b0576108b0611962565b60ff928316602091820292909201810191909152604080516080810182528581526000928101839052600191810182905260608101839052600c8054919492939190921691906108ff83611a34565b91906101000a81548160ff021916908360ff16021790555060ff166004811061092a5761092a611962565b60020201600082015181600001908051906020019061094a929190611615565b506020820151600190910180546040808501516060909501511515620100000262ff0000199515156101000261ff00199515159590951661ffff1990931692909217939093179390931692909217909155517f55d842d7b8c6edb757dd47be55f527a7dec7b2070bff29e947e6d22a65a01fd690600090a150505050505050565b600f546000906001600160a01b031633146109f85760405162461bcd60e51b81526004016103899061192b565b81600160ff821660048110610a0f57610a0f611962565b6002020154600003610a335760405162461bcd60e51b815260040161038990611978565b8315610b0857600160ff841660048110610a4f57610a4f611962565b6002020160010160019054906101000a900460ff168015610a71575060095434145b8015610ab25750600a8054600090610a8b57610a8b611962565b90600052602060002090602091828204019190069054906101000a900460ff1660ff166001145b8015610ae65750600160ff841660048110610acf57610acf611962565b6002020160010160029054906101000a900460ff16155b610aef57600080fd5b600c805461ff0019166101001790556009805460011b90555b600d805460408051635ec01e4d60e01b81529051600093926001600160a01b031691635ec01e4d916004808301926020929190829003018188875af1158015610b55573d6000803e3d6000fd5b505050506040513d601f19601f82011682018060405250810190610b79919061199e565b610b8391906119cd565b610b8e906001611a53565b9050600160ff851660048110610ba657610ba6611962565b6002020180546001810182556000918252602080832090820401805460ff808616601f9094166101000a93840293021916919091179055610be8908590611552565b15610d09577f7ed0b9d88fc0672a79b9f48e433842d27015f2e5ca611abe22218ed0737ac84e600160ff861660048110610c2457610c24611962565b6002020180546001908110610c3b57610c3b611962565b90600052602060002090602091828204019190069054906101000a900460ff1660016000018660ff1660048110610c7457610c74611962565b600202018054600090610c8957610c89611962565b90600052602060002090602091828204019190069054906101000a900460ff1683610cb49190611a53565b610cbe9190611a53565b60405160ff909116815260200160405180910390a160018060ff861660048110610cea57610cea611962565b6002020160010160026101000a81548160ff0219169083151502179055505b7f76f79ba55614c6fd9a839698f6674fd0a80c3988d6594633c95fdd63814f676e600160ff861660048110610d4057610d40611962565b6002020180546001908110610d5757610d57611962565b90600052602060002090602091828204019190069054906101000a900460ff1660016000018660ff1660048110610d9057610d90611962565b600202018054600090610da557610da5611962565b90600052602060002090602091828204019190069054906101000a900460ff1683610dd09190611a53565b610dda9190611a53565b60405160ff909116815260200160405180910390a1949350505050565b82600160ff831660048110610e0e57610e0e611962565b600202018054600090610e2357610e23611962565b90600052602060002090602091828204019190066101000a81548160ff021916908360ff1602179055508160016000018260ff1660048110610e6757610e67611962565b6002020180546001908110610e7e57610e7e611962565b90600052602060002090602091828204019190066101000a81548160ff021916908360ff160217905550505050565b6060600160ff831660048110610ec557610ec5611962565b60020201805460408051602080840282018101909252828152929190830182828015610f2e57602002820191906000526020600020906000905b825461010083900a900460ff16815260206001928301818104948501949093039092029101808411610eff5790505b50505050509050919050565b610f4261156b565b610f4c60006115c5565b565b600a80546040805160208084028201810190925282815260609390929091830182828015610fb957602002820191906000526020600020906000905b825461010083900a900460ff16815260206001928301818104948501949093039092029101808411610f8a5790505b5050505050905090565b600a8054829190600090610fd957610fd9611962565b90600052602060002090602091828204019190066101000a81548160ff021916908360ff16021790555050565b61100e6116bb565b6040805160808101909152600160046000835b828210156110ed5760408051600284028601805460a0602082028401810190945260808301818152929391928492909184918401828280156110a057602002820191906000526020600020906000905b825461010083900a900460ff168152602060019283018181049485019490930390920291018084116110715790505b505050918352505060019182015460ff8082161515602080850191909152610100830482161515604085015262010000909204161515606090920191909152918352929092019101611021565b50505050905090565b6110fe61156b565b6001600160a01b0381166111635760405162461bcd60e51b815260206004820152602660248201527f4f776e61626c653a206e6577206f776e657220697320746865207a65726f206160448201526564647265737360d01b6064820152608401610389565b61116c816115c5565b50565b60095460408051600a805460a0602082028401810190945260808301818152600194849284918401828280156111e257602002820191906000526020600020906000905b825461010083900a900460ff168152602060019283018181049485019490930390920291018084116111b35790505b50505091835250506001919091015460ff808216151560208401526101008083048216151560408501526201000090920481161515606090930192909252600b90930154919282821692041684565b60008060008361125a57600160ff86166004811061125157611251611962565b6002020161125d565b600a5b8054806020026020016040519081016040528092919081815260200182805480156112c557602002820191906000526020600020906000905b825461010083900a900460ff168152602060019283018181049485019490930390920291018084116112965790505b505050505090506000815190506000805b8260ff168110156113545760008482815181106112f5576112f5611962565b602002602001015190508060ff1660011461133757600a8160ff161015611325576113208187611a53565b611330565b61133086600a611a53565b9550611343565b61134083611a34565b92505b5061134d81611a6c565b90506112d6565b5060005b8160ff168110156113ca57601560016113748360ff8616611a85565b61137e9190611a85565b61138987600b611a53565b60ff1661139691906119f7565b11156113ac576113a585611a34565b94506113ba565b6113b7600b86611a53565b94505b6113c381611a6c565b9050611358565b50600b8460ff161180156113e1575060008160ff16115b600160ff8916600481106113f7576113f7611962565b6002020160010160006101000a81548160ff021916908315150217905550839450505050505b92915050565b60008160ff168360ff1610611438578161143a565b825b9392505050565b600160ff83166004811061145757611457611962565b6002020160010160029054906101000a900460ff161561147657600080fd5b60158160ff16116115105760008160ff166015146114995760095460021b6114a7565b6002600160080154901c6005025b6040519091506001600160a01b0385169082156108fc029083906000818181858888f193505050501580156114e0573d6000803e3d6000fd5b506040517f34ec5380860d4fd12cd95d4d2f001afc87d48bfc50847bec134b0c315c8e2d7790600090a150505050565b600e546009546040516001600160a01b039092169181156108fc0291906000818181858888f1935050505015801561154c573d6000803e3d6000fd5b50505050565b600060156115608484611231565b60ff16119392505050565b6000546001600160a01b03163314610f4c5760405162461bcd60e51b815260206004820181905260248201527f4f776e61626c653a2063616c6c6572206973206e6f7420746865206f776e65726044820152606401610389565b600080546001600160a01b038381166001600160a01b0319831681178455604051919092169283917f8be0079c531659141344cd1fd0a4f28419497f9722a3daafe3b4186f6b6457e09190a35050565b82805482825590600052602060002090601f016020900481019282156116ab5791602002820160005b8382111561167c57835183826101000a81548160ff021916908360ff160217905550926020019260010160208160000104928301926001030261163e565b80156116a95782816101000a81549060ff021916905560010160208160000104928301926001030261167c565b505b506116b7929150611702565b5090565b60405180608001604052806004905b604080516080810182526060808252600060208084018290529383018190529082015282526000199092019101816116ca5790505090565b5b808211156116b75760008155600101611703565b803560ff8116811461172857600080fd5b919050565b60006020828403121561173f57600080fd5b61143a82611717565b6000806040838503121561175b57600080fd5b8235801515811461176b57600080fd5b915061177960208401611717565b90509250929050565b60008060006060848603121561179757600080fd5b6117a084611717565b92506117ae60208501611717565b91506117bc60408501611717565b90509250925092565b6020808252825182820181905260009190848201906040850190845b8181101561180057835160ff16835292840192918401916001016117e1565b50909695505050505050565b8051608080845281519084018190526000916020919082019060a0860190845b8181101561184b57835160ff168352928401929184019160010161182c565b50508285015115158387015260408501511515604087015260608501519250611878606087018415159052565b95945050505050565b602080825260009060a0830183820185845b60048110156118c257601f198785030183526118b084835161180c565b93509184019190840190600101611893565b50919695505050505050565b6000602082840312156118e057600080fd5b81356001600160a01b038116811461143a57600080fd5b848152608060208201526000611910608083018661180c565b60ff9490941660408301525090151560609091015292915050565b6020808252601f908201527f4d75737420626520706c6179657220746f2063616c6c2066756e6374696f6e00604082015260600190565b634e487b7160e01b600052603260045260246000fd5b6020808252600c908201526b12185b99081a5b9d985b1a5960a21b604082015260600190565b6000602082840312156119b057600080fd5b5051919050565b634e487b7160e01b600052601260045260246000fd5b6000826119dc576119dc6119b7565b500690565b634e487b7160e01b600052601160045260246000fd5b8082018082111561141d5761141d6119e1565b600082611a1957611a196119b7565b500490565b634e487b7160e01b600052604160045260246000fd5b600060ff821660ff8103611a4a57611a4a6119e1565b60010192915050565b60ff818116838216019081111561141d5761141d6119e1565b600060018201611a7e57611a7e6119e1565b5060010190565b8181038181111561141d5761141d6119e156fea264697066735822122015d1da5cb8f3660f9c82a4a65d43b76cb4c72b7cad3f572f5ec703274788e3ba64736f6c63430008150033",
    "linkReferences": {}
  },
  "methodIdentifiers": {
    "dealer()": "9de2ee21",
    "gameData()": "fa24f743",
    "getBetAmount()": "fde41e29",
    "getCardsFromHand(uint8)": "5a20d60b",
    "getDealerCards()": "974ee4d8",
    "getHands()": "e8fa988d",
    "getInsurance()": "267a8da0",
    "getNextOpenHandSlot()": "5db060ee",
    "hit(bool,uint8)": "34e6a776",
    "owner()": "8da5cb5b",
    "player()": "48db5f89",
    "renounceOwnership()": "715018a6",
    "setDealerCard(uint8)": "b047860a",
    "setPlayerCards(uint8,uint8,uint8)": "40e2e20c",
    "split(uint8)": "1ef44aed",
    "stand(uint8)": "0a2d343a",
    "transferOwnership(address)": "f2fde38b",
    "vault()": "fbfa77cf"
  },
  "id": 20
}