{
  "abi": [
    {
      "inputs": [
        {
          "internalType": "address payable",
          "name": "_vault",
          "type": "address"
        },
        {
          "internalType": "address",
          "name": "_dealer",
          "type": "address"
        }
      ],
      "stateMutability": "payable",
      "type": "constructor"
    },
    {
      "anonymous": false,
      "inputs": [
        {
          "indexed": false,
          "internalType": "uint8",
          "name": "",
          "type": "uint8"
        },
        {
          "indexed": false,
          "internalType": "uint8",
          "name": "",
          "type": "uint8"
        }
      ],
      "name": "Bust",
      "type": "event"
    },
    {
      "anonymous": false,
      "inputs": [
        {
          "indexed": false,
          "internalType": "uint8",
          "name": "",
          "type": "uint8"
        }
      ],
      "name": "Hit",
      "type": "event"
    },
    {
      "anonymous": false,
      "inputs": [
        {
          "indexed": false,
          "internalType": "uint8",
          "name": "",
          "type": "uint8"
        },
        {
          "indexed": false,
          "internalType": "uint8",
          "name": "",
          "type": "uint8"
        }
      ],
      "name": "Loss",
      "type": "event"
    },
    {
      "anonymous": false,
      "inputs": [
        {
          "indexed": true,
          "internalType": "address",
          "name": "previousOwner",
          "type": "address"
        },
        {
          "indexed": true,
          "internalType": "address",
          "name": "newOwner",
          "type": "address"
        }
      ],
      "name": "OwnershipTransferred",
      "type": "event"
    },
    {
      "anonymous": false,
      "inputs": [
        {
          "indexed": false,
          "internalType": "uint256",
          "name": "",
          "type": "uint256"
        }
      ],
      "name": "Paid",
      "type": "event"
    },
    {
      "anonymous": false,
      "inputs": [
        {
          "indexed": false,
          "internalType": "uint8",
          "name": "",
          "type": "uint8"
        }
      ],
      "name": "PlayerBlackjack",
      "type": "event"
    },
    {
      "anonymous": false,
      "inputs": [
        {
          "indexed": false,
          "internalType": "uint8",
          "name": "",
          "type": "uint8"
        },
        {
          "indexed": false,
          "internalType": "uint8",
          "name": "",
          "type": "uint8"
        }
      ],
      "name": "Push",
      "type": "event"
    },
    {
      "anonymous": false,
      "inputs": [
        {
          "indexed": false,
          "internalType": "uint8",
          "name": "",
          "type": "uint8"
        }
      ],
      "name": "Split",
      "type": "event"
    },
    {
      "anonymous": false,
      "inputs": [
        {
          "indexed": false,
          "internalType": "uint8",
          "name": "",
          "type": "uint8"
        },
        {
          "indexed": false,
          "internalType": "uint8",
          "name": "",
          "type": "uint8"
        }
      ],
      "name": "Win",
      "type": "event"
    },
    {
      "inputs": [
        {
          "internalType": "uint8[]",
          "name": "_cards",
          "type": "uint8[]"
        },
        {
          "internalType": "uint8",
          "name": "handNum",
          "type": "uint8"
        }
      ],
      "name": "addPlayerCards",
      "outputs": [],
      "stateMutability": "nonpayable",
      "type": "function"
    },
    {
      "inputs": [],
      "name": "buyInsurance",
      "outputs": [],
      "stateMutability": "payable",
      "type": "function"
    },
    {
      "inputs": [],
      "name": "dealer",
      "outputs": [
        {
          "internalType": "contract Dealer",
          "name": "",
          "type": "address"
        }
      ],
      "stateMutability": "view",
      "type": "function"
    },
    {
      "inputs": [
        {
          "internalType": "uint8",
          "name": "handNum",
          "type": "uint8"
        }
      ],
      "name": "doubleDown",
      "outputs": [],
      "stateMutability": "payable",
      "type": "function"
    },
    {
      "inputs": [],
      "name": "gameData",
      "outputs": [
        {
          "internalType": "uint256",
          "name": "betAmount",
          "type": "uint256"
        },
        {
          "components": [
            {
              "internalType": "uint256",
              "name": "doubleDownAmount",
              "type": "uint256"
            },
            {
              "internalType": "uint8[]",
              "name": "cards",
              "type": "uint8[]"
            },
            {
              "internalType": "bool",
              "name": "soft",
              "type": "bool"
            },
            {
              "internalType": "bool",
              "name": "firstTurn",
              "type": "bool"
            },
            {
              "internalType": "bool",
              "name": "splitAces",
              "type": "bool"
            },
            {
              "internalType": "bool",
              "name": "busted",
              "type": "bool"
            },
            {
              "internalType": "bool",
              "name": "finished",
              "type": "bool"
            }
          ],
          "internalType": "struct Blackjack.Hand",
          "name": "dealerHand",
          "type": "tuple"
        },
        {
          "internalType": "uint8",
          "name": "nextOpenHandSlot",
          "type": "uint8"
        },
        {
          "internalType": "bool",
          "name": "insurance",
          "type": "bool"
        }
      ],
      "stateMutability": "view",
      "type": "function"
    },
    {
      "inputs": [],
      "name": "getBetAmount",
      "outputs": [
        {
          "internalType": "uint256",
          "name": "",
          "type": "uint256"
        }
      ],
      "stateMutability": "view",
      "type": "function"
    },
    {
      "inputs": [
        {
          "internalType": "uint8",
          "name": "handNum",
          "type": "uint8"
        }
      ],
      "name": "getCardsFromHand",
      "outputs": [
        {
          "internalType": "uint8[]",
          "name": "",
          "type": "uint8[]"
        }
      ],
      "stateMutability": "view",
      "type": "function"
    },
    {
      "inputs": [],
      "name": "getDealerCards",
      "outputs": [
        {
          "internalType": "uint8[]",
          "name": "",
          "type": "uint8[]"
        }
      ],
      "stateMutability": "view",
      "type": "function"
    },
    {
      "inputs": [
        {
          "internalType": "uint8",
          "name": "handNum",
          "type": "uint8"
        },
        {
          "internalType": "bool",
          "name": "_dealer",
          "type": "bool"
        }
      ],
      "name": "getHandSum",
      "outputs": [
        {
          "internalType": "uint8",
          "name": "",
          "type": "uint8"
        }
      ],
      "stateMutability": "nonpayable",
      "type": "function"
    },
    {
      "inputs": [],
      "name": "getHands",
      "outputs": [
        {
          "components": [
            {
              "internalType": "uint256",
              "name": "doubleDownAmount",
              "type": "uint256"
            },
            {
              "internalType": "uint8[]",
              "name": "cards",
              "type": "uint8[]"
            },
            {
              "internalType": "bool",
              "name": "soft",
              "type": "bool"
            },
            {
              "internalType": "bool",
              "name": "firstTurn",
              "type": "bool"
            },
            {
              "internalType": "bool",
              "name": "splitAces",
              "type": "bool"
            },
            {
              "internalType": "bool",
              "name": "busted",
              "type": "bool"
            },
            {
              "internalType": "bool",
              "name": "finished",
              "type": "bool"
            }
          ],
          "internalType": "struct Blackjack.Hand[4]",
          "name": "",
          "type": "tuple[4]"
        }
      ],
      "stateMutability": "view",
      "type": "function"
    },
    {
      "inputs": [],
      "name": "getInsurance",
      "outputs": [
        {
          "internalType": "bool",
          "name": "",
          "type": "bool"
        }
      ],
      "stateMutability": "view",
      "type": "function"
    },
    {
      "inputs": [],
      "name": "getNextOpenHandSlot",
      "outputs": [
        {
          "internalType": "uint8",
          "name": "",
          "type": "uint8"
        }
      ],
      "stateMutability": "view",
      "type": "function"
    },
    {
      "inputs": [
        {
          "internalType": "uint8",
          "name": "handNum",
          "type": "uint8"
        }
      ],
      "name": "hit",
      "outputs": [
        {
          "internalType": "uint8",
          "name": "",
          "type": "uint8"
        }
      ],
      "stateMutability": "payable",
      "type": "function"
    },
    {
      "inputs": [
        {
          "internalType": "bool",
          "name": "_h0",
          "type": "bool"
        },
        {
          "internalType": "bool",
          "name": "_h1",
          "type": "bool"
        },
        {
          "internalType": "bool",
          "name": "_h2",
          "type": "bool"
        },
        {
          "internalType": "bool",
          "name": "_h3",
          "type": "bool"
        }
      ],
      "name": "markFinished",
      "outputs": [],
      "stateMutability": "nonpayable",
      "type": "function"
    },
    {
      "inputs": [],
      "name": "owner",
      "outputs": [
        {
          "internalType": "address",
          "name": "",
          "type": "address"
        }
      ],
      "stateMutability": "view",
      "type": "function"
    },
    {
      "inputs": [],
      "name": "paidOut",
      "outputs": [
        {
          "internalType": "bool",
          "name": "",
          "type": "bool"
        }
      ],
      "stateMutability": "view",
      "type": "function"
    },
    {
      "inputs": [],
      "name": "player",
      "outputs": [
        {
          "internalType": "address",
          "name": "",
          "type": "address"
        }
      ],
      "stateMutability": "view",
      "type": "function"
    },
    {
      "inputs": [],
      "name": "renounceOwnership",
      "outputs": [],
      "stateMutability": "nonpayable",
      "type": "function"
    },
    {
      "inputs": [
        {
          "internalType": "uint8",
          "name": "_card1",
          "type": "uint8"
        },
        {
          "internalType": "uint8",
          "name": "_card2",
          "type": "uint8"
        }
      ],
      "name": "setDealerCards",
      "outputs": [],
      "stateMutability": "nonpayable",
      "type": "function"
    },
    {
      "inputs": [
        {
          "internalType": "uint8",
          "name": "_card1",
          "type": "uint8"
        },
        {
          "internalType": "uint8",
          "name": "_card2",
          "type": "uint8"
        },
        {
          "internalType": "uint8",
          "name": "handNum",
          "type": "uint8"
        }
      ],
      "name": "setPlayerCards",
      "outputs": [],
      "stateMutability": "nonpayable",
      "type": "function"
    },
    {
      "inputs": [
        {
          "internalType": "uint8",
          "name": "handNum",
          "type": "uint8"
        }
      ],
      "name": "split",
      "outputs": [],
      "stateMutability": "payable",
      "type": "function"
    },
    {
      "inputs": [],
      "name": "stand",
      "outputs": [],
      "stateMutability": "nonpayable",
      "type": "function"
    },
    {
      "inputs": [
        {
          "internalType": "address",
          "name": "newOwner",
          "type": "address"
        }
      ],
      "name": "transferOwnership",
      "outputs": [],
      "stateMutability": "nonpayable",
      "type": "function"
    },
    {
      "inputs": [],
      "name": "vault",
      "outputs": [
        {
          "internalType": "contract Vault",
          "name": "",
          "type": "address"
        }
      ],
      "stateMutability": "view",
      "type": "function"
    }
  ],
  "bytecode": {
    "object": "0x608060405260405162003947380380620039478339810160408190526200002691620002a7565b62000031336200023e565b60003411620000865760405162461bcd60e51b815260206004820152601d60248201527f4e65656420746f20706c61636520616e20696e697469616c2062657421000000604482015260640160405180910390fd5b601380546001600160a01b038085166001600160a01b0319928316179092556012805492841692821683179055601480549091163317905560408051635ec01e4d60e01b8152905160009291635ec01e4d916004808301926020929190829003018187875af1158015620000fe573d6000803e3d6000fd5b505050506040513d601f19601f82011682018060405250810190620001249190620002e6565b60028054600180820183557f405787fa12a823e0f2b7631cc41b3ba8828b3321ca811111fa75cd3aa3bb5ace602080840482018054601f95861661010090810a60ff81810219909316600d808c06890185169290920217909355600f80548088019091557f8d1108e10bcb7c27dddfc02ed9d693a074039d026cf4ea4240b40f7d581ac80285820401805460648c0486900689018516928a16840a92830292850219169190911790558754808701895560009890985292870490930180546127109098048290068501841696909516820a95860295909202199095169390931790915534909155601180546003805461ff00191690941790935561ffff1990921617905550506014805460ff60a01b191690555062000300565b600080546001600160a01b038381166001600160a01b0319831681178455604051919092169283917f8be0079c531659141344cd1fd0a4f28419497f9722a3daafe3b4186f6b6457e09190a35050565b6001600160a01b0381168114620002a457600080fd5b50565b60008060408385031215620002bb57600080fd5b8251620002c8816200028e565b6020840151909250620002db816200028e565b809150509250929050565b600060208284031215620002f957600080fd5b5051919050565b61363780620003106000396000f3fe60806040526004361061014b5760003560e01c80637b2f76a7116100b6578063e8fa988d1161006f578063e8fa988d146103c4578063f2fde38b146103e6578063fa24f74314610406578063fbfa77cf1461042b578063fde41e291461044b578063ff837d751461046957600080fd5b80637b2f76a7146102cf5780638da5cb5b146102ef578063974ee4d81461030d5780639de2ee2114610322578063b2c836d314610342578063c2897b10146103af57600080fd5b80635a20d60b116101085780635a20d60b1461022b5780635c76ca2d146102585780635db060ee14610279578063715018a61461029f57806371618c79146102b4578063720d984e146102bc57600080fd5b80631707ea98146101505780631d6c4e3b146101725780631ef44aed14610192578063267a8da0146101a557806340e2e20c146101d357806348db5f89146101f3575b600080fd5b34801561015c57600080fd5b5061017061016b366004613164565b61047c565b005b34801561017e57600080fd5b5061017061018d366004613197565b610510565b6101706101a036600461321b565b6105ac565b3480156101b157600080fd5b50601154610100900460ff165b60405190151581526020015b60405180910390f35b3480156101df57600080fd5b506101706101ee36600461323d565b610c8d565b3480156101ff57600080fd5b50601454610213906001600160a01b031681565b6040516001600160a01b0390911681526020016101ca565b34801561023757600080fd5b5061024b61024636600461321b565b610d49565b6040516101ca9190613277565b34801561026457600080fd5b506014546101be90600160a01b900460ff1681565b34801561028557600080fd5b5060115460ff165b60405160ff90911681526020016101ca565b3480156102ab57600080fd5b50610170610ddc565b610170610df0565b6101706102ca36600461321b565b61107f565b3480156102db57600080fd5b5061028d6102ea3660046132ce565b61138e565b3480156102fb57600080fd5b506000546001600160a01b0316610213565b34801561031957600080fd5b5061024b611783565b34801561032e57600080fd5b50601254610213906001600160a01b031681565b34801561034e57600080fd5b5061017061035d3660046132f8565b6003805464ff0000000019908116600160201b96151587021790915560068054821694151586029490941790935560098054921515850292841692909217909155600c80549115159093029116179055565b3480156103bb57600080fd5b506101706117f8565b3480156103d057600080fd5b506103d9611e1a565b6040516101ca9190613410565b3480156103f257600080fd5b5061017061040136600461345d565b611f3e565b34801561041257600080fd5b5061041b611fb7565b6040516101ca9493929190613486565b34801561043757600080fd5b50601354610213906001600160a01b031681565b34801561045757600080fd5b50600d546040519081526020016101ca565b61028d61047736600461321b565b6120a5565b600f8054839190600090610492576104926134ba565b6000918252602080832081830401805460ff958616601f94851661010090810a9182029188021990921617909155600f805460018101825594529083047f8d1108e10bcb7c27dddfc02ed9d693a074039d026cf4ea4240b40f7d581ac80201805495851693909216900a918202919092021990921691909117905550565b60005b828110156105a657600160ff831660048110610531576105316134ba565b6003020160010184848381811061054a5761054a6134ba565b905060200201602081019061055f919061321b565b81546001810183556000928352602092839020928104909201805460ff928316601f9094166101000a938402929093021990921617905561059f816134e6565b9050610513565b50505050565b6014546001600160a01b031633146105df5760405162461bcd60e51b81526004016105d6906134ff565b60405180910390fd5b806000600160ff8316600481106105f8576105f86134ba565b600302016040518060e0016040529081600082015481526020016001820180548060200260200160405190810160405280929190818152602001828054801561067e57602002820191906000526020600020906000905b825461010083900a900460ff1681526020600192830181810494850194909303909202910180841161064f5790505b50505091835250506002919091015460ff8082161515602080850191909152610100830482161515604085015262010000830482161515606085015263010000008304821615156080850152600160201b90920416151560a09092019190915281015151909150158015906106f557508060c00151155b6107305760405162461bcd60e51b815260206004820152600c60248201526b12185b99081a5b9d985b1a5960a21b60448201526064016105d6565b6000600160ff851660048110610748576107486134ba565b600302016001018054806020026020016040519081016040528092919081815260200182805480156107b757602002820191906000526020600020906000905b825461010083900a900460ff168152602060019283018181049485019490930390920291018084116107885790505b50505050509050806001815181106107d1576107d16134ba565b602002602001015160ff16816000815181106107ef576107ef6134ba565b602002602001015160ff161461083d5760405162461bcd60e51b8152602060048201526013602482015272139959590818481c185a5c881a5b881a185b99606a1b60448201526064016105d6565b600d54341461088e5760405162461bcd60e51b815260206004820152601a60248201527f4e65656420746f206d61746368206f726967696e616c2062657400000000000060448201526064016105d6565b601154600460ff909116106108e55760405162461bcd60e51b815260206004820152601c60248201527f43616e206f6e6c792073706c697420746f20666f75722068616e64730000000060448201526064016105d6565b60125460408051635ec01e4d60e01b815290516000926001600160a01b031691635ec01e4d916004808301926020929190829003018187875af1158015610930573d6000803e3d6000fd5b505050506040513d601f19601f820116820180604052508101906109549190613536565b90506000610963600d83613565565b61096e906001613579565b905080600160ff881660048110610987576109876134ba565b600302016001016001815481106109a0576109a06134ba565b90600052602060002090602091828204019190066101000a81548160ff021916908360ff1602179055506000836000815181106109df576109df6134ba565b602002602001015160ff1660011490508060016000018860ff1660048110610a0957610a096134ba565b6003020160020160026101000a81548160ff0219169083151502179055506000600267ffffffffffffffff811115610a4357610a4361358c565b604051908082528060200260200182016040528015610a6c578160200160208202803683370190505b5090506000600d610a7e6064876135a2565b610a889190613565565b610a93906001613579565b905085600181518110610aa857610aa86134ba565b602002602001015182600081518110610ac357610ac36134ba565b602002602001019060ff16908160ff16815250508082600181518110610aeb57610aeb6134ba565b60ff9283166020918202929092018101919091526040805160e0810182526000808252928101869052908101829052600160608201819052861515608083015260a0820183905260c0820183905260118054929491939290911691610b4f836135b6565b91906101000a81548160ff021916908360ff16021790555060ff1660048110610b7a57610b7a6134ba565b60030201600082015181600001556020820151816001019080519060200190610ba4929190613038565b506040820151600290910180546060840151608085015160a086015160c0909601511515600160201b0264ff000000001996151563010000000263ff0000001992151562010000029290921663ffff0000199315156101000261ff00199715159790971661ffff1990951694909417959095179190911691909117179290921617905585517f738fbb20ac06733db9d189b456de5d77d03f3f832ea1da86c2a1569fbfd711c6908790600090610c5c57610c5c6134ba565b6020026020010151604051610c7a919060ff91909116815260200190565b60405180910390a1505050505050505050565b82600160ff831660048110610ca457610ca46134ba565b60030201600101600081548110610cbd57610cbd6134ba565b90600052602060002090602091828204019190066101000a81548160ff021916908360ff1602179055508160016000018260ff1660048110610d0157610d016134ba565b60030201600101600181548110610d1a57610d1a6134ba565b90600052602060002090602091828204019190066101000a81548160ff021916908360ff160217905550505050565b6060600160ff831660048110610d6157610d616134ba565b60030201600101805480602002602001604051908101604052809291908181526020018280548015610dd057602002820191906000526020600020906000905b825461010083900a900460ff16815260206001928301818104948501949093039092029101808411610da15790505b50505050509050919050565b610de4612724565b610dee600061277e565b565b60408051610120810190915260009060018160a0810182600486835b82821015610f0c578382600302016040518060e00160405290816000820154815260200160018201805480602002602001604051908101604052809291908181526020018280548015610e9c57602002820191906000526020600020906000905b825461010083900a900460ff16815260206001928301818104948501949093039092029101808411610e6d5790505b50505091835250506002919091015460ff8082161515602080850191909152610100830482161515604085015262010000830482161515606085015263010000008304821615156080850152600160201b90920416151560a0909201919091529082526001929092019101610e0c565b505050508152602001600c8201548152602001600d82016040518060e00160405290816000820154815260200160018201805480602002602001604051908101604052809291908181526020018280548015610fa557602002820191906000526020600020906000905b825461010083900a900460ff16815260206001928301818104948501949093039092029101808411610f765790505b50505091835250506002919091015460ff80821615156020808501919091526101008084048316151560408087019190915262010000850484161515606087015263010000008504841615156080870152600160201b9094048316151560a090950194909452938552601095909501548086168585015291909104909316151591830191909152908201510151805191925090600090611047576110476134ba565b602002602001015160ff1660011480156110645750806020015134145b61106d57600080fd5b506011805461ff001916610100179055565b60408051610120810190915260009060018160a0810182600486835b8282101561119b578382600302016040518060e0016040529081600082015481526020016001820180548060200260200160405190810160405280929190818152602001828054801561112b57602002820191906000526020600020906000905b825461010083900a900460ff168152602060019283018181049485019490930390920291018084116110fc5790505b50505091835250506002919091015460ff8082161515602080850191909152610100830482161515604085015262010000830482161515606085015263010000008304821615156080850152600160201b90920416151560a090920191909152908252600192909201910161109b565b505050508152602001600c8201548152602001600d82016040518060e0016040529081600082015481526020016001820180548060200260200160405190810160405280929190818152602001828054801561123457602002820191906000526020600020906000905b825461010083900a900460ff168152602060019283018181049485019490930390920291018084116112055790505b50505091835250506002919091015460ff80821615156020808501919091526101008084048316151560408087019190915262010000850484161515606087015263010000008504841615156080870152600160201b9094048316151560a090950194909452938552601095909501548086169385019390935291049092161515910152905060006112c6838261138e565b825190915060ff8416600481106112df576112df6134ba565b602002015160600151801561131f575060208201518251349060ff86166004811061130c5761130c6134ba565b60200201515161131c9190613579565b11155b801561132f5750600b8160ff1611155b801561133f575060098160ff1610155b801561134b5750600034115b61135457600080fd5b34600160ff85166004811061136b5761136b6134ba565b60030201805460009061137f908490613579565b909155506105a69050836120a5565b604080516101208101909152600090819060018160a0810182600486835b828210156114ac578382600302016040518060e0016040529081600082015481526020016001820180548060200260200160405190810160405280929190818152602001828054801561143c57602002820191906000526020600020906000905b825461010083900a900460ff1681526020600192830181810494850194909303909202910180841161140d5790505b50505091835250506002919091015460ff8082161515602080850191909152610100830482161515604085015262010000830482161515606085015263010000008304821615156080850152600160201b90920416151560a09092019190915290825260019290920191016113ac565b505050508152602001600c8201548152602001600d82016040518060e0016040529081600082015481526020016001820180548060200260200160405190810160405280929190818152602001828054801561154557602002820191906000526020600020906000905b825461010083900a900460ff168152602060019283018181049485019490930390920291018084116115165790505b50505091835250506002919091015460ff80821615156020808501919091526101008084048316151560408087019190915262010000850484161515606087015263010000008504841615156080870152600160201b9094048316151560a0909501949094529385526010959095015480861693850193909352910490921615159101529050600080846115f757825160ff8716600481106115e9576115e96134ba565b602002015160200151611601565b8260400151602001515b80519091506000805b8260ff16811015611688576000848281518110611629576116296134ba565b602002602001015190508060ff1660011461166b57600a8160ff1610156116595761165481876135d5565b611664565b61166486600a6135d5565b9550611677565b611674836135b6565b92505b50611681816134e6565b905061160a565b508360005b8260ff168110156116ff57601560016116a98360ff87166135ee565b6116b391906135ee565b6116be88600b6135d5565b60ff166116cb9190613579565b11156116e1576116da866135b6565b95506116ef565b6116ec600b876135d5565b95505b6116f8816134e6565b905061168d565b506000808360ff16118015611723575061171983836135d5565b60ff168660ff1614155b9050886117645780600160ff8c1660048110611741576117416134ba565b6003020160020160006101000a81548160ff021916908315150217905550611773565b6010805460ff19168215151790555b5093955050505050505b92915050565b600f805460408051602080840282018101909252828152606093909290918301828280156117ee57602002820191906000526020600020906000905b825461010083900a900460ff168152602060019283018181049485019490930390920291018084116117bf5790505b5050505050905090565b6014546001600160a01b031633146118225760405162461bcd60e51b81526004016105d6906134ff565b60408051610120810190915260009060018160a0810182600486835b8282101561193e578382600302016040518060e001604052908160008201548152602001600182018054806020026020016040519081016040528092919081815260200182805480156118ce57602002820191906000526020600020906000905b825461010083900a900460ff1681526020600192830181810494850194909303909202910180841161189f5790505b50505091835250506002919091015460ff8082161515602080850191909152610100830482161515604085015262010000830482161515606085015263010000008304821615156080850152600160201b90920416151560a090920191909152908252600192909201910161183e565b505050508152602001600c8201548152602001600d82016040518060e001604052908160008201548152602001600182018054806020026020016040519081016040528092919081815260200182805480156119d757602002820191906000526020600020906000905b825461010083900a900460ff168152602060019283018181049485019490930390920291018084116119a85790505b50505091835250506002919091015460ff80821615156020808501919091526101008084048316151560408087019190915262010000850484161515606087015263010000008504841615156080870152600160201b9094048316151560a090950194909452938552601095909501548086169385019390935291049092161515910152905060005b816060015160ff16811015611ae75781518160048110611a8257611a826134ba565b602002015160c00151611ad75760405162461bcd60e51b815260206004820152601b60248201527f4e6f7420616c6c2068616e6473206172652066696e697368656421000000000060448201526064016105d6565b611ae0816134e6565b9050611a60565b5060125460408051635ec01e4d60e01b815290516000926001600160a01b031691635ec01e4d916004808301926020929190829003018187875af1158015611b33573d6000803e3d6000fd5b505050506040513d601f19601f82011682018060405250810190611b579190613536565b90506000611b676000600161138e565b9050611b716127ce565b611c42575b60158160ff1611611c425760128160ff16101580611ba557508060ff166011148015611ba5575060105460ff16155b611c42576000600d611bb8606485613565565b611bc29190613565565b611bcd906001613579565b9050611bda6064846135a2565b600f8054600181810183556000928352602082047f8d1108e10bcb7c27dddfc02ed9d693a074039d026cf4ea4240b40f7d581ac80201805460ff808816601f9095166101000a9485029402191692909217909155919450611c3a9161138e565b915050611b76565b6000805b846060015160ff168160ff161015611e1057611c6381600061138e565b915060158260ff161115611cb3576040805160ff8084168252841660208201527f8f5ad994571b74a184999f401db654a36da7f6509445622f8fc202553e74c67b910160405180910390a1611e00565b845160009060ff831660048110611ccc57611ccc6134ba565b602002015190151560609091015260ff80831690841603611d2a576040805160ff8084168252841660208201527fa178ea6eac46563a37bb946560ca4fc6dbe8a01cccece492a5e2c3ebde64606891015b60405180910390a1611dbe565b60158360ff161180611d4157508260ff168260ff16115b15611d80576040805160ff8084168252841660208201527fea532b028595ca31cd96503d39a9745a409f96c6c31ab0e0e7e5879efd58e9c69101611d1d565b6040805160ff8084168252841660208201527f8f5ad994571b74a184999f401db654a36da7f6509445622f8fc202553e74c67b910160405180910390a15b8160ff16601503611e005760405160ff821681527fb39e11924e83f1560d7f5a3b9ea63e91876a0cae8009c1cb7dd09ec32d85fc009060200160405180910390a15b611e09816135b6565b9050611c46565b506105a682612a6b565b611e226130de565b6040805160808101909152600160046000835b82821015611f35578382600302016040518060e00160405290816000820154815260200160018201805480602002602001604051908101604052809291908181526020018280548015611ec557602002820191906000526020600020906000905b825461010083900a900460ff16815260206001928301818104948501949093039092029101808411611e965790505b50505091835250506002919091015460ff8082161515602080850191909152610100830482161515604085015262010000830482161515606085015263010000008304821615156080850152600160201b90920416151560a0909201919091529082526001929092019101611e35565b50505050905090565b611f46612724565b6001600160a01b038116611fab5760405162461bcd60e51b815260206004820152602660248201527f4f776e61626c653a206e6577206f776e657220697320746865207a65726f206160448201526564647265737360d01b60648201526084016105d6565b611fb48161277e565b50565b600d546040805160e081018252600e80548252600f805484516020828102820181019096528181526001958086019391929083018282801561203657602002820191906000526020600020906000905b825461010083900a900460ff168152602060019283018181049485019490930390920291018084116120075790505b50505091835250506002919091015460ff8082161515602084015261010080830482161515604085015262010000830482161515606085015263010000008304821615156080850152600160201b9092048116151560a090930192909252601090930154919282821692041684565b6014546000906001600160a01b031633146120d25760405162461bcd60e51b81526004016105d6906134ff565b816000600160ff8316600481106120eb576120eb6134ba565b600302016040518060e0016040529081600082015481526020016001820180548060200260200160405190810160405280929190818152602001828054801561217157602002820191906000526020600020906000905b825461010083900a900460ff168152602060019283018181049485019490930390920291018084116121425790505b50505091835250506002919091015460ff8082161515602080850191909152610100830482161515604085015262010000830482161515606085015263010000008304821615156080850152600160201b90920416151560a09092019190915281015151909150158015906121e857508060c00151155b6122235760405162461bcd60e51b815260206004820152600c60248201526b12185b99081a5b9d985b1a5960a21b60448201526064016105d6565b836000600160ff83166004811061223c5761223c6134ba565b600302016040518060e001604052908160008201548152602001600182018054806020026020016040519081016040528092919081815260200182805480156122c257602002820191906000526020600020906000905b825461010083900a900460ff168152602060019283018181049485019490930390920291018084116122935790505b50505091835250506002919091015460ff8082161515602084015261010082048116151560408401526201000082048116151560608401526301000000820481161515608080850191909152600160201b90920416151560a090920191909152810151909150801561233957508060200151516003145b156123955760405162461bcd60e51b815260206004820152602660248201527f43616e277420686974206f6e2073706c69742061636573206d6f7265207468616044820152656e206f6e636560d01b60648201526084016105d6565b80602001515160031480156123aa5750805115155b1561240b5760405162461bcd60e51b815260206004820152602b60248201527f43616e6e6f7420686974206d6f7265207468616e206f6e6365206f6e2061206460448201526a1bdd589b1959081a185b9960aa1b60648201526084016105d6565b6000600160ff881660048110612423576124236134ba565b6003020160020160016101000a81548160ff0219169083151502179055506000600d601260009054906101000a90046001600160a01b03166001600160a01b0316635ec01e4d6040518163ffffffff1660e01b81526004016020604051808303816000875af115801561249a573d6000803e3d6000fd5b505050506040513d601f19601f820116820180604052508101906124be9190613536565b6124c89190613565565b6124d39060016135d5565b9050600160ff8816600481106124eb576124eb6134ba565b6003020160019081018054918201815560009081526020808220908304018054601f9093166101000a60ff818102199094169385160292909217909155612533908890612fb9565b1561262e577f41536a13788d0a4d884f225410b48ee888ce1f244032a29783f74f321a88cd5f87600160ff821660048110612570576125706134ba565b60030201600101600181548110612589576125896134ba565b90600052602060002090602091828204019190069054906101000a900460ff1660016000018a60ff16600481106125c2576125c26134ba565b600302016001016000815481106125db576125db6134ba565b90600052602060002090602091828204019190069054906101000a900460ff168461260691906135d5565b61261091906135d5565b6040805160ff93841681529290911660208301520160405180910390a15b7f76f79ba55614c6fd9a839698f6674fd0a80c3988d6594633c95fdd63814f676e600160ff891660048110612665576126656134ba565b6003020160010160018154811061267e5761267e6134ba565b90600052602060002090602091828204019190069054906101000a900460ff1660016000018960ff16600481106126b7576126b76134ba565b600302016001016000815481106126d0576126d06134ba565b90600052602060002090602091828204019190069054906101000a900460ff16836126fb91906135d5565b61270591906135d5565b60405160ff909116815260200160405180910390a19695505050505050565b6000546001600160a01b03163314610dee5760405162461bcd60e51b815260206004820181905260248201527f4f776e61626c653a2063616c6c6572206973206e6f7420746865206f776e657260448201526064016105d6565b600080546001600160a01b038381166001600160a01b0319831681178455604051919092169283917f8be0079c531659141344cd1fd0a4f28419497f9722a3daafe3b4186f6b6457e09190a35050565b604080516101208101909152600090819060018160a0810182600486835b828210156128ec578382600302016040518060e0016040529081600082015481526020016001820180548060200260200160405190810160405280929190818152602001828054801561287c57602002820191906000526020600020906000905b825461010083900a900460ff1681526020600192830181810494850194909303909202910180841161284d5790505b50505091835250506002919091015460ff8082161515602080850191909152610100830482161515604085015262010000830482161515606085015263010000008304821615156080850152600160201b90920416151560a09092019190915290825260019290920191016127ec565b505050508152602001600c8201548152602001600d82016040518060e0016040529081600082015481526020016001820180548060200260200160405190810160405280929190818152602001828054801561298557602002820191906000526020600020906000905b825461010083900a900460ff168152602060019283018181049485019490930390920291018084116129565790505b50505091835250506002919091015460ff80821615156020808501919091526101008084048316151560408087019190915262010000850484161515606087015263010000008504841615156080870152600160201b9094048316151560a090950194909452938552601095909501548086169385019390935291049092161515910152905060005b816060015160ff16811015612a625781516000908260048110612a3357612a336134ba565b60200201519015801560a090920191909152612a525760009250505090565b612a5b816134e6565b9050612a0e565b50600191505090565b601454600160a01b900460ff1615612ac55760405162461bcd60e51b815260206004820152601860248201527f506c6179657220616c72656164792070616964206f757421000000000000000060448201526064016105d6565b6014805460ff60a01b1916600160a01b17905560408051610120810190915260009060018160a0810182600486835b82821015612bf4578382600302016040518060e00160405290816000820154815260200160018201805480602002602001604051908101604052809291908181526020018280548015612b8457602002820191906000526020600020906000905b825461010083900a900460ff16815260206001928301818104948501949093039092029101808411612b555790505b50505091835250506002919091015460ff8082161515602080850191909152610100830482161515604085015262010000830482161515606085015263010000008304821615156080850152600160201b90920416151560a0909201919091529082526001929092019101612af4565b505050508152602001600c8201548152602001600d82016040518060e00160405290816000820154815260200160018201805480602002602001604051908101604052809291908181526020018280548015612c8d57602002820191906000526020600020906000905b825461010083900a900460ff16815260206001928301818104948501949093039092029101808411612c5e5790505b50505091835250506002919091015460ff80821615156020808501919091526101008084048316151560408087019190915262010000850484161515606087015263010000008504841615156080870152600160201b9094048316151560a09095019490945293855260109590950154808616858501529190910490931615159190920152810151909150600080805b846060015160ff168160ff161015612e3857612d3a81600061138e565b91508560ff168260ff16118015612d595750612d57816000612fb9565b155b15612de85760158260ff1611612db7578160ff166015148015612d9b5750845160ff821660048110612d8d57612d8d6134ba565b602002015160200151516002145b612da957600184901b612db2565b600184901c6005025b830192505b845160019060ff831660048110612dd057612dd06134ba565b602002015151612de1911b84613579565b9250612e28565b8560ff168260ff1603612e2857845160ff821660048110612e0b57612e0b6134ba565b602002015151612e1b9085613579565b612e259084613579565b92505b612e31816135b6565b9050612d1d565b50836040015160200151516002148015612e5557508460ff166015145b8015612e62575083608001515b15612e7857612e75600184901b83613579565b91505b6013546040516000916001600160a01b03169047908381818185875af1925050503d8060008114612ec5576040519150601f19603f3d011682016040523d82523d6000602084013e612eca565b606091505b5050905080612f0f5760405162461bcd60e51b8152602060048201526011602482015270139bdd081cd95b9d081d1bc81d985d5b1d607a1b60448201526064016105d6565b8215612fb1576040518381527f581d416ae9dff30c9305c2b35cb09ed5991897ab97804db29ccf92678e9531609060200160405180910390a1601354601454604051634d1a8de160e01b8152600481018690526001600160a01b039182166024820152911690634d1a8de190604401600060405180830381600087803b158015612f9857600080fd5b505af1158015612fac573d6000803e3d6000fd5b505050505b505050505050565b60006015612fc7848461138e565b60ff161160016000018460ff1660048110612fe457612fe46134ba565b6003020160020160036101000a81548160ff02191690831515021790555060016000018360ff166004811061301b5761301b6134ba565b6003020160020160039054906101000a900460ff16905092915050565b82805482825590600052602060002090601f016020900481019282156130ce5791602002820160005b8382111561309f57835183826101000a81548160ff021916908360ff1602179055509260200192600101602081600001049283019260010302613061565b80156130cc5782816101000a81549060ff021916905560010160208160000104928301926001030261309f565b505b506130da929150613139565b5090565b60405180608001604052806004905b6040805160e08101825260008082526060602080840182905293830182905282018190526080820181905260a0820181905260c082015282526000199092019101816130ed5790505090565b5b808211156130da576000815560010161313a565b803560ff8116811461315f57600080fd5b919050565b6000806040838503121561317757600080fd5b6131808361314e565b915061318e6020840161314e565b90509250929050565b6000806000604084860312156131ac57600080fd5b833567ffffffffffffffff808211156131c457600080fd5b818601915086601f8301126131d857600080fd5b8135818111156131e757600080fd5b8760208260051b85010111156131fc57600080fd5b602092830195509350613212918601905061314e565b90509250925092565b60006020828403121561322d57600080fd5b6132368261314e565b9392505050565b60008060006060848603121561325257600080fd5b61325b8461314e565b92506132696020850161314e565b91506132126040850161314e565b6020808252825182820181905260009190848201906040850190845b818110156132b257835160ff1683529284019291840191600101613293565b50909695505050505050565b8035801515811461315f57600080fd5b600080604083850312156132e157600080fd5b6132ea8361314e565b915061318e602084016132be565b6000806000806080858703121561330e57600080fd5b613317856132be565b9350613325602086016132be565b9250613333604086016132be565b9150613341606086016132be565b905092959194509250565b600060e083018251845260208084015160e082870152828151808552610100880191508383019450600092505b8083101561339c57845160ff168252938301936001929092019190830190613379565b50604086015193506133b2604088018515159052565b606086015193506133c7606088018515159052565b608086015193506133dc608088018515159052565b60a086015193506133f160a088018515159052565b60c0860151935061340660c088018515159052565b9695505050505050565b602080825260009060a0830183820185845b600481101561345157601f1987850301835261343f84835161334c565b93509184019190840190600101613422565b50919695505050505050565b60006020828403121561346f57600080fd5b81356001600160a01b038116811461323657600080fd5b84815260806020820152600061349f608083018661334c565b60ff9490941660408301525090151560609091015292915050565b634e487b7160e01b600052603260045260246000fd5b634e487b7160e01b600052601160045260246000fd5b6000600182016134f8576134f86134d0565b5060010190565b6020808252601f908201527f4d75737420626520706c6179657220746f2063616c6c2066756e6374696f6e00604082015260600190565b60006020828403121561354857600080fd5b5051919050565b634e487b7160e01b600052601260045260246000fd5b6000826135745761357461354f565b500690565b8082018082111561177d5761177d6134d0565b634e487b7160e01b600052604160045260246000fd5b6000826135b1576135b161354f565b500490565b600060ff821660ff81036135cc576135cc6134d0565b60010192915050565b60ff818116838216019081111561177d5761177d6134d0565b8181038181111561177d5761177d6134d056fea2646970667358221220c48ec6e7f9e4af601f55fe174e9a9983a8f2f9ab5525882e9e9f65e7325b4d7064736f6c63430008150033",
    "linkReferences": {}
  },
  "methodIdentifiers": {
    "addPlayerCards(uint8[],uint8)": "1d6c4e3b",
    "buyInsurance()": "71618c79",
    "dealer()": "9de2ee21",
    "doubleDown(uint8)": "720d984e",
    "gameData()": "fa24f743",
    "getBetAmount()": "fde41e29",
    "getCardsFromHand(uint8)": "5a20d60b",
    "getDealerCards()": "974ee4d8",
    "getHandSum(uint8,bool)": "7b2f76a7",
    "getHands()": "e8fa988d",
    "getInsurance()": "267a8da0",
    "getNextOpenHandSlot()": "5db060ee",
    "hit(uint8)": "ff837d75",
    "markFinished(bool,bool,bool,bool)": "b2c836d3",
    "owner()": "8da5cb5b",
    "paidOut()": "5c76ca2d",
    "player()": "48db5f89",
    "renounceOwnership()": "715018a6",
    "setDealerCards(uint8,uint8)": "1707ea98",
    "setPlayerCards(uint8,uint8,uint8)": "40e2e20c",
    "split(uint8)": "1ef44aed",
    "stand()": "c2897b10",
    "transferOwnership(address)": "f2fde38b",
    "vault()": "fbfa77cf"
  },
  "id": 21
}