{
  "abi": [
    {
      "inputs": [
        {
          "internalType": "address payable",
          "name": "_vault",
          "type": "address"
        },
        {
          "internalType": "address",
          "name": "_dealer",
          "type": "address"
        }
      ],
      "stateMutability": "payable",
      "type": "constructor"
    },
    {
      "anonymous": false,
      "inputs": [
        {
          "indexed": false,
          "internalType": "uint8",
          "name": "",
          "type": "uint8"
        }
      ],
      "name": "Bust",
      "type": "event"
    },
    {
      "anonymous": false,
      "inputs": [
        {
          "indexed": false,
          "internalType": "uint8",
          "name": "",
          "type": "uint8"
        }
      ],
      "name": "Hit",
      "type": "event"
    },
    {
      "anonymous": false,
      "inputs": [
        {
          "indexed": false,
          "internalType": "uint8",
          "name": "",
          "type": "uint8"
        }
      ],
      "name": "Loss",
      "type": "event"
    },
    {
      "anonymous": false,
      "inputs": [
        {
          "indexed": true,
          "internalType": "address",
          "name": "previousOwner",
          "type": "address"
        },
        {
          "indexed": true,
          "internalType": "address",
          "name": "newOwner",
          "type": "address"
        }
      ],
      "name": "OwnershipTransferred",
      "type": "event"
    },
    {
      "anonymous": false,
      "inputs": [
        {
          "indexed": false,
          "internalType": "uint256",
          "name": "",
          "type": "uint256"
        }
      ],
      "name": "Paid",
      "type": "event"
    },
    {
      "anonymous": false,
      "inputs": [],
      "name": "PlayerBlackjack",
      "type": "event"
    },
    {
      "anonymous": false,
      "inputs": [
        {
          "indexed": false,
          "internalType": "uint8",
          "name": "",
          "type": "uint8"
        }
      ],
      "name": "Push",
      "type": "event"
    },
    {
      "anonymous": false,
      "inputs": [
        {
          "indexed": false,
          "internalType": "uint8",
          "name": "",
          "type": "uint8"
        }
      ],
      "name": "Split",
      "type": "event"
    },
    {
      "anonymous": false,
      "inputs": [
        {
          "indexed": false,
          "internalType": "uint8",
          "name": "",
          "type": "uint8"
        }
      ],
      "name": "Win",
      "type": "event"
    },
    {
      "inputs": [
        {
          "internalType": "uint8[]",
          "name": "_cards",
          "type": "uint8[]"
        },
        {
          "internalType": "uint8",
          "name": "handNum",
          "type": "uint8"
        }
      ],
      "name": "addPlayerCards",
      "outputs": [],
      "stateMutability": "nonpayable",
      "type": "function"
    },
    {
      "inputs": [],
      "name": "dealer",
      "outputs": [
        {
          "internalType": "contract Dealer",
          "name": "",
          "type": "address"
        }
      ],
      "stateMutability": "view",
      "type": "function"
    },
    {
      "inputs": [],
      "name": "gameData",
      "outputs": [
        {
          "internalType": "uint256",
          "name": "betAmount",
          "type": "uint256"
        },
        {
          "components": [
            {
              "internalType": "uint8[]",
              "name": "cards",
              "type": "uint8[]"
            },
            {
              "internalType": "bool",
              "name": "soft",
              "type": "bool"
            },
            {
              "internalType": "bool",
              "name": "firstTurn",
              "type": "bool"
            },
            {
              "internalType": "bool",
              "name": "finished",
              "type": "bool"
            }
          ],
          "internalType": "struct Blackjack.Hand",
          "name": "dealerHand",
          "type": "tuple"
        },
        {
          "internalType": "uint8",
          "name": "nextOpenHandSlot",
          "type": "uint8"
        },
        {
          "internalType": "bool",
          "name": "insurance",
          "type": "bool"
        }
      ],
      "stateMutability": "view",
      "type": "function"
    },
    {
      "inputs": [],
      "name": "getBetAmount",
      "outputs": [
        {
          "internalType": "uint256",
          "name": "",
          "type": "uint256"
        }
      ],
      "stateMutability": "view",
      "type": "function"
    },
    {
      "inputs": [
        {
          "internalType": "uint8",
          "name": "handNum",
          "type": "uint8"
        }
      ],
      "name": "getCardsFromHand",
      "outputs": [
        {
          "internalType": "uint8[]",
          "name": "",
          "type": "uint8[]"
        }
      ],
      "stateMutability": "view",
      "type": "function"
    },
    {
      "inputs": [],
      "name": "getDealerCards",
      "outputs": [
        {
          "internalType": "uint8[]",
          "name": "",
          "type": "uint8[]"
        }
      ],
      "stateMutability": "view",
      "type": "function"
    },
    {
      "inputs": [
        {
          "internalType": "uint8",
          "name": "handNum",
          "type": "uint8"
        },
        {
          "internalType": "bool",
          "name": "_dealer",
          "type": "bool"
        }
      ],
      "name": "getHandSum",
      "outputs": [
        {
          "internalType": "uint8",
          "name": "",
          "type": "uint8"
        }
      ],
      "stateMutability": "nonpayable",
      "type": "function"
    },
    {
      "inputs": [],
      "name": "getHands",
      "outputs": [
        {
          "components": [
            {
              "internalType": "uint8[]",
              "name": "cards",
              "type": "uint8[]"
            },
            {
              "internalType": "bool",
              "name": "soft",
              "type": "bool"
            },
            {
              "internalType": "bool",
              "name": "firstTurn",
              "type": "bool"
            },
            {
              "internalType": "bool",
              "name": "finished",
              "type": "bool"
            }
          ],
          "internalType": "struct Blackjack.Hand[4]",
          "name": "",
          "type": "tuple[4]"
        }
      ],
      "stateMutability": "view",
      "type": "function"
    },
    {
      "inputs": [],
      "name": "getInsurance",
      "outputs": [
        {
          "internalType": "bool",
          "name": "",
          "type": "bool"
        }
      ],
      "stateMutability": "view",
      "type": "function"
    },
    {
      "inputs": [],
      "name": "getNextOpenHandSlot",
      "outputs": [
        {
          "internalType": "uint8",
          "name": "",
          "type": "uint8"
        }
      ],
      "stateMutability": "view",
      "type": "function"
    },
    {
      "inputs": [
        {
          "internalType": "bool",
          "name": "_insurance",
          "type": "bool"
        },
        {
          "internalType": "uint8",
          "name": "handNum",
          "type": "uint8"
        }
      ],
      "name": "hit",
      "outputs": [
        {
          "internalType": "uint8",
          "name": "",
          "type": "uint8"
        }
      ],
      "stateMutability": "payable",
      "type": "function"
    },
    {
      "inputs": [],
      "name": "owner",
      "outputs": [
        {
          "internalType": "address",
          "name": "",
          "type": "address"
        }
      ],
      "stateMutability": "view",
      "type": "function"
    },
    {
      "inputs": [],
      "name": "player",
      "outputs": [
        {
          "internalType": "address",
          "name": "",
          "type": "address"
        }
      ],
      "stateMutability": "view",
      "type": "function"
    },
    {
      "inputs": [],
      "name": "renounceOwnership",
      "outputs": [],
      "stateMutability": "nonpayable",
      "type": "function"
    },
    {
      "inputs": [
        {
          "internalType": "uint8",
          "name": "_card1",
          "type": "uint8"
        },
        {
          "internalType": "uint8",
          "name": "_card2",
          "type": "uint8"
        }
      ],
      "name": "setDealerCards",
      "outputs": [],
      "stateMutability": "nonpayable",
      "type": "function"
    },
    {
      "inputs": [
        {
          "internalType": "uint8",
          "name": "_card1",
          "type": "uint8"
        },
        {
          "internalType": "uint8",
          "name": "_card2",
          "type": "uint8"
        },
        {
          "internalType": "uint8",
          "name": "handNum",
          "type": "uint8"
        }
      ],
      "name": "setPlayerCards",
      "outputs": [],
      "stateMutability": "nonpayable",
      "type": "function"
    },
    {
      "inputs": [
        {
          "internalType": "uint8",
          "name": "handNum",
          "type": "uint8"
        }
      ],
      "name": "split",
      "outputs": [],
      "stateMutability": "payable",
      "type": "function"
    },
    {
      "inputs": [
        {
          "internalType": "uint8",
          "name": "handNum",
          "type": "uint8"
        }
      ],
      "name": "stand",
      "outputs": [],
      "stateMutability": "nonpayable",
      "type": "function"
    },
    {
      "inputs": [
        {
          "internalType": "address",
          "name": "newOwner",
          "type": "address"
        }
      ],
      "name": "transferOwnership",
      "outputs": [],
      "stateMutability": "nonpayable",
      "type": "function"
    },
    {
      "inputs": [],
      "name": "vault",
      "outputs": [
        {
          "internalType": "contract Vault",
          "name": "",
          "type": "address"
        }
      ],
      "stateMutability": "view",
      "type": "function"
    }
  ],
  "bytecode": {
    "object": "0x60806040526040516200228e3803806200228e833981016040819052620000269162000296565b62000031336200022d565b60003411620000865760405162461bcd60e51b815260206004820152601d60248201527f4e65656420746f20706c61636520616e20696e697469616c2062657421000000604482015260640160405180910390fd5b600e80546001600160a01b038085166001600160a01b031992831617909255600d805492841692821683179055600f80549091163317905560408051635ec01e4d60e01b8152905160009291635ec01e4d916004808301926020929190829003018187875af1158015620000fe573d6000803e3d6000fd5b505050506040513d601f19601f82011682018060405250810190620001249190620002d5565b60018054808201825560208082047fb10e2d527612073b26eecdfd717e6a320cf44b4afac2b0732d9fcbe2b7fa0cf69081018054601f94851661010090810a60ff81810219909316600d808b068a0185169290920217909355600a80548089019091557fc65a7bb8d6351c1cf70c95a316cc6a92839c986682d98bc35f958f4883f9d2a886820401805460648b048690068a018516928916840a92830292850219169190911790558654808801885560008890529485049093018054612710909804929092068601811693909416820a928302929093021990941617905534600955600c80546002805461ff00191690941790935561ffff1990921617905550620002ef915050565b600080546001600160a01b038381166001600160a01b0319831681178455604051919092169283917f8be0079c531659141344cd1fd0a4f28419497f9722a3daafe3b4186f6b6457e09190a35050565b6001600160a01b03811681146200029357600080fd5b50565b60008060408385031215620002aa57600080fd5b8251620002b7816200027d565b6020840151909250620002ca816200027d565b809150509250929050565b600060208284031215620002e857600080fd5b5051919050565b611f8f80620002ff6000396000f3fe60806040526004361061011f5760003560e01c8063715018a6116100a0578063e8fa988d11610064578063e8fa988d14610310578063f2fde38b14610332578063fa24f74314610352578063fbfa77cf14610377578063fde41e291461039757600080fd5b8063715018a6146102885780637b2f76a71461029d5780638da5cb5b146102bd578063974ee4d8146102db5780639de2ee21146102f057600080fd5b806334e6a776116100e757806334e6a776146101c657806340e2e20c146101eb57806348db5f891461020b5780635a20d60b146102435780635db060ee1461027057600080fd5b80630a2d343a146101245780631707ea98146101465780631d6c4e3b146101665780631ef44aed14610186578063267a8da014610199575b600080fd5b34801561013057600080fd5b5061014461013f366004611b24565b6103b5565b005b34801561015257600080fd5b50610144610161366004611b3f565b6106af565b34801561017257600080fd5b50610144610181366004611b72565b610743565b610144610194366004611b24565b6107dc565b3480156101a557600080fd5b50600c54610100900460ff1660405190151581526020015b60405180910390f35b6101d96101d4366004611c06565b610ce1565b60405160ff90911681526020016101bd565b3480156101f757600080fd5b50610144610206366004611c22565b6110ed565b34801561021757600080fd5b50600f5461022b906001600160a01b031681565b6040516001600160a01b0390911681526020016101bd565b34801561024f57600080fd5b5061026361025e366004611b24565b6111a3565b6040516101bd9190611c5c565b34801561027c57600080fd5b50600c5460ff166101d9565b34801561029457600080fd5b50610144611230565b3480156102a957600080fd5b506101d96102b8366004611ca3565b611244565b3480156102c957600080fd5b506000546001600160a01b031661022b565b3480156102e757600080fd5b50610263611467565b3480156102fc57600080fd5b50600d5461022b906001600160a01b031681565b34801561031c57600080fd5b506103256114dc565b6040516101bd9190611d42565b34801561033e57600080fd5b5061014461034d366004611d8f565b6115cc565b34801561035e57600080fd5b50610367611645565b6040516101bd9493929190611db8565b34801561038357600080fd5b50600e5461022b906001600160a01b031681565b3480156103a357600080fd5b506009546040519081526020016101bd565b600f546001600160a01b031633146103e85760405162461bcd60e51b81526004016103df90611dec565b60405180910390fd5b80600160ff8216600481106103ff576103ff611e23565b60020201546000036104235760405162461bcd60e51b81526004016103df90611e39565b600d5460408051635ec01e4d60e01b815290516000926001600160a01b031691635ec01e4d916004808301926020929190829003018187875af115801561046e573d6000803e3d6000fd5b505050506040513d601f19601f820116820180604052508101906104929190611e5f565b905060006104a1846000611244565b905060006104b160006001611244565b90505b6104bf601583611707565b60ff168160ff161161058a5760128160ff161015806104ef57508060ff1660111480156104ef5750600b5460ff16155b61058a576000610515610503600d86611e8e565b61050e906001611eb8565b600a611707565b9050610522606485611ecb565b600a8054600181810183556000928352602082047fc65a7bb8d6351c1cf70c95a316cc6a92839c986682d98bc35f958f4883f9d2a801805460ff808816601f9095166101000a948502940219169290921790915591955061058291611244565b9150506104b4565b8160ff168160ff16036105d25760405160ff831681527fb4891788e5aeae0a7c35bc54a5c88724c39b101c0efcbf08357254a031870b749060200160405180910390a1610673565b60158160ff1611806105e957508060ff168260ff16115b156106295760405160ff831681527f1bf0bb3b8aecbdd715eacadcfc823650fc174b037c21da88af0beb4f55bfe4e99060200160405180910390a1610660565b60405160ff831681527fdf7e02b4cc7d28bf9e9c21e7c83f9a8d0926b26168fdc0a43393fe57ddaed8289060200160405180910390a15b61067385838360ff168560ff1611611725565b8160ff166015036106a8576040517fac12b2cd30b1f4db38d94e07d1376d0a700299ee9f243744847703a0b55ef5af90600090a15b5050505050565b600a80548391906000906106c5576106c5611e23565b6000918252602080832081830401805460ff958616601f94851661010090810a9182029188021990921617909155600a805460018101825594529083047fc65a7bb8d6351c1cf70c95a316cc6a92839c986682d98bc35f958f4883f9d2a801805495851693909216900a918202919092021990921691909117905550565b60005b828110156107d657600160ff83166004811061076457610764611e23565b6002020184848381811061077a5761077a611e23565b905060200201602081019061078f9190611b24565b81546001810183556000928352602092839020928104909201805460ff928316601f9094166101000a93840292909302199092161790556107cf81611edf565b9050610746565b50505050565b600f546001600160a01b031633146108065760405162461bcd60e51b81526004016103df90611dec565b80600160ff82166004811061081d5761081d611e23565b60020201546000036108415760405162461bcd60e51b81526004016103df90611e39565b6000600160ff84166004811061085957610859611e23565b600202018054604080516020808402820181019092528281529291908301828280156108c257602002820191906000526020600020906000905b825461010083900a900460ff168152602060019283018181049485019490930390920291018084116108935790505b50505050509050806001815181106108dc576108dc611e23565b602002602001015160ff16816000815181106108fa576108fa611e23565b602002602001015160ff16146109485760405162461bcd60e51b8152602060048201526013602482015272139959590818481c185a5c881a5b881a185b99606a1b60448201526064016103df565b60095434146109995760405162461bcd60e51b815260206004820152601a60248201527f4e65656420746f206d61746368206f726967696e616c2062657400000000000060448201526064016103df565b600c54600460ff909116106109f05760405162461bcd60e51b815260206004820152601c60248201527f43616e206f6e6c792073706c697420746f20666f75722068616e64730000000060448201526064016103df565b600d5460408051635ec01e4d60e01b815290516000926001600160a01b031691635ec01e4d916004808301926020929190829003018187875af1158015610a3b573d6000803e3d6000fd5b505050506040513d601f19601f82011682018060405250810190610a5f9190611e5f565b90506000610a6e600d83611e8e565b610a79906001611eb8565b905080600160ff871660048110610a9257610a92611e23565b6002020180546001908110610aa957610aa9611e23565b90600052602060002090602091828204019190066101000a81548160ff021916908360ff1602179055506000600267ffffffffffffffff811115610aef57610aef611ef8565b604051908082528060200260200182016040528015610b18578160200160208202803683370190505b5090506000600d610b2a606486611ecb565b610b349190611e8e565b610b3f906001611eb8565b905084600181518110610b5457610b54611e23565b602002602001015182600081518110610b6f57610b6f611e23565b602002602001019060ff16908160ff16815250508082600181518110610b9757610b97611e23565b60ff928316602091820292909201810191909152604080516080810182528581526000928101839052600191810182905260608101839052600c805491949293919092169190610be683611f0e565b91906101000a81548160ff021916908360ff16021790555060ff1660048110610c1157610c11611e23565b600202016000820151816000019080519060200190610c31929190611a0c565b5060208201516001909101805460408401516060909401511515620100000262ff0000199415156101000261ff00199415159490941661ffff1990921691909117929092179290921617905584517f738fbb20ac06733db9d189b456de5d77d03f3f832ea1da86c2a1569fbfd711c6908690600090610cb257610cb2611e23565b6020026020010151604051610cd0919060ff91909116815260200190565b60405180910390a150505050505050565b600f546000906001600160a01b03163314610d0e5760405162461bcd60e51b81526004016103df90611dec565b81600160ff821660048110610d2557610d25611e23565b6002020154600003610d495760405162461bcd60e51b81526004016103df90611e39565b8315610e1e57600160ff841660048110610d6557610d65611e23565b6002020160010160019054906101000a900460ff168015610d87575060095434145b8015610dc85750600a8054600090610da157610da1611e23565b90600052602060002090602091828204019190069054906101000a900460ff1660ff166001145b8015610dfc5750600160ff841660048110610de557610de5611e23565b6002020160010160029054906101000a900460ff16155b610e0557600080fd5b600c805461ff0019166101001790556009805460011b90555b600d805460408051635ec01e4d60e01b81529051600093926001600160a01b031691635ec01e4d916004808301926020929190829003018188875af1158015610e6b573d6000803e3d6000fd5b505050506040513d601f19601f82011682018060405250810190610e8f9190611e5f565b610e999190611e8e565b610ea4906001611f2d565b9050600160ff851660048110610ebc57610ebc611e23565b6002020180546001810182556000918252602080832090820401805460ff808616601f9094166101000a93840293021916919091179055610efe908590611949565b15610fff577f7ed0b9d88fc0672a79b9f48e433842d27015f2e5ca611abe22218ed0737ac84e600160ff861660048110610f3a57610f3a611e23565b6002020180546001908110610f5157610f51611e23565b90600052602060002090602091828204019190069054906101000a900460ff1660016000018660ff1660048110610f8a57610f8a611e23565b600202018054600090610f9f57610f9f611e23565b90600052602060002090602091828204019190069054906101000a900460ff1683610fca9190611f2d565b610fd49190611f2d565b60405160ff909116815260200160405180910390a1610fff84610ff8866000611244565b6000611725565b7f76f79ba55614c6fd9a839698f6674fd0a80c3988d6594633c95fdd63814f676e600160ff86166004811061103657611036611e23565b600202018054600190811061104d5761104d611e23565b90600052602060002090602091828204019190069054906101000a900460ff1660016000018660ff166004811061108657611086611e23565b60020201805460009061109b5761109b611e23565b90600052602060002090602091828204019190069054906101000a900460ff16836110c69190611f2d565b6110d09190611f2d565b60405160ff909116815260200160405180910390a1949350505050565b82600160ff83166004811061110457611104611e23565b60020201805460009061111957611119611e23565b90600052602060002090602091828204019190066101000a81548160ff021916908360ff1602179055508160016000018260ff166004811061115d5761115d611e23565b600202018054600190811061117457611174611e23565b90600052602060002090602091828204019190066101000a81548160ff021916908360ff160217905550505050565b6060600160ff8316600481106111bb576111bb611e23565b6002020180546040805160208084028201810190925282815292919083018282801561122457602002820191906000526020600020906000905b825461010083900a900460ff168152602060019283018181049485019490930390920291018084116111f55790505b50505050509050919050565b611238611962565b61124260006119bc565b565b60008060008361126d57600160ff86166004811061126457611264611e23565b60020201611270565b600a5b8054806020026020016040519081016040528092919081815260200182805480156112d857602002820191906000526020600020906000905b825461010083900a900460ff168152602060019283018181049485019490930390920291018084116112a95790505b505050505090506000815190506000805b8260ff1681101561136757600084828151811061130857611308611e23565b602002602001015190508060ff1660011461134a57600a8160ff161015611338576113338187611f2d565b611343565b61134386600a611f2d565b9550611356565b61135383611f0e565b92505b5061136081611edf565b90506112e9565b5060005b8160ff168110156113dd57601560016113878360ff8616611f46565b6113919190611f46565b61139c87600b611f2d565b60ff166113a99190611eb8565b11156113bf576113b885611f0e565b94506113cd565b6113ca600b86611f2d565b94505b6113d681611edf565b905061136b565b508561143257600b8460ff161180156113f9575060008160ff16115b600160ff89166004811061140f5761140f611e23565b6002020160010160006101000a81548160ff02191690831515021790555061145a565b600b8460ff16118015611448575060008160ff16115b600b805460ff19169115159190911790555b5091925050505b92915050565b600a805460408051602080840282018101909252828152606093909290918301828280156114d257602002820191906000526020600020906000905b825461010083900a900460ff168152602060019283018181049485019490930390920291018084116114a35790505b5050505050905090565b6114e4611ab2565b6040805160808101909152600160046000835b828210156115c35760408051600284028601805460a06020820284018101909452608083018181529293919284929091849184018282801561157657602002820191906000526020600020906000905b825461010083900a900460ff168152602060019283018181049485019490930390920291018084116115475790505b505050918352505060019182015460ff80821615156020808501919091526101008304821615156040850152620100009092041615156060909201919091529183529290920191016114f7565b50505050905090565b6115d4611962565b6001600160a01b0381166116395760405162461bcd60e51b815260206004820152602660248201527f4f776e61626c653a206e6577206f776e657220697320746865207a65726f206160448201526564647265737360d01b60648201526084016103df565b611642816119bc565b50565b60095460408051600a805460a0602082028401810190945260808301818152600194849284918401828280156116b857602002820191906000526020600020906000905b825461010083900a900460ff168152602060019283018181049485019490930390920291018084116116895790505b50505091835250506001919091015460ff808216151560208401526101008083048216151560408501526201000090920481161515606090930192909252600b90930154919282821692041684565b60008160ff168360ff161061171c578161171e565b825b9392505050565b600160ff84166004811061173b5761173b611e23565b6002020160010160029054906101000a900460ff16156117955760405162461bcd60e51b815260206004820152601560248201527412185b9908185b1c9958591e48199a5b9a5cda1959605a1b60448201526064016103df565b60018060ff8516600481106117ac576117ac611e23565b60020201600101805462ff00001916620100009215159290920291909117905560095481156118a55760158360ff16116118a55760008360ff166015146117f757600182901b611800565b600182901c6005025b600e54600f54604051634d1a8de160e01b8152600481018490526001600160a01b0391821660248201529293501690634d1a8de190604401600060405180830381600087803b15801561185257600080fd5b505af1158015611866573d6000803e3d6000fd5b505050507f581d416ae9dff30c9305c2b35cb09ed5991897ab97804db29ccf92678e9531608160405161189b91815260200190565b60405180910390a1505b600e5460405160009182916001600160a01b039091169084908381818185875af1925050503d80600081146118f6576040519150601f19603f3d011682016040523d82523d6000602084013e6118fb565b606091505b5091509150816119415760405162461bcd60e51b8152602060048201526011602482015270139bdd081cd95b9d081d1bc81d985d5b1d607a1b60448201526064016103df565b505050505050565b600060156119578484611244565b60ff16119392505050565b6000546001600160a01b031633146112425760405162461bcd60e51b815260206004820181905260248201527f4f776e61626c653a2063616c6c6572206973206e6f7420746865206f776e657260448201526064016103df565b600080546001600160a01b038381166001600160a01b0319831681178455604051919092169283917f8be0079c531659141344cd1fd0a4f28419497f9722a3daafe3b4186f6b6457e09190a35050565b82805482825590600052602060002090601f01602090048101928215611aa25791602002820160005b83821115611a7357835183826101000a81548160ff021916908360ff1602179055509260200192600101602081600001049283019260010302611a35565b8015611aa05782816101000a81549060ff0219169055600101602081600001049283019260010302611a73565b505b50611aae929150611af9565b5090565b60405180608001604052806004905b60408051608081018252606080825260006020808401829052938301819052908201528252600019909201910181611ac15790505090565b5b80821115611aae5760008155600101611afa565b803560ff81168114611b1f57600080fd5b919050565b600060208284031215611b3657600080fd5b61171e82611b0e565b60008060408385031215611b5257600080fd5b611b5b83611b0e565b9150611b6960208401611b0e565b90509250929050565b600080600060408486031215611b8757600080fd5b833567ffffffffffffffff80821115611b9f57600080fd5b818601915086601f830112611bb357600080fd5b813581811115611bc257600080fd5b8760208260051b8501011115611bd757600080fd5b602092830195509350611bed9186019050611b0e565b90509250925092565b80358015158114611b1f57600080fd5b60008060408385031215611c1957600080fd5b611b5b83611bf6565b600080600060608486031215611c3757600080fd5b611c4084611b0e565b9250611c4e60208501611b0e565b9150611bed60408501611b0e565b6020808252825182820181905260009190848201906040850190845b81811015611c9757835160ff1683529284019291840191600101611c78565b50909695505050505050565b60008060408385031215611cb657600080fd5b611cbf83611b0e565b9150611b6960208401611bf6565b8051608080845281519084018190526000916020919082019060a0860190845b81811015611d0c57835160ff1683529284019291840191600101611ced565b50508285015115158387015260408501511515604087015260608501519250611d39606087018415159052565b95945050505050565b602080825260009060a0830183820185845b6004811015611d8357601f19878503018352611d71848351611ccd565b93509184019190840190600101611d54565b50919695505050505050565b600060208284031215611da157600080fd5b81356001600160a01b038116811461171e57600080fd5b848152608060208201526000611dd16080830186611ccd565b60ff9490941660408301525090151560609091015292915050565b6020808252601f908201527f4d75737420626520706c6179657220746f2063616c6c2066756e6374696f6e00604082015260600190565b634e487b7160e01b600052603260045260246000fd5b6020808252600c908201526b12185b99081a5b9d985b1a5960a21b604082015260600190565b600060208284031215611e7157600080fd5b5051919050565b634e487b7160e01b600052601260045260246000fd5b600082611e9d57611e9d611e78565b500690565b634e487b7160e01b600052601160045260246000fd5b8082018082111561146157611461611ea2565b600082611eda57611eda611e78565b500490565b600060018201611ef157611ef1611ea2565b5060010190565b634e487b7160e01b600052604160045260246000fd5b600060ff821660ff8103611f2457611f24611ea2565b60010192915050565b60ff818116838216019081111561146157611461611ea2565b8181038181111561146157611461611ea256fea26469706673582212207e5235031d46cd766384ef663bf4acdd13bbfa22627668d26b15a33d01b8f37d64736f6c63430008150033",
    "linkReferences": {}
  },
  "methodIdentifiers": {
    "addPlayerCards(uint8[],uint8)": "1d6c4e3b",
    "dealer()": "9de2ee21",
    "gameData()": "fa24f743",
    "getBetAmount()": "fde41e29",
    "getCardsFromHand(uint8)": "5a20d60b",
    "getDealerCards()": "974ee4d8",
    "getHandSum(uint8,bool)": "7b2f76a7",
    "getHands()": "e8fa988d",
    "getInsurance()": "267a8da0",
    "getNextOpenHandSlot()": "5db060ee",
    "hit(bool,uint8)": "34e6a776",
    "owner()": "8da5cb5b",
    "player()": "48db5f89",
    "renounceOwnership()": "715018a6",
    "setDealerCards(uint8,uint8)": "1707ea98",
    "setPlayerCards(uint8,uint8,uint8)": "40e2e20c",
    "split(uint8)": "1ef44aed",
    "stand(uint8)": "0a2d343a",
    "transferOwnership(address)": "f2fde38b",
    "vault()": "fbfa77cf"
  },
  "id": 21
}