{
  "abi": [
    {
      "inputs": [
        {
          "internalType": "address payable",
          "name": "_vault",
          "type": "address"
        },
        {
          "internalType": "address",
          "name": "_dealer",
          "type": "address"
        }
      ],
      "stateMutability": "payable",
      "type": "constructor"
    },
    {
      "anonymous": false,
      "inputs": [
        {
          "indexed": false,
          "internalType": "uint8",
          "name": "",
          "type": "uint8"
        },
        {
          "indexed": false,
          "internalType": "uint8",
          "name": "",
          "type": "uint8"
        }
      ],
      "name": "Bust",
      "type": "event"
    },
    {
      "anonymous": false,
      "inputs": [
        {
          "indexed": false,
          "internalType": "uint8",
          "name": "",
          "type": "uint8"
        }
      ],
      "name": "Hit",
      "type": "event"
    },
    {
      "anonymous": false,
      "inputs": [
        {
          "indexed": false,
          "internalType": "uint8",
          "name": "",
          "type": "uint8"
        },
        {
          "indexed": false,
          "internalType": "uint8",
          "name": "",
          "type": "uint8"
        }
      ],
      "name": "Loss",
      "type": "event"
    },
    {
      "anonymous": false,
      "inputs": [
        {
          "indexed": true,
          "internalType": "address",
          "name": "previousOwner",
          "type": "address"
        },
        {
          "indexed": true,
          "internalType": "address",
          "name": "newOwner",
          "type": "address"
        }
      ],
      "name": "OwnershipTransferred",
      "type": "event"
    },
    {
      "anonymous": false,
      "inputs": [
        {
          "indexed": false,
          "internalType": "uint256",
          "name": "",
          "type": "uint256"
        }
      ],
      "name": "Paid",
      "type": "event"
    },
    {
      "anonymous": false,
      "inputs": [
        {
          "indexed": false,
          "internalType": "uint8",
          "name": "",
          "type": "uint8"
        }
      ],
      "name": "PlayerBlackjack",
      "type": "event"
    },
    {
      "anonymous": false,
      "inputs": [
        {
          "indexed": false,
          "internalType": "uint8",
          "name": "",
          "type": "uint8"
        },
        {
          "indexed": false,
          "internalType": "uint8",
          "name": "",
          "type": "uint8"
        }
      ],
      "name": "Push",
      "type": "event"
    },
    {
      "anonymous": false,
      "inputs": [
        {
          "indexed": false,
          "internalType": "uint8",
          "name": "",
          "type": "uint8"
        }
      ],
      "name": "Split",
      "type": "event"
    },
    {
      "anonymous": false,
      "inputs": [
        {
          "indexed": false,
          "internalType": "uint8",
          "name": "",
          "type": "uint8"
        },
        {
          "indexed": false,
          "internalType": "uint8",
          "name": "",
          "type": "uint8"
        }
      ],
      "name": "Win",
      "type": "event"
    },
    {
      "inputs": [
        {
          "internalType": "uint8[]",
          "name": "_cards",
          "type": "uint8[]"
        },
        {
          "internalType": "uint8",
          "name": "handNum",
          "type": "uint8"
        }
      ],
      "name": "addPlayerCards",
      "outputs": [],
      "stateMutability": "nonpayable",
      "type": "function"
    },
    {
      "inputs": [],
      "name": "dealer",
      "outputs": [
        {
          "internalType": "contract Dealer",
          "name": "",
          "type": "address"
        }
      ],
      "stateMutability": "view",
      "type": "function"
    },
    {
      "inputs": [
        {
          "internalType": "uint8",
          "name": "handNum",
          "type": "uint8"
        }
      ],
      "name": "doubleDown",
      "outputs": [],
      "stateMutability": "payable",
      "type": "function"
    },
    {
      "inputs": [],
      "name": "gameData",
      "outputs": [
        {
          "internalType": "uint256",
          "name": "betAmount",
          "type": "uint256"
        },
        {
          "components": [
            {
              "internalType": "uint256",
              "name": "doubleDownAmount",
              "type": "uint256"
            },
            {
              "internalType": "uint8[]",
              "name": "cards",
              "type": "uint8[]"
            },
            {
              "internalType": "bool",
              "name": "soft",
              "type": "bool"
            },
            {
              "internalType": "bool",
              "name": "firstTurn",
              "type": "bool"
            },
            {
              "internalType": "bool",
              "name": "splitAces",
              "type": "bool"
            },
            {
              "internalType": "bool",
              "name": "busted",
              "type": "bool"
            },
            {
              "internalType": "bool",
              "name": "finished",
              "type": "bool"
            }
          ],
          "internalType": "struct Blackjack.Hand",
          "name": "dealerHand",
          "type": "tuple"
        },
        {
          "internalType": "uint8",
          "name": "nextOpenHandSlot",
          "type": "uint8"
        },
        {
          "internalType": "bool",
          "name": "insurance",
          "type": "bool"
        }
      ],
      "stateMutability": "view",
      "type": "function"
    },
    {
      "inputs": [],
      "name": "getBetAmount",
      "outputs": [
        {
          "internalType": "uint256",
          "name": "",
          "type": "uint256"
        }
      ],
      "stateMutability": "view",
      "type": "function"
    },
    {
      "inputs": [
        {
          "internalType": "uint8",
          "name": "handNum",
          "type": "uint8"
        }
      ],
      "name": "getCardsFromHand",
      "outputs": [
        {
          "internalType": "uint8[]",
          "name": "",
          "type": "uint8[]"
        }
      ],
      "stateMutability": "view",
      "type": "function"
    },
    {
      "inputs": [],
      "name": "getDealerCards",
      "outputs": [
        {
          "internalType": "uint8[]",
          "name": "",
          "type": "uint8[]"
        }
      ],
      "stateMutability": "view",
      "type": "function"
    },
    {
      "inputs": [
        {
          "internalType": "uint8",
          "name": "handNum",
          "type": "uint8"
        },
        {
          "internalType": "bool",
          "name": "_dealer",
          "type": "bool"
        }
      ],
      "name": "getHandSum",
      "outputs": [
        {
          "internalType": "uint8",
          "name": "",
          "type": "uint8"
        }
      ],
      "stateMutability": "nonpayable",
      "type": "function"
    },
    {
      "inputs": [],
      "name": "getHands",
      "outputs": [
        {
          "components": [
            {
              "internalType": "uint256",
              "name": "doubleDownAmount",
              "type": "uint256"
            },
            {
              "internalType": "uint8[]",
              "name": "cards",
              "type": "uint8[]"
            },
            {
              "internalType": "bool",
              "name": "soft",
              "type": "bool"
            },
            {
              "internalType": "bool",
              "name": "firstTurn",
              "type": "bool"
            },
            {
              "internalType": "bool",
              "name": "splitAces",
              "type": "bool"
            },
            {
              "internalType": "bool",
              "name": "busted",
              "type": "bool"
            },
            {
              "internalType": "bool",
              "name": "finished",
              "type": "bool"
            }
          ],
          "internalType": "struct Blackjack.Hand[4]",
          "name": "",
          "type": "tuple[4]"
        }
      ],
      "stateMutability": "view",
      "type": "function"
    },
    {
      "inputs": [],
      "name": "getInsurance",
      "outputs": [
        {
          "internalType": "bool",
          "name": "",
          "type": "bool"
        }
      ],
      "stateMutability": "view",
      "type": "function"
    },
    {
      "inputs": [],
      "name": "getNextOpenHandSlot",
      "outputs": [
        {
          "internalType": "uint8",
          "name": "",
          "type": "uint8"
        }
      ],
      "stateMutability": "view",
      "type": "function"
    },
    {
      "inputs": [
        {
          "internalType": "bool",
          "name": "_insurance",
          "type": "bool"
        },
        {
          "internalType": "uint8",
          "name": "handNum",
          "type": "uint8"
        }
      ],
      "name": "hit",
      "outputs": [
        {
          "internalType": "uint8",
          "name": "",
          "type": "uint8"
        }
      ],
      "stateMutability": "payable",
      "type": "function"
    },
    {
      "inputs": [
        {
          "internalType": "bool",
          "name": "_h0",
          "type": "bool"
        },
        {
          "internalType": "bool",
          "name": "_h1",
          "type": "bool"
        },
        {
          "internalType": "bool",
          "name": "_h2",
          "type": "bool"
        },
        {
          "internalType": "bool",
          "name": "_h3",
          "type": "bool"
        }
      ],
      "name": "markFinished",
      "outputs": [],
      "stateMutability": "nonpayable",
      "type": "function"
    },
    {
      "inputs": [],
      "name": "owner",
      "outputs": [
        {
          "internalType": "address",
          "name": "",
          "type": "address"
        }
      ],
      "stateMutability": "view",
      "type": "function"
    },
    {
      "inputs": [],
      "name": "paidOut",
      "outputs": [
        {
          "internalType": "bool",
          "name": "",
          "type": "bool"
        }
      ],
      "stateMutability": "view",
      "type": "function"
    },
    {
      "inputs": [],
      "name": "player",
      "outputs": [
        {
          "internalType": "address",
          "name": "",
          "type": "address"
        }
      ],
      "stateMutability": "view",
      "type": "function"
    },
    {
      "inputs": [],
      "name": "renounceOwnership",
      "outputs": [],
      "stateMutability": "nonpayable",
      "type": "function"
    },
    {
      "inputs": [
        {
          "internalType": "uint8",
          "name": "_card1",
          "type": "uint8"
        },
        {
          "internalType": "uint8",
          "name": "_card2",
          "type": "uint8"
        }
      ],
      "name": "setDealerCards",
      "outputs": [],
      "stateMutability": "nonpayable",
      "type": "function"
    },
    {
      "inputs": [
        {
          "internalType": "uint8",
          "name": "_card1",
          "type": "uint8"
        },
        {
          "internalType": "uint8",
          "name": "_card2",
          "type": "uint8"
        },
        {
          "internalType": "uint8",
          "name": "handNum",
          "type": "uint8"
        }
      ],
      "name": "setPlayerCards",
      "outputs": [],
      "stateMutability": "nonpayable",
      "type": "function"
    },
    {
      "inputs": [
        {
          "internalType": "uint8",
          "name": "handNum",
          "type": "uint8"
        }
      ],
      "name": "split",
      "outputs": [],
      "stateMutability": "payable",
      "type": "function"
    },
    {
      "inputs": [
        {
          "internalType": "bool",
          "name": "_insurance",
          "type": "bool"
        }
      ],
      "name": "stand",
      "outputs": [],
      "stateMutability": "payable",
      "type": "function"
    },
    {
      "inputs": [
        {
          "internalType": "address",
          "name": "newOwner",
          "type": "address"
        }
      ],
      "name": "transferOwnership",
      "outputs": [],
      "stateMutability": "nonpayable",
      "type": "function"
    },
    {
      "inputs": [],
      "name": "vault",
      "outputs": [
        {
          "internalType": "contract Vault",
          "name": "",
          "type": "address"
        }
      ],
      "stateMutability": "view",
      "type": "function"
    }
  ],
  "bytecode": {
    "object": "0x60806040526040516200398c3803806200398c8339810160408190526200002691620002a7565b62000031336200023e565b60003411620000865760405162461bcd60e51b815260206004820152601d60248201527f4e65656420746f20706c61636520616e20696e697469616c2062657421000000604482015260640160405180910390fd5b601380546001600160a01b038085166001600160a01b0319928316179092556012805492841692821683179055601480549091163317905560408051635ec01e4d60e01b8152905160009291635ec01e4d916004808301926020929190829003018187875af1158015620000fe573d6000803e3d6000fd5b505050506040513d601f19601f82011682018060405250810190620001249190620002e6565b60028054600180820183557f405787fa12a823e0f2b7631cc41b3ba8828b3321ca811111fa75cd3aa3bb5ace602080840482018054601f95861661010090810a60ff81810219909316600d808c06890185169290920217909355600f80548088019091557f8d1108e10bcb7c27dddfc02ed9d693a074039d026cf4ea4240b40f7d581ac80285820401805460648c0486900689018516928a16840a92830292850219169190911790558754808701895560009890985292870490930180546127109098048290068501841696909516820a95860295909202199095169390931790915534909155601180546003805461ff00191690941790935561ffff1990921617905550506014805460ff60a01b191690555062000300565b600080546001600160a01b038381166001600160a01b0319831681178455604051919092169283917f8be0079c531659141344cd1fd0a4f28419497f9722a3daafe3b4186f6b6457e09190a35050565b6001600160a01b0381168114620002a457600080fd5b50565b60008060408385031215620002bb57600080fd5b8251620002c8816200028e565b6020840151909250620002db816200028e565b809150509250929050565b600060208284031215620002f957600080fd5b5051919050565b61367c80620003106000396000f3fe6080604052600436106101405760003560e01c8063720d984e116100b6578063b2c836d31161006f578063b2c836d314610359578063e8fa988d146103c6578063f2fde38b146103e8578063fa24f74314610408578063fbfa77cf1461042d578063fde41e291461044d57600080fd5b8063720d984e146102c05780637b2f76a7146102d35780638da5cb5b146102f35780639648380c14610311578063974ee4d8146103245780639de2ee211461033957600080fd5b806340e2e20c1161010857806340e2e20c146101ed57806348db5f891461020d5780635a20d60b146102455780635c76ca2d146102725780635db060ee14610293578063715018a6146102ab57600080fd5b80631707ea98146101455780631d6c4e3b146101675780631ef44aed14610187578063267a8da01461019a57806334e6a776146101c8575b600080fd5b34801561015157600080fd5b50610165610160366004613172565b61046b565b005b34801561017357600080fd5b506101656101823660046131a5565b6104ff565b610165610195366004613229565b61059b565b3480156101a657600080fd5b50601154610100900460ff165b60405190151581526020015b60405180910390f35b6101db6101d636600461325b565b610c7c565b60405160ff90911681526020016101bf565b3480156101f957600080fd5b50610165610208366004613277565b61130a565b34801561021957600080fd5b5060145461022d906001600160a01b031681565b6040516001600160a01b0390911681526020016101bf565b34801561025157600080fd5b50610265610260366004613229565b6113c6565b6040516101bf91906132b1565b34801561027e57600080fd5b506014546101b390600160a01b900460ff1681565b34801561029f57600080fd5b5060115460ff166101db565b3480156102b757600080fd5b50610165611459565b6101656102ce366004613229565b61146d565b3480156102df57600080fd5b506101db6102ee3660046132f8565b611777565b3480156102ff57600080fd5b506000546001600160a01b031661022d565b61016561031f366004613322565b611b6c565b34801561033057600080fd5b506102656121a3565b34801561034557600080fd5b5060125461022d906001600160a01b031681565b34801561036557600080fd5b5061016561037436600461333d565b6003805464ff0000000019908116600160201b96151587021790915560068054821694151586029490941790935560098054921515850292841692909217909155600c80549115159093029116179055565b3480156103d257600080fd5b506103db612218565b6040516101bf9190613455565b3480156103f457600080fd5b506101656104033660046134a2565b61233c565b34801561041457600080fd5b5061041d6123b5565b6040516101bf94939291906134cb565b34801561043957600080fd5b5060135461022d906001600160a01b031681565b34801561045957600080fd5b50600d546040519081526020016101bf565b600f8054839190600090610481576104816134ff565b6000918252602080832081830401805460ff958616601f94851661010090810a9182029188021990921617909155600f805460018101825594529083047f8d1108e10bcb7c27dddfc02ed9d693a074039d026cf4ea4240b40f7d581ac80201805495851693909216900a918202919092021990921691909117905550565b60005b8281101561059557600160ff831660048110610520576105206134ff565b60030201600101848483818110610539576105396134ff565b905060200201602081019061054e9190613229565b81546001810183556000928352602092839020928104909201805460ff928316601f9094166101000a938402929093021990921617905561058e8161352b565b9050610502565b50505050565b6014546001600160a01b031633146105ce5760405162461bcd60e51b81526004016105c590613544565b60405180910390fd5b806000600160ff8316600481106105e7576105e76134ff565b600302016040518060e0016040529081600082015481526020016001820180548060200260200160405190810160405280929190818152602001828054801561066d57602002820191906000526020600020906000905b825461010083900a900460ff1681526020600192830181810494850194909303909202910180841161063e5790505b50505091835250506002919091015460ff8082161515602080850191909152610100830482161515604085015262010000830482161515606085015263010000008304821615156080850152600160201b90920416151560a09092019190915281015151909150158015906106e457508060c00151155b61071f5760405162461bcd60e51b815260206004820152600c60248201526b12185b99081a5b9d985b1a5960a21b60448201526064016105c5565b6000600160ff851660048110610737576107376134ff565b600302016001018054806020026020016040519081016040528092919081815260200182805480156107a657602002820191906000526020600020906000905b825461010083900a900460ff168152602060019283018181049485019490930390920291018084116107775790505b50505050509050806001815181106107c0576107c06134ff565b602002602001015160ff16816000815181106107de576107de6134ff565b602002602001015160ff161461082c5760405162461bcd60e51b8152602060048201526013602482015272139959590818481c185a5c881a5b881a185b99606a1b60448201526064016105c5565b600d54341461087d5760405162461bcd60e51b815260206004820152601a60248201527f4e65656420746f206d61746368206f726967696e616c2062657400000000000060448201526064016105c5565b601154600460ff909116106108d45760405162461bcd60e51b815260206004820152601c60248201527f43616e206f6e6c792073706c697420746f20666f75722068616e64730000000060448201526064016105c5565b60125460408051635ec01e4d60e01b815290516000926001600160a01b031691635ec01e4d916004808301926020929190829003018187875af115801561091f573d6000803e3d6000fd5b505050506040513d601f19601f82011682018060405250810190610943919061357b565b90506000610952600d836135aa565b61095d9060016135be565b905080600160ff881660048110610976576109766134ff565b6003020160010160018154811061098f5761098f6134ff565b90600052602060002090602091828204019190066101000a81548160ff021916908360ff1602179055506000836000815181106109ce576109ce6134ff565b602002602001015160ff1660011490508060016000018860ff16600481106109f8576109f86134ff565b6003020160020160026101000a81548160ff0219169083151502179055506000600267ffffffffffffffff811115610a3257610a326135d1565b604051908082528060200260200182016040528015610a5b578160200160208202803683370190505b5090506000600d610a6d6064876135e7565b610a7791906135aa565b610a829060016135be565b905085600181518110610a9757610a976134ff565b602002602001015182600081518110610ab257610ab26134ff565b602002602001019060ff16908160ff16815250508082600181518110610ada57610ada6134ff565b60ff9283166020918202929092018101919091526040805160e0810182526000808252928101869052908101829052600160608201819052861515608083015260a0820183905260c0820183905260118054929491939290911691610b3e836135fb565b91906101000a81548160ff021916908360ff16021790555060ff1660048110610b6957610b696134ff565b60030201600082015181600001556020820151816001019080519060200190610b93929190613046565b506040820151600290910180546060840151608085015160a086015160c0909601511515600160201b0264ff000000001996151563010000000263ff0000001992151562010000029290921663ffff0000199315156101000261ff00199715159790971661ffff1990951694909417959095179190911691909117179290921617905585517f738fbb20ac06733db9d189b456de5d77d03f3f832ea1da86c2a1569fbfd711c6908790600090610c4b57610c4b6134ff565b6020026020010151604051610c69919060ff91909116815260200190565b60405180910390a1505050505050505050565b6014546000906001600160a01b03163314610ca95760405162461bcd60e51b81526004016105c590613544565b816000600160ff831660048110610cc257610cc26134ff565b600302016040518060e00160405290816000820154815260200160018201805480602002602001604051908101604052809291908181526020018280548015610d4857602002820191906000526020600020906000905b825461010083900a900460ff16815260206001928301818104948501949093039092029101808411610d195790505b50505091835250506002919091015460ff8082161515602080850191909152610100830482161515604085015262010000830482161515606085015263010000008304821615156080850152600160201b90920416151560a0909201919091528101515190915015801590610dbf57508060c00151155b610dfa5760405162461bcd60e51b815260206004820152600c60248201526b12185b99081a5b9d985b1a5960a21b60448201526064016105c5565b836000600160ff831660048110610e1357610e136134ff565b600302016040518060e00160405290816000820154815260200160018201805480602002602001604051908101604052809291908181526020018280548015610e9957602002820191906000526020600020906000905b825461010083900a900460ff16815260206001928301818104948501949093039092029101808411610e6a5790505b50505091835250506002919091015460ff8082161515602084015261010082048116151560408401526201000082048116151560608401526301000000820481161515608080850191909152600160201b90920416151560a0909201919091528101519091508015610f1057508060200151516003145b15610f6c5760405162461bcd60e51b815260206004820152602660248201527f43616e277420686974206f6e2073706c69742061636573206d6f7265207468616044820152656e206f6e636560d01b60648201526084016105c5565b8060200151516003148015610f815750805115155b15610fe25760405162461bcd60e51b815260206004820152602b60248201527f43616e6e6f7420686974206d6f7265207468616e206f6e6365206f6e2061206460448201526a1bdd589b1959081a185b9960aa1b60648201526084016105c5565b8615610ff057610ff06124a3565b6000600160ff881660048110611008576110086134ff565b6003020160020160016101000a81548160ff0219169083151502179055506000600d601260009054906101000a90046001600160a01b03166001600160a01b0316635ec01e4d6040518163ffffffff1660e01b81526004016020604051808303816000875af115801561107f573d6000803e3d6000fd5b505050506040513d601f19601f820116820180604052508101906110a3919061357b565b6110ad91906135aa565b6110b890600161361a565b9050600160ff8816600481106110d0576110d06134ff565b6003020160019081018054918201815560009081526020808220908304018054601f9093166101000a60ff818102199094169385160292909217909155611118908890612732565b15611213577f41536a13788d0a4d884f225410b48ee888ce1f244032a29783f74f321a88cd5f87600160ff821660048110611155576111556134ff565b6003020160010160018154811061116e5761116e6134ff565b90600052602060002090602091828204019190069054906101000a900460ff1660016000018a60ff16600481106111a7576111a76134ff565b600302016001016000815481106111c0576111c06134ff565b90600052602060002090602091828204019190069054906101000a900460ff16846111eb919061361a565b6111f5919061361a565b6040805160ff93841681529290911660208301520160405180910390a15b7f76f79ba55614c6fd9a839698f6674fd0a80c3988d6594633c95fdd63814f676e600160ff89166004811061124a5761124a6134ff565b60030201600101600181548110611263576112636134ff565b90600052602060002090602091828204019190069054906101000a900460ff1660016000018960ff166004811061129c5761129c6134ff565b600302016001016000815481106112b5576112b56134ff565b90600052602060002090602091828204019190069054906101000a900460ff16836112e0919061361a565b6112ea919061361a565b60405160ff909116815260200160405180910390a1979650505050505050565b82600160ff831660048110611321576113216134ff565b6003020160010160008154811061133a5761133a6134ff565b90600052602060002090602091828204019190066101000a81548160ff021916908360ff1602179055508160016000018260ff166004811061137e5761137e6134ff565b60030201600101600181548110611397576113976134ff565b90600052602060002090602091828204019190066101000a81548160ff021916908360ff160217905550505050565b6060600160ff8316600481106113de576113de6134ff565b6003020160010180548060200260200160405190810160405280929190818152602001828054801561144d57602002820191906000526020600020906000905b825461010083900a900460ff1681526020600192830181810494850194909303909202910180841161141e5790505b50505050509050919050565b6114616127b1565b61146b600061280b565b565b60408051610120810190915260009060018160a0810182600486835b82821015611589578382600302016040518060e0016040529081600082015481526020016001820180548060200260200160405190810160405280929190818152602001828054801561151957602002820191906000526020600020906000905b825461010083900a900460ff168152602060019283018181049485019490930390920291018084116114ea5790505b50505091835250506002919091015460ff8082161515602080850191909152610100830482161515604085015262010000830482161515606085015263010000008304821615156080850152600160201b90920416151560a0909201919091529082526001929092019101611489565b505050508152602001600c8201548152602001600d82016040518060e0016040529081600082015481526020016001820180548060200260200160405190810160405280929190818152602001828054801561162257602002820191906000526020600020906000905b825461010083900a900460ff168152602060019283018181049485019490930390920291018084116115f35790505b50505091835250506002919091015460ff80821615156020808501919091526101008084048316151560408087019190915262010000850484161515606087015263010000008504841615156080870152600160201b9094048316151560a090950194909452938552601095909501548086169385019390935291049092161515910152905060006116b48382611777565b825190915060ff8416600481106116cd576116cd6134ff565b602002015160600151801561170d575060208201518251349060ff8616600481106116fa576116fa6134ff565b60200201515161170a91906135be565b11155b801561171d5750600b8160ff1611155b801561172d575060098160ff1610155b80156117395750600034115b61174257600080fd5b34600160ff851660048110611759576117596134ff565b60030201805460009061176d9084906135be565b9091555050505050565b604080516101208101909152600090819060018160a0810182600486835b82821015611895578382600302016040518060e0016040529081600082015481526020016001820180548060200260200160405190810160405280929190818152602001828054801561182557602002820191906000526020600020906000905b825461010083900a900460ff168152602060019283018181049485019490930390920291018084116117f65790505b50505091835250506002919091015460ff8082161515602080850191909152610100830482161515604085015262010000830482161515606085015263010000008304821615156080850152600160201b90920416151560a0909201919091529082526001929092019101611795565b505050508152602001600c8201548152602001600d82016040518060e0016040529081600082015481526020016001820180548060200260200160405190810160405280929190818152602001828054801561192e57602002820191906000526020600020906000905b825461010083900a900460ff168152602060019283018181049485019490930390920291018084116118ff5790505b50505091835250506002919091015460ff80821615156020808501919091526101008084048316151560408087019190915262010000850484161515606087015263010000008504841615156080870152600160201b9094048316151560a0909501949094529385526010959095015480861693850193909352910490921615159101529050600080846119e057825160ff8716600481106119d2576119d26134ff565b6020020151602001516119ea565b8260400151602001515b80519091506000805b8260ff16811015611a71576000848281518110611a1257611a126134ff565b602002602001015190508060ff16600114611a5457600a8160ff161015611a4257611a3d818761361a565b611a4d565b611a4d86600a61361a565b9550611a60565b611a5d836135fb565b92505b50611a6a8161352b565b90506119f3565b508360005b8260ff16811015611ae85760156001611a928360ff8716613633565b611a9c9190613633565b611aa788600b61361a565b60ff16611ab491906135be565b1115611aca57611ac3866135fb565b9550611ad8565b611ad5600b8761361a565b95505b611ae18161352b565b9050611a76565b506000808360ff16118015611b0c5750611b02838361361a565b60ff168660ff1614155b905088611b4d5780600160ff8c1660048110611b2a57611b2a6134ff565b6003020160020160006101000a81548160ff021916908315150217905550611b5c565b6010805460ff19168215151790555b5093955050505050505b92915050565b6014546001600160a01b03163314611b965760405162461bcd60e51b81526004016105c590613544565b60408051610120810190915260009060018160a0810182600486835b82821015611cb2578382600302016040518060e00160405290816000820154815260200160018201805480602002602001604051908101604052809291908181526020018280548015611c4257602002820191906000526020600020906000905b825461010083900a900460ff16815260206001928301818104948501949093039092029101808411611c135790505b50505091835250506002919091015460ff8082161515602080850191909152610100830482161515604085015262010000830482161515606085015263010000008304821615156080850152600160201b90920416151560a0909201919091529082526001929092019101611bb2565b505050508152602001600c8201548152602001600d82016040518060e00160405290816000820154815260200160018201805480602002602001604051908101604052809291908181526020018280548015611d4b57602002820191906000526020600020906000905b825461010083900a900460ff16815260206001928301818104948501949093039092029101808411611d1c5790505b50505091835250506002919091015460ff80821615156020808501919091526101008084048316151560408087019190915262010000850484161515606087015263010000008504841615156080870152600160201b9094048316151560a090950194909452938552601095909501548086169385019390935291049092161515910152905060005b816060015160ff16811015611e5b5781518160048110611df657611df66134ff565b602002015160c00151611e4b5760405162461bcd60e51b815260206004820152601b60248201527f4e6f7420616c6c2068616e6473206172652066696e697368656421000000000060448201526064016105c5565b611e548161352b565b9050611dd4565b508115611e6a57611e6a6124a3565b60125460408051635ec01e4d60e01b815290516000926001600160a01b031691635ec01e4d916004808301926020929190829003018187875af1158015611eb5573d6000803e3d6000fd5b505050506040513d601f19601f82011682018060405250810190611ed9919061357b565b90506000611ee960006001611777565b9050611ef361285b565b611fc4575b60158160ff1611611fc45760128160ff16101580611f2757508060ff166011148015611f27575060105460ff16155b611fc4576000600d611f3a6064856135aa565b611f4491906135aa565b611f4f9060016135be565b9050611f5c6064846135e7565b600f8054600181810183556000928352602082047f8d1108e10bcb7c27dddfc02ed9d693a074039d026cf4ea4240b40f7d581ac80201805460ff808816601f9095166101000a9485029402191692909217909155919450611fbc91611777565b915050611ef8565b6000805b846060015160ff168160ff16101561219257611fe5816000611777565b915060158260ff161115612035576040805160ff8084168252841660208201527f8f5ad994571b74a184999f401db654a36da7f6509445622f8fc202553e74c67b910160405180910390a1612182565b845160009060ff83166004811061204e5761204e6134ff565b602002015190151560609091015260ff808316908416036120ac576040805160ff8084168252841660208201527fa178ea6eac46563a37bb946560ca4fc6dbe8a01cccece492a5e2c3ebde64606891015b60405180910390a1612140565b60158360ff1611806120c357508260ff168260ff16115b15612102576040805160ff8084168252841660208201527fea532b028595ca31cd96503d39a9745a409f96c6c31ab0e0e7e5879efd58e9c6910161209f565b6040805160ff8084168252841660208201527f8f5ad994571b74a184999f401db654a36da7f6509445622f8fc202553e74c67b910160405180910390a15b8160ff166015036121825760405160ff821681527fb39e11924e83f1560d7f5a3b9ea63e91876a0cae8009c1cb7dd09ec32d85fc009060200160405180910390a15b61218b816135fb565b9050611fc8565b5061219c82612af8565b5050505050565b600f8054604080516020808402820181019092528281526060939092909183018282801561220e57602002820191906000526020600020906000905b825461010083900a900460ff168152602060019283018181049485019490930390920291018084116121df5790505b5050505050905090565b6122206130ec565b6040805160808101909152600160046000835b82821015612333578382600302016040518060e001604052908160008201548152602001600182018054806020026020016040519081016040528092919081815260200182805480156122c357602002820191906000526020600020906000905b825461010083900a900460ff168152602060019283018181049485019490930390920291018084116122945790505b50505091835250506002919091015460ff8082161515602080850191909152610100830482161515604085015262010000830482161515606085015263010000008304821615156080850152600160201b90920416151560a0909201919091529082526001929092019101612233565b50505050905090565b6123446127b1565b6001600160a01b0381166123a95760405162461bcd60e51b815260206004820152602660248201527f4f776e61626c653a206e6577206f776e657220697320746865207a65726f206160448201526564647265737360d01b60648201526084016105c5565b6123b28161280b565b50565b600d546040805160e081018252600e80548252600f805484516020828102820181019096528181526001958086019391929083018282801561243457602002820191906000526020600020906000905b825461010083900a900460ff168152602060019283018181049485019490930390920291018084116124055790505b50505091835250506002919091015460ff8082161515602084015261010080830482161515604085015262010000830482161515606085015263010000008304821615156080850152600160201b9092048116151560a090930192909252601090930154919282821692041684565b60408051610120810190915260009060018160a0810182600486835b828210156125bf578382600302016040518060e0016040529081600082015481526020016001820180548060200260200160405190810160405280929190818152602001828054801561254f57602002820191906000526020600020906000905b825461010083900a900460ff168152602060019283018181049485019490930390920291018084116125205790505b50505091835250506002919091015460ff8082161515602080850191909152610100830482161515604085015262010000830482161515606085015263010000008304821615156080850152600160201b90920416151560a09092019190915290825260019290920191016124bf565b505050508152602001600c8201548152602001600d82016040518060e0016040529081600082015481526020016001820180548060200260200160405190810160405280929190818152602001828054801561265857602002820191906000526020600020906000905b825461010083900a900460ff168152602060019283018181049485019490930390920291018084116126295790505b50505091835250506002919091015460ff80821615156020808501919091526101008084048316151560408087019190915262010000850484161515606087015263010000008504841615156080870152600160201b9094048316151560a0909501949094529385526010959095015480861685850152919091049093161515918301919091529082015101518051919250906000906126fa576126fa6134ff565b602002602001015160ff1660011480156127175750806020015134145b61272057600080fd5b506011805461ff001916610100179055565b600060156127408484611777565b60ff161160016000018460ff166004811061275d5761275d6134ff565b6003020160020160036101000a81548160ff02191690831515021790555060016000018360ff1660048110612794576127946134ff565b6003020160020160039054906101000a900460ff16905092915050565b6000546001600160a01b0316331461146b5760405162461bcd60e51b815260206004820181905260248201527f4f776e61626c653a2063616c6c6572206973206e6f7420746865206f776e657260448201526064016105c5565b600080546001600160a01b038381166001600160a01b0319831681178455604051919092169283917f8be0079c531659141344cd1fd0a4f28419497f9722a3daafe3b4186f6b6457e09190a35050565b604080516101208101909152600090819060018160a0810182600486835b82821015612979578382600302016040518060e0016040529081600082015481526020016001820180548060200260200160405190810160405280929190818152602001828054801561290957602002820191906000526020600020906000905b825461010083900a900460ff168152602060019283018181049485019490930390920291018084116128da5790505b50505091835250506002919091015460ff8082161515602080850191909152610100830482161515604085015262010000830482161515606085015263010000008304821615156080850152600160201b90920416151560a0909201919091529082526001929092019101612879565b505050508152602001600c8201548152602001600d82016040518060e00160405290816000820154815260200160018201805480602002602001604051908101604052809291908181526020018280548015612a1257602002820191906000526020600020906000905b825461010083900a900460ff168152602060019283018181049485019490930390920291018084116129e35790505b50505091835250506002919091015460ff80821615156020808501919091526101008084048316151560408087019190915262010000850484161515606087015263010000008504841615156080870152600160201b9094048316151560a090950194909452938552601095909501548086169385019390935291049092161515910152905060005b816060015160ff16811015612aef5781516000908260048110612ac057612ac06134ff565b60200201519015801560a090920191909152612adf5760009250505090565b612ae88161352b565b9050612a9b565b50600191505090565b601454600160a01b900460ff1615612b525760405162461bcd60e51b815260206004820152601860248201527f506c6179657220616c72656164792070616964206f757421000000000000000060448201526064016105c5565b6014805460ff60a01b1916600160a01b17905560408051610120810190915260009060018160a0810182600486835b82821015612c81578382600302016040518060e00160405290816000820154815260200160018201805480602002602001604051908101604052809291908181526020018280548015612c1157602002820191906000526020600020906000905b825461010083900a900460ff16815260206001928301818104948501949093039092029101808411612be25790505b50505091835250506002919091015460ff8082161515602080850191909152610100830482161515604085015262010000830482161515606085015263010000008304821615156080850152600160201b90920416151560a0909201919091529082526001929092019101612b81565b505050508152602001600c8201548152602001600d82016040518060e00160405290816000820154815260200160018201805480602002602001604051908101604052809291908181526020018280548015612d1a57602002820191906000526020600020906000905b825461010083900a900460ff16815260206001928301818104948501949093039092029101808411612ceb5790505b50505091835250506002919091015460ff80821615156020808501919091526101008084048316151560408087019190915262010000850484161515606087015263010000008504841615156080870152600160201b9094048316151560a09095019490945293855260109590950154808616858501529190910490931615159190920152810151909150600080805b846060015160ff168160ff161015612ec557612dc7816000611777565b91508560ff168260ff16118015612de65750612de4816000612732565b155b15612e755760158260ff1611612e44578160ff166015148015612e285750845160ff821660048110612e1a57612e1a6134ff565b602002015160200151516002145b612e3657600184901b612e3f565b600184901c6005025b830192505b845160019060ff831660048110612e5d57612e5d6134ff565b602002015151612e6e911b846135be565b9250612eb5565b8560ff168260ff1603612eb557845160ff821660048110612e9857612e986134ff565b602002015151612ea890856135be565b612eb290846135be565b92505b612ebe816135fb565b9050612daa565b50836040015160200151516002148015612ee257508460ff166015145b8015612eef575083608001515b15612f0557612f02600184901b836135be565b91505b6013546040516000916001600160a01b03169047908381818185875af1925050503d8060008114612f52576040519150601f19603f3d011682016040523d82523d6000602084013e612f57565b606091505b5050905080612f9c5760405162461bcd60e51b8152602060048201526011602482015270139bdd081cd95b9d081d1bc81d985d5b1d607a1b60448201526064016105c5565b821561303e576040518381527f581d416ae9dff30c9305c2b35cb09ed5991897ab97804db29ccf92678e9531609060200160405180910390a1601354601454604051634d1a8de160e01b8152600481018690526001600160a01b039182166024820152911690634d1a8de190604401600060405180830381600087803b15801561302557600080fd5b505af1158015613039573d6000803e3d6000fd5b505050505b505050505050565b82805482825590600052602060002090601f016020900481019282156130dc5791602002820160005b838211156130ad57835183826101000a81548160ff021916908360ff160217905550926020019260010160208160000104928301926001030261306f565b80156130da5782816101000a81549060ff02191690556001016020816000010492830192600103026130ad565b505b506130e8929150613147565b5090565b60405180608001604052806004905b6040805160e08101825260008082526060602080840182905293830182905282018190526080820181905260a0820181905260c082015282526000199092019101816130fb5790505090565b5b808211156130e85760008155600101613148565b803560ff8116811461316d57600080fd5b919050565b6000806040838503121561318557600080fd5b61318e8361315c565b915061319c6020840161315c565b90509250929050565b6000806000604084860312156131ba57600080fd5b833567ffffffffffffffff808211156131d257600080fd5b818601915086601f8301126131e657600080fd5b8135818111156131f557600080fd5b8760208260051b850101111561320a57600080fd5b602092830195509350613220918601905061315c565b90509250925092565b60006020828403121561323b57600080fd5b6132448261315c565b9392505050565b8035801515811461316d57600080fd5b6000806040838503121561326e57600080fd5b61318e8361324b565b60008060006060848603121561328c57600080fd5b6132958461315c565b92506132a36020850161315c565b91506132206040850161315c565b6020808252825182820181905260009190848201906040850190845b818110156132ec57835160ff16835292840192918401916001016132cd565b50909695505050505050565b6000806040838503121561330b57600080fd5b6133148361315c565b915061319c6020840161324b565b60006020828403121561333457600080fd5b6132448261324b565b6000806000806080858703121561335357600080fd5b61335c8561324b565b935061336a6020860161324b565b92506133786040860161324b565b91506133866060860161324b565b905092959194509250565b600060e083018251845260208084015160e082870152828151808552610100880191508383019450600092505b808310156133e157845160ff1682529383019360019290920191908301906133be565b50604086015193506133f7604088018515159052565b6060860151935061340c606088018515159052565b60808601519350613421608088018515159052565b60a0860151935061343660a088018515159052565b60c0860151935061344b60c088018515159052565b9695505050505050565b602080825260009060a0830183820185845b600481101561349657601f19878503018352613484848351613391565b93509184019190840190600101613467565b50919695505050505050565b6000602082840312156134b457600080fd5b81356001600160a01b038116811461324457600080fd5b8481526080602082015260006134e46080830186613391565b60ff9490941660408301525090151560609091015292915050565b634e487b7160e01b600052603260045260246000fd5b634e487b7160e01b600052601160045260246000fd5b60006001820161353d5761353d613515565b5060010190565b6020808252601f908201527f4d75737420626520706c6179657220746f2063616c6c2066756e6374696f6e00604082015260600190565b60006020828403121561358d57600080fd5b5051919050565b634e487b7160e01b600052601260045260246000fd5b6000826135b9576135b9613594565b500690565b80820180821115611b6657611b66613515565b634e487b7160e01b600052604160045260246000fd5b6000826135f6576135f6613594565b500490565b600060ff821660ff810361361157613611613515565b60010192915050565b60ff8181168382160190811115611b6657611b66613515565b81810381811115611b6657611b6661351556fea2646970667358221220f0ec54f8c4ad3f15dff15a21806a03786103ed8ab6f914f6973f271f46c412e664736f6c63430008150033",
    "linkReferences": {}
  },
  "methodIdentifiers": {
    "addPlayerCards(uint8[],uint8)": "1d6c4e3b",
    "dealer()": "9de2ee21",
    "doubleDown(uint8)": "720d984e",
    "gameData()": "fa24f743",
    "getBetAmount()": "fde41e29",
    "getCardsFromHand(uint8)": "5a20d60b",
    "getDealerCards()": "974ee4d8",
    "getHandSum(uint8,bool)": "7b2f76a7",
    "getHands()": "e8fa988d",
    "getInsurance()": "267a8da0",
    "getNextOpenHandSlot()": "5db060ee",
    "hit(bool,uint8)": "34e6a776",
    "markFinished(bool,bool,bool,bool)": "b2c836d3",
    "owner()": "8da5cb5b",
    "paidOut()": "5c76ca2d",
    "player()": "48db5f89",
    "renounceOwnership()": "715018a6",
    "setDealerCards(uint8,uint8)": "1707ea98",
    "setPlayerCards(uint8,uint8,uint8)": "40e2e20c",
    "split(uint8)": "1ef44aed",
    "stand(bool)": "9648380c",
    "transferOwnership(address)": "f2fde38b",
    "vault()": "fbfa77cf"
  },
  "id": 21
}