{
  "abi": [
    {
      "inputs": [
        {
          "internalType": "address",
          "name": "_vault",
          "type": "address"
        },
        {
          "internalType": "address",
          "name": "_dealer",
          "type": "address"
        }
      ],
      "stateMutability": "payable",
      "type": "constructor"
    },
    {
      "anonymous": false,
      "inputs": [
        {
          "indexed": false,
          "internalType": "uint8",
          "name": "",
          "type": "uint8"
        }
      ],
      "name": "Bust",
      "type": "event"
    },
    {
      "anonymous": false,
      "inputs": [
        {
          "indexed": false,
          "internalType": "uint8",
          "name": "",
          "type": "uint8"
        }
      ],
      "name": "Hit",
      "type": "event"
    },
    {
      "anonymous": false,
      "inputs": [
        {
          "indexed": false,
          "internalType": "uint8",
          "name": "",
          "type": "uint8"
        }
      ],
      "name": "Loss",
      "type": "event"
    },
    {
      "anonymous": false,
      "inputs": [
        {
          "indexed": true,
          "internalType": "address",
          "name": "previousOwner",
          "type": "address"
        },
        {
          "indexed": true,
          "internalType": "address",
          "name": "newOwner",
          "type": "address"
        }
      ],
      "name": "OwnershipTransferred",
      "type": "event"
    },
    {
      "anonymous": false,
      "inputs": [],
      "name": "Paid",
      "type": "event"
    },
    {
      "anonymous": false,
      "inputs": [],
      "name": "PlayerBlackjack",
      "type": "event"
    },
    {
      "anonymous": false,
      "inputs": [
        {
          "indexed": false,
          "internalType": "uint8",
          "name": "",
          "type": "uint8"
        }
      ],
      "name": "Push",
      "type": "event"
    },
    {
      "anonymous": false,
      "inputs": [],
      "name": "Split",
      "type": "event"
    },
    {
      "anonymous": false,
      "inputs": [
        {
          "indexed": false,
          "internalType": "uint8",
          "name": "",
          "type": "uint8"
        }
      ],
      "name": "Win",
      "type": "event"
    },
    {
      "inputs": [],
      "name": "dealer",
      "outputs": [
        {
          "internalType": "contract Dealer",
          "name": "",
          "type": "address"
        }
      ],
      "stateMutability": "view",
      "type": "function"
    },
    {
      "inputs": [],
      "name": "gameData",
      "outputs": [
        {
          "internalType": "uint256",
          "name": "betAmount",
          "type": "uint256"
        },
        {
          "components": [
            {
              "internalType": "uint8[]",
              "name": "cards",
              "type": "uint8[]"
            },
            {
              "internalType": "bool",
              "name": "soft",
              "type": "bool"
            },
            {
              "internalType": "bool",
              "name": "firstTurn",
              "type": "bool"
            },
            {
              "internalType": "bool",
              "name": "finished",
              "type": "bool"
            }
          ],
          "internalType": "struct Blackjack.Hand",
          "name": "dealerHand",
          "type": "tuple"
        },
        {
          "internalType": "uint8",
          "name": "nextOpenHandSlot",
          "type": "uint8"
        },
        {
          "internalType": "bool",
          "name": "insurance",
          "type": "bool"
        }
      ],
      "stateMutability": "view",
      "type": "function"
    },
    {
      "inputs": [],
      "name": "getBetAmount",
      "outputs": [
        {
          "internalType": "uint256",
          "name": "",
          "type": "uint256"
        }
      ],
      "stateMutability": "view",
      "type": "function"
    },
    {
      "inputs": [
        {
          "internalType": "uint8",
          "name": "handNum",
          "type": "uint8"
        }
      ],
      "name": "getCardsFromHand",
      "outputs": [
        {
          "internalType": "uint8[]",
          "name": "",
          "type": "uint8[]"
        }
      ],
      "stateMutability": "view",
      "type": "function"
    },
    {
      "inputs": [],
      "name": "getDealerCards",
      "outputs": [
        {
          "internalType": "uint8[]",
          "name": "",
          "type": "uint8[]"
        }
      ],
      "stateMutability": "view",
      "type": "function"
    },
    {
      "inputs": [],
      "name": "getHands",
      "outputs": [
        {
          "components": [
            {
              "internalType": "uint8[]",
              "name": "cards",
              "type": "uint8[]"
            },
            {
              "internalType": "bool",
              "name": "soft",
              "type": "bool"
            },
            {
              "internalType": "bool",
              "name": "firstTurn",
              "type": "bool"
            },
            {
              "internalType": "bool",
              "name": "finished",
              "type": "bool"
            }
          ],
          "internalType": "struct Blackjack.Hand[4]",
          "name": "",
          "type": "tuple[4]"
        }
      ],
      "stateMutability": "view",
      "type": "function"
    },
    {
      "inputs": [],
      "name": "getInsurance",
      "outputs": [
        {
          "internalType": "bool",
          "name": "",
          "type": "bool"
        }
      ],
      "stateMutability": "view",
      "type": "function"
    },
    {
      "inputs": [],
      "name": "getNextOpenHandSlot",
      "outputs": [
        {
          "internalType": "uint8",
          "name": "",
          "type": "uint8"
        }
      ],
      "stateMutability": "view",
      "type": "function"
    },
    {
      "inputs": [
        {
          "internalType": "bool",
          "name": "_insurance",
          "type": "bool"
        },
        {
          "internalType": "uint8",
          "name": "handNum",
          "type": "uint8"
        }
      ],
      "name": "hit",
      "outputs": [
        {
          "internalType": "uint8",
          "name": "",
          "type": "uint8"
        }
      ],
      "stateMutability": "payable",
      "type": "function"
    },
    {
      "inputs": [],
      "name": "owner",
      "outputs": [
        {
          "internalType": "address",
          "name": "",
          "type": "address"
        }
      ],
      "stateMutability": "view",
      "type": "function"
    },
    {
      "inputs": [],
      "name": "player",
      "outputs": [
        {
          "internalType": "address",
          "name": "",
          "type": "address"
        }
      ],
      "stateMutability": "view",
      "type": "function"
    },
    {
      "inputs": [],
      "name": "renounceOwnership",
      "outputs": [],
      "stateMutability": "nonpayable",
      "type": "function"
    },
    {
      "inputs": [
        {
          "internalType": "uint8",
          "name": "_card1",
          "type": "uint8"
        },
        {
          "internalType": "uint8",
          "name": "_card2",
          "type": "uint8"
        }
      ],
      "name": "setDealerCards",
      "outputs": [],
      "stateMutability": "nonpayable",
      "type": "function"
    },
    {
      "inputs": [
        {
          "internalType": "uint8",
          "name": "_card1",
          "type": "uint8"
        },
        {
          "internalType": "uint8",
          "name": "_card2",
          "type": "uint8"
        },
        {
          "internalType": "uint8",
          "name": "handNum",
          "type": "uint8"
        }
      ],
      "name": "setPlayerCards",
      "outputs": [],
      "stateMutability": "nonpayable",
      "type": "function"
    },
    {
      "inputs": [
        {
          "internalType": "uint8",
          "name": "handNum",
          "type": "uint8"
        }
      ],
      "name": "split",
      "outputs": [],
      "stateMutability": "payable",
      "type": "function"
    },
    {
      "inputs": [
        {
          "internalType": "uint8",
          "name": "handNum",
          "type": "uint8"
        }
      ],
      "name": "stand",
      "outputs": [],
      "stateMutability": "nonpayable",
      "type": "function"
    },
    {
      "inputs": [
        {
          "internalType": "address",
          "name": "newOwner",
          "type": "address"
        }
      ],
      "name": "transferOwnership",
      "outputs": [],
      "stateMutability": "nonpayable",
      "type": "function"
    },
    {
      "inputs": [],
      "name": "vault",
      "outputs": [
        {
          "internalType": "address",
          "name": "",
          "type": "address"
        }
      ],
      "stateMutability": "view",
      "type": "function"
    }
  ],
  "bytecode": {
    "object": "0x608060405260405162001db138038062001db183398101604081905262000026916200029a565b62000031336200022d565b60003411620000865760405162461bcd60e51b815260206004820152601d60248201527f4e65656420746f20706c61636520616e20696e697469616c2062657421000000604482015260640160405180910390fd5b600e80546001600160a01b038085166001600160a01b031992831617909255600d805492841692821683179055600f80549091163317905560408051635ec01e4d60e01b8152905160009291635ec01e4d916004808301926020929190829003018187875af1158015620000fe573d6000803e3d6000fd5b505050506040513d601f19601f82011682018060405250810190620001249190620002d2565b60018054808201825560208082047fb10e2d527612073b26eecdfd717e6a320cf44b4afac2b0732d9fcbe2b7fa0cf69081018054601f94851661010090810a60ff81810219909316600d808b068a0185169290920217909355600a80548089019091557fc65a7bb8d6351c1cf70c95a316cc6a92839c986682d98bc35f958f4883f9d2a886820401805460648b048690068a018516928916840a92830292850219169190911790558654808801885560008890529485049093018054612710909804929092068601811693909416820a928302929093021990941617905534600955600c80546002805461ff00191690941790935561ffff1990921617905550620002ec915050565b600080546001600160a01b038381166001600160a01b0319831681178455604051919092169283917f8be0079c531659141344cd1fd0a4f28419497f9722a3daafe3b4186f6b6457e09190a35050565b80516001600160a01b03811681146200029557600080fd5b919050565b60008060408385031215620002ae57600080fd5b620002b9836200027d565b9150620002c9602084016200027d565b90509250929050565b600060208284031215620002e557600080fd5b5051919050565b611ab580620002fc6000396000f3fe6080604052600436106101095760003560e01c8063715018a611610095578063e8fa988d11610064578063e8fa988d146102ba578063f2fde38b146102dc578063fa24f743146102fc578063fbfa77cf14610321578063fde41e291461034157600080fd5b8063715018a6146102525780638da5cb5b14610267578063974ee4d8146102855780639de2ee211461029a57600080fd5b806334e6a776116100dc57806334e6a7761461019057806340e2e20c146101b557806348db5f89146101d55780635a20d60b1461020d5780635db060ee1461023a57600080fd5b80630a2d343a1461010e5780631707ea98146101305780631ef44aed14610150578063267a8da014610163575b600080fd5b34801561011a57600080fd5b5061012e6101293660046116f8565b61035f565b005b34801561013c57600080fd5b5061012e61014b366004611713565b61063f565b61012e61015e3660046116f8565b6106d3565b34801561016f57600080fd5b50600c54610100900460ff1660405190151581526020015b60405180910390f35b6101a361019e366004611746565b610aea565b60405160ff9091168152602001610187565b3480156101c157600080fd5b5061012e6101d0366004611769565b610f16565b3480156101e157600080fd5b50600f546101f5906001600160a01b031681565b6040516001600160a01b039091168152602001610187565b34801561021957600080fd5b5061022d6102283660046116f8565b610fcc565b60405161018791906117ac565b34801561024657600080fd5b50600c5460ff166101a3565b34801561025e57600080fd5b5061012e611059565b34801561027357600080fd5b506000546001600160a01b03166101f5565b34801561029157600080fd5b5061022d61106d565b3480156102a657600080fd5b50600d546101f5906001600160a01b031681565b3480156102c657600080fd5b506102cf6110e2565b6040516101879190611868565b3480156102e857600080fd5b5061012e6102f73660046118b5565b6111d2565b34801561030857600080fd5b5061031161124b565b60405161018794939291906118de565b34801561032d57600080fd5b50600e546101f5906001600160a01b031681565b34801561034d57600080fd5b50600954604051908152602001610187565b600f546001600160a01b031633146103925760405162461bcd60e51b815260040161038990611912565b60405180910390fd5b80600160ff8216600481106103a9576103a9611949565b60020201546000036103cd5760405162461bcd60e51b81526004016103899061195f565b600d5460408051635ec01e4d60e01b815290516000926001600160a01b031691635ec01e4d916004808301926020929190829003018187875af1158015610418573d6000803e3d6000fd5b505050506040513d601f19601f8201168201806040525081019061043c9190611985565b9050600061044b84600061130d565b9050600061045b6000600161130d565b90505b6104696015836114ff565b60ff168160ff16116105345760128160ff1610158061049957508060ff1660111480156104995750600b5460ff16155b6105345760006104bf6104ad600d866119b4565b6104b89060016119de565b600a6114ff565b90506104cc6064856119f1565b600a8054600181810183556000928352602082047fc65a7bb8d6351c1cf70c95a316cc6a92839c986682d98bc35f958f4883f9d2a801805460ff808816601f9095166101000a948502940219169290921790915591955061052c9161130d565b91505061045e565b60158160ff16118061054b57508060ff168260ff16115b1561058c5760405160ff831681527f1bf0bb3b8aecbdd715eacadcfc823650fc174b037c21da88af0beb4f55bfe4e9906020015b60405180910390a1610603565b8160ff168160ff16036105cc5760405160ff831681527fb4891788e5aeae0a7c35bc54a5c88724c39b101c0efcbf08357254a031870b749060200161057f565b60405160ff831681527fdf7e02b4cc7d28bf9e9c21e7c83f9a8d0926b26168fdc0a43393fe57ddaed8289060200160405180910390a15b8160ff16601503610638576040517fac12b2cd30b1f4db38d94e07d1376d0a700299ee9f243744847703a0b55ef5af90600090a15b5050505050565b600a805483919060009061065557610655611949565b6000918252602080832081830401805460ff958616601f94851661010090810a9182029188021990921617909155600a805460018101825594529083047fc65a7bb8d6351c1cf70c95a316cc6a92839c986682d98bc35f958f4883f9d2a801805495851693909216900a918202919092021990921691909117905550565b600f546001600160a01b031633146106fd5760405162461bcd60e51b815260040161038990611912565b80600160ff82166004811061071457610714611949565b60020201546000036107385760405162461bcd60e51b81526004016103899061195f565b6000600160ff84166004811061075057610750611949565b600202018054604080516020808402820181019092528281529291908301828280156107b957602002820191906000526020600020906000905b825461010083900a900460ff1681526020600192830181810494850194909303909202910180841161078a5790505b50505050509050806001815181106107d3576107d3611949565b602002602001015160ff16816000815181106107f1576107f1611949565b602002602001015160ff161461080657600080fd5b600954341461081457600080fd5b600c54600460ff9091161061082857600080fd5b600d5460408051635ec01e4d60e01b815290516000926001600160a01b031691635ec01e4d916004808301926020929190829003018187875af1158015610873573d6000803e3d6000fd5b505050506040513d601f19601f820116820180604052508101906108979190611985565b905060006108a6600d836119b4565b6108b19060016119de565b905080600160ff8716600481106108ca576108ca611949565b60020201805460019081106108e1576108e1611949565b90600052602060002090602091828204019190066101000a81548160ff021916908360ff1602179055506000600267ffffffffffffffff81111561092757610927611a05565b604051908082528060200260200182016040528015610950578160200160208202803683370190505b5090506000600d6109626064866119f1565b61096c91906119b4565b6109779060016119de565b90508460018151811061098c5761098c611949565b6020026020010151826000815181106109a7576109a7611949565b602002602001019060ff16908160ff168152505080826001815181106109cf576109cf611949565b60ff928316602091820292909201810191909152604080516080810182528581526000928101839052600191810182905260608101839052600c805491949293919092169190610a1e83611a1b565b91906101000a81548160ff021916908360ff16021790555060ff1660048110610a4957610a49611949565b600202016000820151816000019080519060200190610a699291906115e0565b506020820151600190910180546040808501516060909501511515620100000262ff0000199515156101000261ff00199515159590951661ffff1990931692909217939093179390931692909217909155517f55d842d7b8c6edb757dd47be55f527a7dec7b2070bff29e947e6d22a65a01fd690600090a150505050505050565b600f546000906001600160a01b03163314610b175760405162461bcd60e51b815260040161038990611912565b81600160ff821660048110610b2e57610b2e611949565b6002020154600003610b525760405162461bcd60e51b81526004016103899061195f565b8315610c2757600160ff841660048110610b6e57610b6e611949565b6002020160010160019054906101000a900460ff168015610b90575060095434145b8015610bd15750600a8054600090610baa57610baa611949565b90600052602060002090602091828204019190069054906101000a900460ff1660ff166001145b8015610c055750600160ff841660048110610bee57610bee611949565b6002020160010160029054906101000a900460ff16155b610c0e57600080fd5b600c805461ff0019166101001790556009805460011b90555b600d805460408051635ec01e4d60e01b81529051600093926001600160a01b031691635ec01e4d916004808301926020929190829003018188875af1158015610c74573d6000803e3d6000fd5b505050506040513d601f19601f82011682018060405250810190610c989190611985565b610ca291906119b4565b610cad906001611a3a565b9050600160ff851660048110610cc557610cc5611949565b6002020180546001810182556000918252602080832090820401805460ff808616601f9094166101000a93840293021916919091179055610d0790859061151d565b15610e28577f7ed0b9d88fc0672a79b9f48e433842d27015f2e5ca611abe22218ed0737ac84e600160ff861660048110610d4357610d43611949565b6002020180546001908110610d5a57610d5a611949565b90600052602060002090602091828204019190069054906101000a900460ff1660016000018660ff1660048110610d9357610d93611949565b600202018054600090610da857610da8611949565b90600052602060002090602091828204019190069054906101000a900460ff1683610dd39190611a3a565b610ddd9190611a3a565b60405160ff909116815260200160405180910390a160018060ff861660048110610e0957610e09611949565b6002020160010160026101000a81548160ff0219169083151502179055505b7f76f79ba55614c6fd9a839698f6674fd0a80c3988d6594633c95fdd63814f676e600160ff861660048110610e5f57610e5f611949565b6002020180546001908110610e7657610e76611949565b90600052602060002090602091828204019190069054906101000a900460ff1660016000018660ff1660048110610eaf57610eaf611949565b600202018054600090610ec457610ec4611949565b90600052602060002090602091828204019190069054906101000a900460ff1683610eef9190611a3a565b610ef99190611a3a565b60405160ff909116815260200160405180910390a1949350505050565b82600160ff831660048110610f2d57610f2d611949565b600202018054600090610f4257610f42611949565b90600052602060002090602091828204019190066101000a81548160ff021916908360ff1602179055508160016000018260ff1660048110610f8657610f86611949565b6002020180546001908110610f9d57610f9d611949565b90600052602060002090602091828204019190066101000a81548160ff021916908360ff160217905550505050565b6060600160ff831660048110610fe457610fe4611949565b6002020180546040805160208084028201810190925282815292919083018282801561104d57602002820191906000526020600020906000905b825461010083900a900460ff1681526020600192830181810494850194909303909202910180841161101e5790505b50505050509050919050565b611061611536565b61106b6000611590565b565b600a805460408051602080840282018101909252828152606093909290918301828280156110d857602002820191906000526020600020906000905b825461010083900a900460ff168152602060019283018181049485019490930390920291018084116110a95790505b5050505050905090565b6110ea611686565b6040805160808101909152600160046000835b828210156111c95760408051600284028601805460a06020820284018101909452608083018181529293919284929091849184018282801561117c57602002820191906000526020600020906000905b825461010083900a900460ff1681526020600192830181810494850194909303909202910180841161114d5790505b505050918352505060019182015460ff80821615156020808501919091526101008304821615156040850152620100009092041615156060909201919091529183529290920191016110fd565b50505050905090565b6111da611536565b6001600160a01b03811661123f5760405162461bcd60e51b815260206004820152602660248201527f4f776e61626c653a206e6577206f776e657220697320746865207a65726f206160448201526564647265737360d01b6064820152608401610389565b61124881611590565b50565b60095460408051600a805460a0602082028401810190945260808301818152600194849284918401828280156112be57602002820191906000526020600020906000905b825461010083900a900460ff1681526020600192830181810494850194909303909202910180841161128f5790505b50505091835250506001919091015460ff808216151560208401526101008083048216151560408501526201000090920481161515606090930192909252600b90930154919282821692041684565b60008060008361133657600160ff86166004811061132d5761132d611949565b60020201611339565b600a5b8054806020026020016040519081016040528092919081815260200182805480156113a157602002820191906000526020600020906000905b825461010083900a900460ff168152602060019283018181049485019490930390920291018084116113725790505b505050505090506000815190506000805b8260ff168110156114305760008482815181106113d1576113d1611949565b602002602001015190508060ff1660011461141357600a8160ff161015611401576113fc8187611a3a565b61140c565b61140c86600a611a3a565b955061141f565b61141c83611a1b565b92505b5061142981611a53565b90506113b2565b5060005b8160ff168110156114a657601560016114508360ff8616611a6c565b61145a9190611a6c565b61146587600b611a3a565b60ff1661147291906119de565b11156114885761148185611a1b565b9450611496565b611493600b86611a3a565b94505b61149f81611a53565b9050611434565b50600b8460ff161180156114bd575060008160ff16115b600160ff8916600481106114d3576114d3611949565b6002020160010160006101000a81548160ff021916908315150217905550839450505050505b92915050565b60008160ff168360ff16106115145781611516565b825b9392505050565b6000601561152b848461130d565b60ff16119392505050565b6000546001600160a01b0316331461106b5760405162461bcd60e51b815260206004820181905260248201527f4f776e61626c653a2063616c6c6572206973206e6f7420746865206f776e65726044820152606401610389565b600080546001600160a01b038381166001600160a01b0319831681178455604051919092169283917f8be0079c531659141344cd1fd0a4f28419497f9722a3daafe3b4186f6b6457e09190a35050565b82805482825590600052602060002090601f016020900481019282156116765791602002820160005b8382111561164757835183826101000a81548160ff021916908360ff1602179055509260200192600101602081600001049283019260010302611609565b80156116745782816101000a81549060ff0219169055600101602081600001049283019260010302611647565b505b506116829291506116cd565b5090565b60405180608001604052806004905b604080516080810182526060808252600060208084018290529383018190529082015282526000199092019101816116955790505090565b5b8082111561168257600081556001016116ce565b803560ff811681146116f357600080fd5b919050565b60006020828403121561170a57600080fd5b611516826116e2565b6000806040838503121561172657600080fd5b61172f836116e2565b915061173d602084016116e2565b90509250929050565b6000806040838503121561175957600080fd5b8235801515811461172f57600080fd5b60008060006060848603121561177e57600080fd5b611787846116e2565b9250611795602085016116e2565b91506117a3604085016116e2565b90509250925092565b6020808252825182820181905260009190848201906040850190845b818110156117e757835160ff16835292840192918401916001016117c8565b50909695505050505050565b8051608080845281519084018190526000916020919082019060a0860190845b8181101561183257835160ff1683529284019291840191600101611813565b5050828501511515838701526040850151151560408701526060850151925061185f606087018415159052565b95945050505050565b602080825260009060a0830183820185845b60048110156118a957601f198785030183526118978483516117f3565b9350918401919084019060010161187a565b50919695505050505050565b6000602082840312156118c757600080fd5b81356001600160a01b038116811461151657600080fd5b8481526080602082015260006118f760808301866117f3565b60ff9490941660408301525090151560609091015292915050565b6020808252601f908201527f4d75737420626520706c6179657220746f2063616c6c2066756e6374696f6e00604082015260600190565b634e487b7160e01b600052603260045260246000fd5b6020808252600c908201526b12185b99081a5b9d985b1a5960a21b604082015260600190565b60006020828403121561199757600080fd5b5051919050565b634e487b7160e01b600052601260045260246000fd5b6000826119c3576119c361199e565b500690565b634e487b7160e01b600052601160045260246000fd5b808201808211156114f9576114f96119c8565b600082611a0057611a0061199e565b500490565b634e487b7160e01b600052604160045260246000fd5b600060ff821660ff8103611a3157611a316119c8565b60010192915050565b60ff81811683821601908111156114f9576114f96119c8565b600060018201611a6557611a656119c8565b5060010190565b818103818111156114f9576114f96119c856fea26469706673582212200018f3739463bc4a48e4707b9b6c8f7ecef5a727371a1f1bf2263f8e8c4ce8e964736f6c63430008150033",
    "linkReferences": {}
  },
  "methodIdentifiers": {
    "dealer()": "9de2ee21",
    "gameData()": "fa24f743",
    "getBetAmount()": "fde41e29",
    "getCardsFromHand(uint8)": "5a20d60b",
    "getDealerCards()": "974ee4d8",
    "getHands()": "e8fa988d",
    "getInsurance()": "267a8da0",
    "getNextOpenHandSlot()": "5db060ee",
    "hit(bool,uint8)": "34e6a776",
    "owner()": "8da5cb5b",
    "player()": "48db5f89",
    "renounceOwnership()": "715018a6",
    "setDealerCards(uint8,uint8)": "1707ea98",
    "setPlayerCards(uint8,uint8,uint8)": "40e2e20c",
    "split(uint8)": "1ef44aed",
    "stand(uint8)": "0a2d343a",
    "transferOwnership(address)": "f2fde38b",
    "vault()": "fbfa77cf"
  },
  "id": 20
}