{
  "abi": [
    {
      "inputs": [
        {
          "internalType": "address",
          "name": "_vault",
          "type": "address"
        },
        {
          "internalType": "address",
          "name": "_dealer",
          "type": "address"
        }
      ],
      "stateMutability": "payable",
      "type": "constructor"
    },
    {
      "anonymous": false,
      "inputs": [
        {
          "indexed": false,
          "internalType": "uint8",
          "name": "",
          "type": "uint8"
        }
      ],
      "name": "Bust",
      "type": "event"
    },
    {
      "anonymous": false,
      "inputs": [
        {
          "indexed": false,
          "internalType": "uint8",
          "name": "",
          "type": "uint8"
        }
      ],
      "name": "Hit",
      "type": "event"
    },
    {
      "anonymous": false,
      "inputs": [
        {
          "indexed": false,
          "internalType": "uint8",
          "name": "",
          "type": "uint8"
        }
      ],
      "name": "Loss",
      "type": "event"
    },
    {
      "anonymous": false,
      "inputs": [
        {
          "indexed": true,
          "internalType": "address",
          "name": "previousOwner",
          "type": "address"
        },
        {
          "indexed": true,
          "internalType": "address",
          "name": "newOwner",
          "type": "address"
        }
      ],
      "name": "OwnershipTransferred",
      "type": "event"
    },
    {
      "anonymous": false,
      "inputs": [],
      "name": "Paid",
      "type": "event"
    },
    {
      "anonymous": false,
      "inputs": [],
      "name": "PlayerBlackjack",
      "type": "event"
    },
    {
      "anonymous": false,
      "inputs": [
        {
          "indexed": false,
          "internalType": "uint8",
          "name": "",
          "type": "uint8"
        }
      ],
      "name": "Push",
      "type": "event"
    },
    {
      "anonymous": false,
      "inputs": [
        {
          "indexed": false,
          "internalType": "uint8",
          "name": "",
          "type": "uint8"
        }
      ],
      "name": "Split",
      "type": "event"
    },
    {
      "anonymous": false,
      "inputs": [
        {
          "indexed": false,
          "internalType": "uint8",
          "name": "",
          "type": "uint8"
        }
      ],
      "name": "Win",
      "type": "event"
    },
    {
      "inputs": [
        {
          "internalType": "uint8[]",
          "name": "_cards",
          "type": "uint8[]"
        },
        {
          "internalType": "uint8",
          "name": "handNum",
          "type": "uint8"
        }
      ],
      "name": "addPlayerCards",
      "outputs": [],
      "stateMutability": "nonpayable",
      "type": "function"
    },
    {
      "inputs": [],
      "name": "dealer",
      "outputs": [
        {
          "internalType": "contract Dealer",
          "name": "",
          "type": "address"
        }
      ],
      "stateMutability": "view",
      "type": "function"
    },
    {
      "inputs": [],
      "name": "gameData",
      "outputs": [
        {
          "internalType": "uint256",
          "name": "betAmount",
          "type": "uint256"
        },
        {
          "components": [
            {
              "internalType": "uint8[]",
              "name": "cards",
              "type": "uint8[]"
            },
            {
              "internalType": "bool",
              "name": "soft",
              "type": "bool"
            },
            {
              "internalType": "bool",
              "name": "firstTurn",
              "type": "bool"
            },
            {
              "internalType": "bool",
              "name": "finished",
              "type": "bool"
            }
          ],
          "internalType": "struct Blackjack.Hand",
          "name": "dealerHand",
          "type": "tuple"
        },
        {
          "internalType": "uint8",
          "name": "nextOpenHandSlot",
          "type": "uint8"
        },
        {
          "internalType": "bool",
          "name": "insurance",
          "type": "bool"
        }
      ],
      "stateMutability": "view",
      "type": "function"
    },
    {
      "inputs": [],
      "name": "getBetAmount",
      "outputs": [
        {
          "internalType": "uint256",
          "name": "",
          "type": "uint256"
        }
      ],
      "stateMutability": "view",
      "type": "function"
    },
    {
      "inputs": [
        {
          "internalType": "uint8",
          "name": "handNum",
          "type": "uint8"
        }
      ],
      "name": "getCardsFromHand",
      "outputs": [
        {
          "internalType": "uint8[]",
          "name": "",
          "type": "uint8[]"
        }
      ],
      "stateMutability": "view",
      "type": "function"
    },
    {
      "inputs": [],
      "name": "getDealerCards",
      "outputs": [
        {
          "internalType": "uint8[]",
          "name": "",
          "type": "uint8[]"
        }
      ],
      "stateMutability": "view",
      "type": "function"
    },
    {
      "inputs": [
        {
          "internalType": "uint8",
          "name": "handNum",
          "type": "uint8"
        },
        {
          "internalType": "bool",
          "name": "_dealer",
          "type": "bool"
        }
      ],
      "name": "getHandSum",
      "outputs": [
        {
          "internalType": "uint8",
          "name": "",
          "type": "uint8"
        }
      ],
      "stateMutability": "nonpayable",
      "type": "function"
    },
    {
      "inputs": [],
      "name": "getHands",
      "outputs": [
        {
          "components": [
            {
              "internalType": "uint8[]",
              "name": "cards",
              "type": "uint8[]"
            },
            {
              "internalType": "bool",
              "name": "soft",
              "type": "bool"
            },
            {
              "internalType": "bool",
              "name": "firstTurn",
              "type": "bool"
            },
            {
              "internalType": "bool",
              "name": "finished",
              "type": "bool"
            }
          ],
          "internalType": "struct Blackjack.Hand[4]",
          "name": "",
          "type": "tuple[4]"
        }
      ],
      "stateMutability": "view",
      "type": "function"
    },
    {
      "inputs": [],
      "name": "getInsurance",
      "outputs": [
        {
          "internalType": "bool",
          "name": "",
          "type": "bool"
        }
      ],
      "stateMutability": "view",
      "type": "function"
    },
    {
      "inputs": [],
      "name": "getNextOpenHandSlot",
      "outputs": [
        {
          "internalType": "uint8",
          "name": "",
          "type": "uint8"
        }
      ],
      "stateMutability": "view",
      "type": "function"
    },
    {
      "inputs": [
        {
          "internalType": "bool",
          "name": "_insurance",
          "type": "bool"
        },
        {
          "internalType": "uint8",
          "name": "handNum",
          "type": "uint8"
        }
      ],
      "name": "hit",
      "outputs": [
        {
          "internalType": "uint8",
          "name": "",
          "type": "uint8"
        }
      ],
      "stateMutability": "payable",
      "type": "function"
    },
    {
      "inputs": [],
      "name": "owner",
      "outputs": [
        {
          "internalType": "address",
          "name": "",
          "type": "address"
        }
      ],
      "stateMutability": "view",
      "type": "function"
    },
    {
      "inputs": [],
      "name": "player",
      "outputs": [
        {
          "internalType": "address",
          "name": "",
          "type": "address"
        }
      ],
      "stateMutability": "view",
      "type": "function"
    },
    {
      "inputs": [],
      "name": "renounceOwnership",
      "outputs": [],
      "stateMutability": "nonpayable",
      "type": "function"
    },
    {
      "inputs": [
        {
          "internalType": "uint8",
          "name": "_card1",
          "type": "uint8"
        },
        {
          "internalType": "uint8",
          "name": "_card2",
          "type": "uint8"
        }
      ],
      "name": "setDealerCards",
      "outputs": [],
      "stateMutability": "nonpayable",
      "type": "function"
    },
    {
      "inputs": [
        {
          "internalType": "uint8",
          "name": "_card1",
          "type": "uint8"
        },
        {
          "internalType": "uint8",
          "name": "_card2",
          "type": "uint8"
        },
        {
          "internalType": "uint8",
          "name": "handNum",
          "type": "uint8"
        }
      ],
      "name": "setPlayerCards",
      "outputs": [],
      "stateMutability": "nonpayable",
      "type": "function"
    },
    {
      "inputs": [
        {
          "internalType": "uint8",
          "name": "handNum",
          "type": "uint8"
        }
      ],
      "name": "split",
      "outputs": [],
      "stateMutability": "payable",
      "type": "function"
    },
    {
      "inputs": [
        {
          "internalType": "uint8",
          "name": "handNum",
          "type": "uint8"
        }
      ],
      "name": "stand",
      "outputs": [],
      "stateMutability": "nonpayable",
      "type": "function"
    },
    {
      "inputs": [
        {
          "internalType": "address",
          "name": "newOwner",
          "type": "address"
        }
      ],
      "name": "transferOwnership",
      "outputs": [],
      "stateMutability": "nonpayable",
      "type": "function"
    },
    {
      "inputs": [],
      "name": "vault",
      "outputs": [
        {
          "internalType": "address",
          "name": "",
          "type": "address"
        }
      ],
      "stateMutability": "view",
      "type": "function"
    }
  ],
  "bytecode": {
    "object": "0x60806040526040516200203c3803806200203c83398101604081905262000026916200029a565b62000031336200022d565b60003411620000865760405162461bcd60e51b815260206004820152601d60248201527f4e65656420746f20706c61636520616e20696e697469616c2062657421000000604482015260640160405180910390fd5b600e80546001600160a01b038085166001600160a01b031992831617909255600d805492841692821683179055600f80549091163317905560408051635ec01e4d60e01b8152905160009291635ec01e4d916004808301926020929190829003018187875af1158015620000fe573d6000803e3d6000fd5b505050506040513d601f19601f82011682018060405250810190620001249190620002d2565b60018054808201825560208082047fb10e2d527612073b26eecdfd717e6a320cf44b4afac2b0732d9fcbe2b7fa0cf69081018054601f94851661010090810a60ff81810219909316600d808b068a0185169290920217909355600a80548089019091557fc65a7bb8d6351c1cf70c95a316cc6a92839c986682d98bc35f958f4883f9d2a886820401805460648b048690068a018516928916840a92830292850219169190911790558654808801885560008890529485049093018054612710909804929092068601811693909416820a928302929093021990941617905534600955600c80546002805461ff00191690941790935561ffff1990921617905550620002ec915050565b600080546001600160a01b038381166001600160a01b0319831681178455604051919092169283917f8be0079c531659141344cd1fd0a4f28419497f9722a3daafe3b4186f6b6457e09190a35050565b80516001600160a01b03811681146200029557600080fd5b919050565b60008060408385031215620002ae57600080fd5b620002b9836200027d565b9150620002c9602084016200027d565b90509250929050565b600060208284031215620002e557600080fd5b5051919050565b611d4080620002fc6000396000f3fe60806040526004361061011f5760003560e01c8063715018a6116100a0578063e8fa988d11610064578063e8fa988d14610310578063f2fde38b14610332578063fa24f74314610352578063fbfa77cf14610377578063fde41e291461039757600080fd5b8063715018a6146102885780637b2f76a71461029d5780638da5cb5b146102bd578063974ee4d8146102db5780639de2ee21146102f057600080fd5b806334e6a776116100e757806334e6a776146101c657806340e2e20c146101eb57806348db5f891461020b5780635a20d60b146102435780635db060ee1461027057600080fd5b80630a2d343a146101245780631707ea98146101465780631d6c4e3b146101665780631ef44aed14610186578063267a8da014610199575b600080fd5b34801561013057600080fd5b5061014461013f3660046118d5565b6103b5565b005b34801561015257600080fd5b506101446101613660046118f0565b610695565b34801561017257600080fd5b50610144610181366004611923565b610729565b6101446101943660046118d5565b6107c2565b3480156101a557600080fd5b50600c54610100900460ff1660405190151581526020015b60405180910390f35b6101d96101d43660046119b7565b610cc7565b60405160ff90911681526020016101bd565b3480156101f757600080fd5b506101446102063660046119d3565b6110f3565b34801561021757600080fd5b50600f5461022b906001600160a01b031681565b6040516001600160a01b0390911681526020016101bd565b34801561024f57600080fd5b5061026361025e3660046118d5565b6111a9565b6040516101bd9190611a0d565b34801561027c57600080fd5b50600c5460ff166101d9565b34801561029457600080fd5b50610144611236565b3480156102a957600080fd5b506101d96102b8366004611a54565b61124a565b3480156102c957600080fd5b506000546001600160a01b031661022b565b3480156102e757600080fd5b5061026361143c565b3480156102fc57600080fd5b50600d5461022b906001600160a01b031681565b34801561031c57600080fd5b506103256114b1565b6040516101bd9190611af3565b34801561033e57600080fd5b5061014461034d366004611b40565b6115a1565b34801561035e57600080fd5b5061036761161a565b6040516101bd9493929190611b69565b34801561038357600080fd5b50600e5461022b906001600160a01b031681565b3480156103a357600080fd5b506009546040519081526020016101bd565b600f546001600160a01b031633146103e85760405162461bcd60e51b81526004016103df90611b9d565b60405180910390fd5b80600160ff8216600481106103ff576103ff611bd4565b60020201546000036104235760405162461bcd60e51b81526004016103df90611bea565b600d5460408051635ec01e4d60e01b815290516000926001600160a01b031691635ec01e4d916004808301926020929190829003018187875af115801561046e573d6000803e3d6000fd5b505050506040513d601f19601f820116820180604052508101906104929190611c10565b905060006104a184600061124a565b905060006104b16000600161124a565b90505b6104bf6015836116dc565b60ff168160ff161161058a5760128160ff161015806104ef57508060ff1660111480156104ef5750600b5460ff16155b61058a576000610515610503600d86611c3f565b61050e906001611c69565b600a6116dc565b9050610522606485611c7c565b600a8054600181810183556000928352602082047fc65a7bb8d6351c1cf70c95a316cc6a92839c986682d98bc35f958f4883f9d2a801805460ff808816601f9095166101000a94850294021916929092179091559195506105829161124a565b9150506104b4565b60158160ff1611806105a157508060ff168260ff16115b156105e25760405160ff831681527f1bf0bb3b8aecbdd715eacadcfc823650fc174b037c21da88af0beb4f55bfe4e9906020015b60405180910390a1610659565b8160ff168160ff16036106225760405160ff831681527fb4891788e5aeae0a7c35bc54a5c88724c39b101c0efcbf08357254a031870b74906020016105d5565b60405160ff831681527fdf7e02b4cc7d28bf9e9c21e7c83f9a8d0926b26168fdc0a43393fe57ddaed8289060200160405180910390a15b8160ff1660150361068e576040517fac12b2cd30b1f4db38d94e07d1376d0a700299ee9f243744847703a0b55ef5af90600090a15b5050505050565b600a80548391906000906106ab576106ab611bd4565b6000918252602080832081830401805460ff958616601f94851661010090810a9182029188021990921617909155600a805460018101825594529083047fc65a7bb8d6351c1cf70c95a316cc6a92839c986682d98bc35f958f4883f9d2a801805495851693909216900a918202919092021990921691909117905550565b60005b828110156107bc57600160ff83166004811061074a5761074a611bd4565b6002020184848381811061076057610760611bd4565b905060200201602081019061077591906118d5565b81546001810183556000928352602092839020928104909201805460ff928316601f9094166101000a93840292909302199092161790556107b581611c90565b905061072c565b50505050565b600f546001600160a01b031633146107ec5760405162461bcd60e51b81526004016103df90611b9d565b80600160ff82166004811061080357610803611bd4565b60020201546000036108275760405162461bcd60e51b81526004016103df90611bea565b6000600160ff84166004811061083f5761083f611bd4565b600202018054604080516020808402820181019092528281529291908301828280156108a857602002820191906000526020600020906000905b825461010083900a900460ff168152602060019283018181049485019490930390920291018084116108795790505b50505050509050806001815181106108c2576108c2611bd4565b602002602001015160ff16816000815181106108e0576108e0611bd4565b602002602001015160ff161461092e5760405162461bcd60e51b8152602060048201526013602482015272139959590818481c185a5c881a5b881a185b99606a1b60448201526064016103df565b600954341461097f5760405162461bcd60e51b815260206004820152601a60248201527f4e65656420746f206d61746368206f726967696e616c2062657400000000000060448201526064016103df565b600c54600460ff909116106109d65760405162461bcd60e51b815260206004820152601c60248201527f43616e206f6e6c792073706c697420746f20666f75722068616e64730000000060448201526064016103df565b600d5460408051635ec01e4d60e01b815290516000926001600160a01b031691635ec01e4d916004808301926020929190829003018187875af1158015610a21573d6000803e3d6000fd5b505050506040513d601f19601f82011682018060405250810190610a459190611c10565b90506000610a54600d83611c3f565b610a5f906001611c69565b905080600160ff871660048110610a7857610a78611bd4565b6002020180546001908110610a8f57610a8f611bd4565b90600052602060002090602091828204019190066101000a81548160ff021916908360ff1602179055506000600267ffffffffffffffff811115610ad557610ad5611ca9565b604051908082528060200260200182016040528015610afe578160200160208202803683370190505b5090506000600d610b10606486611c7c565b610b1a9190611c3f565b610b25906001611c69565b905084600181518110610b3a57610b3a611bd4565b602002602001015182600081518110610b5557610b55611bd4565b602002602001019060ff16908160ff16815250508082600181518110610b7d57610b7d611bd4565b60ff928316602091820292909201810191909152604080516080810182528581526000928101839052600191810182905260608101839052600c805491949293919092169190610bcc83611cbf565b91906101000a81548160ff021916908360ff16021790555060ff1660048110610bf757610bf7611bd4565b600202016000820151816000019080519060200190610c179291906117bd565b5060208201516001909101805460408401516060909401511515620100000262ff0000199415156101000261ff00199415159490941661ffff1990921691909117929092179290921617905584517f738fbb20ac06733db9d189b456de5d77d03f3f832ea1da86c2a1569fbfd711c6908690600090610c9857610c98611bd4565b6020026020010151604051610cb6919060ff91909116815260200190565b60405180910390a150505050505050565b600f546000906001600160a01b03163314610cf45760405162461bcd60e51b81526004016103df90611b9d565b81600160ff821660048110610d0b57610d0b611bd4565b6002020154600003610d2f5760405162461bcd60e51b81526004016103df90611bea565b8315610e0457600160ff841660048110610d4b57610d4b611bd4565b6002020160010160019054906101000a900460ff168015610d6d575060095434145b8015610dae5750600a8054600090610d8757610d87611bd4565b90600052602060002090602091828204019190069054906101000a900460ff1660ff166001145b8015610de25750600160ff841660048110610dcb57610dcb611bd4565b6002020160010160029054906101000a900460ff16155b610deb57600080fd5b600c805461ff0019166101001790556009805460011b90555b600d805460408051635ec01e4d60e01b81529051600093926001600160a01b031691635ec01e4d916004808301926020929190829003018188875af1158015610e51573d6000803e3d6000fd5b505050506040513d601f19601f82011682018060405250810190610e759190611c10565b610e7f9190611c3f565b610e8a906001611cde565b9050600160ff851660048110610ea257610ea2611bd4565b6002020180546001810182556000918252602080832090820401805460ff808616601f9094166101000a93840293021916919091179055610ee49085906116fa565b15611005577f7ed0b9d88fc0672a79b9f48e433842d27015f2e5ca611abe22218ed0737ac84e600160ff861660048110610f2057610f20611bd4565b6002020180546001908110610f3757610f37611bd4565b90600052602060002090602091828204019190069054906101000a900460ff1660016000018660ff1660048110610f7057610f70611bd4565b600202018054600090610f8557610f85611bd4565b90600052602060002090602091828204019190069054906101000a900460ff1683610fb09190611cde565b610fba9190611cde565b60405160ff909116815260200160405180910390a160018060ff861660048110610fe657610fe6611bd4565b6002020160010160026101000a81548160ff0219169083151502179055505b7f76f79ba55614c6fd9a839698f6674fd0a80c3988d6594633c95fdd63814f676e600160ff86166004811061103c5761103c611bd4565b600202018054600190811061105357611053611bd4565b90600052602060002090602091828204019190069054906101000a900460ff1660016000018660ff166004811061108c5761108c611bd4565b6002020180546000906110a1576110a1611bd4565b90600052602060002090602091828204019190069054906101000a900460ff16836110cc9190611cde565b6110d69190611cde565b60405160ff909116815260200160405180910390a1949350505050565b82600160ff83166004811061110a5761110a611bd4565b60020201805460009061111f5761111f611bd4565b90600052602060002090602091828204019190066101000a81548160ff021916908360ff1602179055508160016000018260ff166004811061116357611163611bd4565b600202018054600190811061117a5761117a611bd4565b90600052602060002090602091828204019190066101000a81548160ff021916908360ff160217905550505050565b6060600160ff8316600481106111c1576111c1611bd4565b6002020180546040805160208084028201810190925282815292919083018282801561122a57602002820191906000526020600020906000905b825461010083900a900460ff168152602060019283018181049485019490930390920291018084116111fb5790505b50505050509050919050565b61123e611713565b611248600061176d565b565b60008060008361127357600160ff86166004811061126a5761126a611bd4565b60020201611276565b600a5b8054806020026020016040519081016040528092919081815260200182805480156112de57602002820191906000526020600020906000905b825461010083900a900460ff168152602060019283018181049485019490930390920291018084116112af5790505b505050505090506000815190506000805b8260ff1681101561136d57600084828151811061130e5761130e611bd4565b602002602001015190508060ff1660011461135057600a8160ff16101561133e576113398187611cde565b611349565b61134986600a611cde565b955061135c565b61135983611cbf565b92505b5061136681611c90565b90506112ef565b5060005b8160ff168110156113e3576015600161138d8360ff8616611cf7565b6113979190611cf7565b6113a287600b611cde565b60ff166113af9190611c69565b11156113c5576113be85611cbf565b94506113d3565b6113d0600b86611cde565b94505b6113dc81611c90565b9050611371565b50600b8460ff161180156113fa575060008160ff16115b600160ff89166004811061141057611410611bd4565b6002020160010160006101000a81548160ff021916908315150217905550839450505050505b92915050565b600a805460408051602080840282018101909252828152606093909290918301828280156114a757602002820191906000526020600020906000905b825461010083900a900460ff168152602060019283018181049485019490930390920291018084116114785790505b5050505050905090565b6114b9611863565b6040805160808101909152600160046000835b828210156115985760408051600284028601805460a06020820284018101909452608083018181529293919284929091849184018282801561154b57602002820191906000526020600020906000905b825461010083900a900460ff1681526020600192830181810494850194909303909202910180841161151c5790505b505050918352505060019182015460ff80821615156020808501919091526101008304821615156040850152620100009092041615156060909201919091529183529290920191016114cc565b50505050905090565b6115a9611713565b6001600160a01b03811661160e5760405162461bcd60e51b815260206004820152602660248201527f4f776e61626c653a206e6577206f776e657220697320746865207a65726f206160448201526564647265737360d01b60648201526084016103df565b6116178161176d565b50565b60095460408051600a805460a06020820284018101909452608083018181526001948492849184018282801561168d57602002820191906000526020600020906000905b825461010083900a900460ff1681526020600192830181810494850194909303909202910180841161165e5790505b50505091835250506001919091015460ff808216151560208401526101008083048216151560408501526201000090920481161515606090930192909252600b90930154919282821692041684565b60008160ff168360ff16106116f157816116f3565b825b9392505050565b60006015611708848461124a565b60ff16119392505050565b6000546001600160a01b031633146112485760405162461bcd60e51b815260206004820181905260248201527f4f776e61626c653a2063616c6c6572206973206e6f7420746865206f776e657260448201526064016103df565b600080546001600160a01b038381166001600160a01b0319831681178455604051919092169283917f8be0079c531659141344cd1fd0a4f28419497f9722a3daafe3b4186f6b6457e09190a35050565b82805482825590600052602060002090601f016020900481019282156118535791602002820160005b8382111561182457835183826101000a81548160ff021916908360ff16021790555092602001926001016020816000010492830192600103026117e6565b80156118515782816101000a81549060ff0219169055600101602081600001049283019260010302611824565b505b5061185f9291506118aa565b5090565b60405180608001604052806004905b604080516080810182526060808252600060208084018290529383018190529082015282526000199092019101816118725790505090565b5b8082111561185f57600081556001016118ab565b803560ff811681146118d057600080fd5b919050565b6000602082840312156118e757600080fd5b6116f3826118bf565b6000806040838503121561190357600080fd5b61190c836118bf565b915061191a602084016118bf565b90509250929050565b60008060006040848603121561193857600080fd5b833567ffffffffffffffff8082111561195057600080fd5b818601915086601f83011261196457600080fd5b81358181111561197357600080fd5b8760208260051b850101111561198857600080fd5b60209283019550935061199e91860190506118bf565b90509250925092565b803580151581146118d057600080fd5b600080604083850312156119ca57600080fd5b61190c836119a7565b6000806000606084860312156119e857600080fd5b6119f1846118bf565b92506119ff602085016118bf565b915061199e604085016118bf565b6020808252825182820181905260009190848201906040850190845b81811015611a4857835160ff1683529284019291840191600101611a29565b50909695505050505050565b60008060408385031215611a6757600080fd5b611a70836118bf565b915061191a602084016119a7565b8051608080845281519084018190526000916020919082019060a0860190845b81811015611abd57835160ff1683529284019291840191600101611a9e565b50508285015115158387015260408501511515604087015260608501519250611aea606087018415159052565b95945050505050565b602080825260009060a0830183820185845b6004811015611b3457601f19878503018352611b22848351611a7e565b93509184019190840190600101611b05565b50919695505050505050565b600060208284031215611b5257600080fd5b81356001600160a01b03811681146116f357600080fd5b848152608060208201526000611b826080830186611a7e565b60ff9490941660408301525090151560609091015292915050565b6020808252601f908201527f4d75737420626520706c6179657220746f2063616c6c2066756e6374696f6e00604082015260600190565b634e487b7160e01b600052603260045260246000fd5b6020808252600c908201526b12185b99081a5b9d985b1a5960a21b604082015260600190565b600060208284031215611c2257600080fd5b5051919050565b634e487b7160e01b600052601260045260246000fd5b600082611c4e57611c4e611c29565b500690565b634e487b7160e01b600052601160045260246000fd5b8082018082111561143657611436611c53565b600082611c8b57611c8b611c29565b500490565b600060018201611ca257611ca2611c53565b5060010190565b634e487b7160e01b600052604160045260246000fd5b600060ff821660ff8103611cd557611cd5611c53565b60010192915050565b60ff818116838216019081111561143657611436611c53565b8181038181111561143657611436611c5356fea2646970667358221220511381321a94f74825c06d576906f5d7e85b18c2d6f63604e33ba2ef798d93f564736f6c63430008150033",
    "linkReferences": {}
  },
  "methodIdentifiers": {
    "addPlayerCards(uint8[],uint8)": "1d6c4e3b",
    "dealer()": "9de2ee21",
    "gameData()": "fa24f743",
    "getBetAmount()": "fde41e29",
    "getCardsFromHand(uint8)": "5a20d60b",
    "getDealerCards()": "974ee4d8",
    "getHandSum(uint8,bool)": "7b2f76a7",
    "getHands()": "e8fa988d",
    "getInsurance()": "267a8da0",
    "getNextOpenHandSlot()": "5db060ee",
    "hit(bool,uint8)": "34e6a776",
    "owner()": "8da5cb5b",
    "player()": "48db5f89",
    "renounceOwnership()": "715018a6",
    "setDealerCards(uint8,uint8)": "1707ea98",
    "setPlayerCards(uint8,uint8,uint8)": "40e2e20c",
    "split(uint8)": "1ef44aed",
    "stand(uint8)": "0a2d343a",
    "transferOwnership(address)": "f2fde38b",
    "vault()": "fbfa77cf"
  },
  "id": 20
}