{
  "abi": [
    {
      "inputs": [
        {
          "internalType": "address payable",
          "name": "_vault",
          "type": "address"
        },
        {
          "internalType": "address",
          "name": "_dealer",
          "type": "address"
        }
      ],
      "stateMutability": "payable",
      "type": "constructor"
    },
    {
      "anonymous": false,
      "inputs": [
        {
          "indexed": false,
          "internalType": "uint8",
          "name": "",
          "type": "uint8"
        },
        {
          "indexed": false,
          "internalType": "uint8",
          "name": "",
          "type": "uint8"
        }
      ],
      "name": "Bust",
      "type": "event"
    },
    {
      "anonymous": false,
      "inputs": [
        {
          "indexed": false,
          "internalType": "uint8",
          "name": "",
          "type": "uint8"
        }
      ],
      "name": "Hit",
      "type": "event"
    },
    {
      "anonymous": false,
      "inputs": [
        {
          "indexed": false,
          "internalType": "uint8",
          "name": "",
          "type": "uint8"
        },
        {
          "indexed": false,
          "internalType": "uint8",
          "name": "",
          "type": "uint8"
        }
      ],
      "name": "Loss",
      "type": "event"
    },
    {
      "anonymous": false,
      "inputs": [
        {
          "indexed": true,
          "internalType": "address",
          "name": "previousOwner",
          "type": "address"
        },
        {
          "indexed": true,
          "internalType": "address",
          "name": "newOwner",
          "type": "address"
        }
      ],
      "name": "OwnershipTransferred",
      "type": "event"
    },
    {
      "anonymous": false,
      "inputs": [
        {
          "indexed": false,
          "internalType": "uint256",
          "name": "",
          "type": "uint256"
        }
      ],
      "name": "Paid",
      "type": "event"
    },
    {
      "anonymous": false,
      "inputs": [
        {
          "indexed": false,
          "internalType": "uint8",
          "name": "",
          "type": "uint8"
        }
      ],
      "name": "PlayerBlackjack",
      "type": "event"
    },
    {
      "anonymous": false,
      "inputs": [
        {
          "indexed": false,
          "internalType": "uint8",
          "name": "",
          "type": "uint8"
        },
        {
          "indexed": false,
          "internalType": "uint8",
          "name": "",
          "type": "uint8"
        }
      ],
      "name": "Push",
      "type": "event"
    },
    {
      "anonymous": false,
      "inputs": [
        {
          "indexed": false,
          "internalType": "uint8",
          "name": "",
          "type": "uint8"
        }
      ],
      "name": "Split",
      "type": "event"
    },
    {
      "anonymous": false,
      "inputs": [
        {
          "indexed": false,
          "internalType": "uint8",
          "name": "",
          "type": "uint8"
        },
        {
          "indexed": false,
          "internalType": "uint8",
          "name": "",
          "type": "uint8"
        }
      ],
      "name": "Win",
      "type": "event"
    },
    {
      "inputs": [
        {
          "internalType": "uint8[]",
          "name": "_cards",
          "type": "uint8[]"
        },
        {
          "internalType": "uint8",
          "name": "handNum",
          "type": "uint8"
        }
      ],
      "name": "addPlayerCards",
      "outputs": [],
      "stateMutability": "nonpayable",
      "type": "function"
    },
    {
      "inputs": [],
      "name": "dealer",
      "outputs": [
        {
          "internalType": "contract Dealer",
          "name": "",
          "type": "address"
        }
      ],
      "stateMutability": "view",
      "type": "function"
    },
    {
      "inputs": [
        {
          "internalType": "uint8",
          "name": "handNum",
          "type": "uint8"
        }
      ],
      "name": "doubleDown",
      "outputs": [],
      "stateMutability": "payable",
      "type": "function"
    },
    {
      "inputs": [],
      "name": "gameData",
      "outputs": [
        {
          "internalType": "uint256",
          "name": "betAmount",
          "type": "uint256"
        },
        {
          "components": [
            {
              "internalType": "uint256",
              "name": "doubleDownAmount",
              "type": "uint256"
            },
            {
              "internalType": "uint8[]",
              "name": "cards",
              "type": "uint8[]"
            },
            {
              "internalType": "bool",
              "name": "soft",
              "type": "bool"
            },
            {
              "internalType": "bool",
              "name": "firstTurn",
              "type": "bool"
            },
            {
              "internalType": "bool",
              "name": "busted",
              "type": "bool"
            },
            {
              "internalType": "bool",
              "name": "finished",
              "type": "bool"
            }
          ],
          "internalType": "struct Blackjack.Hand",
          "name": "dealerHand",
          "type": "tuple"
        },
        {
          "internalType": "uint8",
          "name": "nextOpenHandSlot",
          "type": "uint8"
        },
        {
          "internalType": "bool",
          "name": "insurance",
          "type": "bool"
        }
      ],
      "stateMutability": "view",
      "type": "function"
    },
    {
      "inputs": [],
      "name": "getBetAmount",
      "outputs": [
        {
          "internalType": "uint256",
          "name": "",
          "type": "uint256"
        }
      ],
      "stateMutability": "view",
      "type": "function"
    },
    {
      "inputs": [
        {
          "internalType": "uint8",
          "name": "handNum",
          "type": "uint8"
        }
      ],
      "name": "getCardsFromHand",
      "outputs": [
        {
          "internalType": "uint8[]",
          "name": "",
          "type": "uint8[]"
        }
      ],
      "stateMutability": "view",
      "type": "function"
    },
    {
      "inputs": [],
      "name": "getDealerCards",
      "outputs": [
        {
          "internalType": "uint8[]",
          "name": "",
          "type": "uint8[]"
        }
      ],
      "stateMutability": "view",
      "type": "function"
    },
    {
      "inputs": [
        {
          "internalType": "uint8",
          "name": "handNum",
          "type": "uint8"
        },
        {
          "internalType": "bool",
          "name": "_dealer",
          "type": "bool"
        }
      ],
      "name": "getHandSum",
      "outputs": [
        {
          "internalType": "uint8",
          "name": "",
          "type": "uint8"
        }
      ],
      "stateMutability": "nonpayable",
      "type": "function"
    },
    {
      "inputs": [],
      "name": "getHands",
      "outputs": [
        {
          "components": [
            {
              "internalType": "uint256",
              "name": "doubleDownAmount",
              "type": "uint256"
            },
            {
              "internalType": "uint8[]",
              "name": "cards",
              "type": "uint8[]"
            },
            {
              "internalType": "bool",
              "name": "soft",
              "type": "bool"
            },
            {
              "internalType": "bool",
              "name": "firstTurn",
              "type": "bool"
            },
            {
              "internalType": "bool",
              "name": "busted",
              "type": "bool"
            },
            {
              "internalType": "bool",
              "name": "finished",
              "type": "bool"
            }
          ],
          "internalType": "struct Blackjack.Hand[4]",
          "name": "",
          "type": "tuple[4]"
        }
      ],
      "stateMutability": "view",
      "type": "function"
    },
    {
      "inputs": [],
      "name": "getInsurance",
      "outputs": [
        {
          "internalType": "bool",
          "name": "",
          "type": "bool"
        }
      ],
      "stateMutability": "view",
      "type": "function"
    },
    {
      "inputs": [],
      "name": "getNextOpenHandSlot",
      "outputs": [
        {
          "internalType": "uint8",
          "name": "",
          "type": "uint8"
        }
      ],
      "stateMutability": "view",
      "type": "function"
    },
    {
      "inputs": [
        {
          "internalType": "bool",
          "name": "_insurance",
          "type": "bool"
        },
        {
          "internalType": "uint8",
          "name": "handNum",
          "type": "uint8"
        }
      ],
      "name": "hit",
      "outputs": [
        {
          "internalType": "uint8",
          "name": "",
          "type": "uint8"
        }
      ],
      "stateMutability": "payable",
      "type": "function"
    },
    {
      "inputs": [
        {
          "internalType": "bool",
          "name": "_h0",
          "type": "bool"
        },
        {
          "internalType": "bool",
          "name": "_h1",
          "type": "bool"
        },
        {
          "internalType": "bool",
          "name": "_h2",
          "type": "bool"
        },
        {
          "internalType": "bool",
          "name": "_h3",
          "type": "bool"
        }
      ],
      "name": "markFinished",
      "outputs": [],
      "stateMutability": "nonpayable",
      "type": "function"
    },
    {
      "inputs": [],
      "name": "owner",
      "outputs": [
        {
          "internalType": "address",
          "name": "",
          "type": "address"
        }
      ],
      "stateMutability": "view",
      "type": "function"
    },
    {
      "inputs": [],
      "name": "paidOut",
      "outputs": [
        {
          "internalType": "bool",
          "name": "",
          "type": "bool"
        }
      ],
      "stateMutability": "view",
      "type": "function"
    },
    {
      "inputs": [],
      "name": "player",
      "outputs": [
        {
          "internalType": "address",
          "name": "",
          "type": "address"
        }
      ],
      "stateMutability": "view",
      "type": "function"
    },
    {
      "inputs": [],
      "name": "renounceOwnership",
      "outputs": [],
      "stateMutability": "nonpayable",
      "type": "function"
    },
    {
      "inputs": [
        {
          "internalType": "uint8",
          "name": "_card1",
          "type": "uint8"
        },
        {
          "internalType": "uint8",
          "name": "_card2",
          "type": "uint8"
        }
      ],
      "name": "setDealerCards",
      "outputs": [],
      "stateMutability": "nonpayable",
      "type": "function"
    },
    {
      "inputs": [
        {
          "internalType": "uint8",
          "name": "_card1",
          "type": "uint8"
        },
        {
          "internalType": "uint8",
          "name": "_card2",
          "type": "uint8"
        },
        {
          "internalType": "uint8",
          "name": "handNum",
          "type": "uint8"
        }
      ],
      "name": "setPlayerCards",
      "outputs": [],
      "stateMutability": "nonpayable",
      "type": "function"
    },
    {
      "inputs": [
        {
          "internalType": "uint8",
          "name": "handNum",
          "type": "uint8"
        }
      ],
      "name": "split",
      "outputs": [],
      "stateMutability": "payable",
      "type": "function"
    },
    {
      "inputs": [
        {
          "internalType": "bool",
          "name": "_insurance",
          "type": "bool"
        }
      ],
      "name": "stand",
      "outputs": [],
      "stateMutability": "payable",
      "type": "function"
    },
    {
      "inputs": [
        {
          "internalType": "address",
          "name": "newOwner",
          "type": "address"
        }
      ],
      "name": "transferOwnership",
      "outputs": [],
      "stateMutability": "nonpayable",
      "type": "function"
    },
    {
      "inputs": [],
      "name": "vault",
      "outputs": [
        {
          "internalType": "contract Vault",
          "name": "",
          "type": "address"
        }
      ],
      "stateMutability": "view",
      "type": "function"
    }
  ],
  "bytecode": {
    "object": "0x608060405260405162003606380380620036068339810160408190526200002691620002a7565b62000031336200023e565b60003411620000865760405162461bcd60e51b815260206004820152601d60248201527f4e65656420746f20706c61636520616e20696e697469616c2062657421000000604482015260640160405180910390fd5b601380546001600160a01b038085166001600160a01b0319928316179092556012805492841692821683179055601480549091163317905560408051635ec01e4d60e01b8152905160009291635ec01e4d916004808301926020929190829003018187875af1158015620000fe573d6000803e3d6000fd5b505050506040513d601f19601f82011682018060405250810190620001249190620002e6565b60028054600180820183557f405787fa12a823e0f2b7631cc41b3ba8828b3321ca811111fa75cd3aa3bb5ace602080840482018054601f95861661010090810a60ff81810219909316600d808c06890185169290920217909355600f80548088019091557f8d1108e10bcb7c27dddfc02ed9d693a074039d026cf4ea4240b40f7d581ac80285820401805460648c0486900689018516928a16840a92830292850219169190911790558754808701895560009890985292870490930180546127109098048290068501841696909516820a95860295909202199095169390931790915534909155601180546003805461ff00191690941790935561ffff1990921617905550506014805460ff60a01b191690555062000300565b600080546001600160a01b038381166001600160a01b0319831681178455604051919092169283917f8be0079c531659141344cd1fd0a4f28419497f9722a3daafe3b4186f6b6457e09190a35050565b6001600160a01b0381168114620002a457600080fd5b50565b60008060408385031215620002bb57600080fd5b8251620002c8816200028e565b6020840151909250620002db816200028e565b809150509250929050565b600060208284031215620002f957600080fd5b5051919050565b6132f680620003106000396000f3fe6080604052600436106101405760003560e01c8063720d984e116100b6578063b2c836d31161006f578063b2c836d314610359578063e8fa988d146103c5578063f2fde38b146103e7578063fa24f74314610407578063fbfa77cf1461042c578063fde41e291461044c57600080fd5b8063720d984e146102c05780637b2f76a7146102d35780638da5cb5b146102f35780639648380c14610311578063974ee4d8146103245780639de2ee211461033957600080fd5b806340e2e20c1161010857806340e2e20c146101ed57806348db5f891461020d5780635a20d60b146102455780635c76ca2d146102725780635db060ee14610293578063715018a6146102ab57600080fd5b80631707ea98146101455780631d6c4e3b146101675780631ef44aed14610187578063267a8da01461019a57806334e6a776146101c8575b600080fd5b34801561015157600080fd5b50610165610160366004612e02565b61046a565b005b34801561017357600080fd5b50610165610182366004612e35565b6104fe565b610165610195366004612eb9565b61059a565b3480156101a657600080fd5b50601154610100900460ff165b60405190151581526020015b60405180910390f35b6101db6101d6366004612eeb565b610bed565b60405160ff90911681526020016101bf565b3480156101f957600080fd5b50610165610208366004612f07565b611081565b34801561021957600080fd5b5060145461022d906001600160a01b031681565b6040516001600160a01b0390911681526020016101bf565b34801561025157600080fd5b50610265610260366004612eb9565b61113d565b6040516101bf9190612f41565b34801561027e57600080fd5b506014546101b390600160a01b900460ff1681565b34801561029f57600080fd5b5060115460ff166101db565b3480156102b757600080fd5b506101656111d0565b6101656102ce366004612eb9565b6111e4565b3480156102df57600080fd5b506101db6102ee366004612f88565b6114ce565b3480156102ff57600080fd5b506000546001600160a01b031661022d565b61016561031f366004612fb2565b6118a3565b34801561033057600080fd5b50610265611eba565b34801561034557600080fd5b5060125461022d906001600160a01b031681565b34801561036557600080fd5b50610165610374366004612fcd565b6003805463ff00000019908116630100000096151587021790915560068054821694151586029490941790935560098054921515850292841692909217909155600c80549115159093029116179055565b3480156103d157600080fd5b506103da611f2f565b6040516101bf91906130cf565b3480156103f357600080fd5b5061016561040236600461311c565b612043565b34801561041357600080fd5b5061041c6120bc565b6040516101bf9493929190613145565b34801561043857600080fd5b5060135461022d906001600160a01b031681565b34801561045857600080fd5b50600d546040519081526020016101bf565b600f805483919060009061048057610480613179565b6000918252602080832081830401805460ff958616601f94851661010090810a9182029188021990921617909155600f805460018101825594529083047f8d1108e10bcb7c27dddfc02ed9d693a074039d026cf4ea4240b40f7d581ac80201805495851693909216900a918202919092021990921691909117905550565b60005b8281101561059457600160ff83166004811061051f5761051f613179565b6003020160010184848381811061053857610538613179565b905060200201602081019061054d9190612eb9565b81546001810183556000928352602092839020928104909201805460ff928316601f9094166101000a938402929093021990921617905561058d816131a5565b9050610501565b50505050565b6014546001600160a01b031633146105cd5760405162461bcd60e51b81526004016105c4906131be565b60405180910390fd5b806000600160ff8316600481106105e6576105e6613179565b600302016040518060c0016040529081600082015481526020016001820180548060200260200160405190810160405280929190818152602001828054801561066c57602002820191906000526020600020906000905b825461010083900a900460ff1681526020600192830181810494850194909303909202910180841161063d5790505b50505091835250506002919091015460ff80821615156020808501919091526101008304821615156040850152620100008304821615156060850152630100000090920416151560809092019190915281015151909150158015906106d357508060a00151155b61070e5760405162461bcd60e51b815260206004820152600c60248201526b12185b99081a5b9d985b1a5960a21b60448201526064016105c4565b6000600160ff85166004811061072657610726613179565b6003020160010180548060200260200160405190810160405280929190818152602001828054801561079557602002820191906000526020600020906000905b825461010083900a900460ff168152602060019283018181049485019490930390920291018084116107665790505b50505050509050806001815181106107af576107af613179565b602002602001015160ff16816000815181106107cd576107cd613179565b602002602001015160ff161461081b5760405162461bcd60e51b8152602060048201526013602482015272139959590818481c185a5c881a5b881a185b99606a1b60448201526064016105c4565b600d54341461086c5760405162461bcd60e51b815260206004820152601a60248201527f4e65656420746f206d61746368206f726967696e616c2062657400000000000060448201526064016105c4565b601154600460ff909116106108c35760405162461bcd60e51b815260206004820152601c60248201527f43616e206f6e6c792073706c697420746f20666f75722068616e64730000000060448201526064016105c4565b60125460408051635ec01e4d60e01b815290516000926001600160a01b031691635ec01e4d916004808301926020929190829003018187875af115801561090e573d6000803e3d6000fd5b505050506040513d601f19601f8201168201806040525081019061093291906131f5565b90506000610941600d83613224565b61094c906001613238565b905080600160ff88166004811061096557610965613179565b6003020160010160018154811061097e5761097e613179565b90600052602060002090602091828204019190066101000a81548160ff021916908360ff1602179055506000600267ffffffffffffffff8111156109c4576109c461324b565b6040519080825280602002602001820160405280156109ed578160200160208202803683370190505b5090506000600d6109ff606486613261565b610a099190613224565b610a14906001613238565b905084600181518110610a2957610a29613179565b602002602001015182600081518110610a4457610a44613179565b602002602001019060ff16908160ff16815250508082600181518110610a6c57610a6c613179565b60ff9283166020918202929092018101919091526040805160c08101825260008082529281018690529081018290526001606082018190526080820183905260a0820183905260118054929491939290911691610ac883613275565b91906101000a81548160ff021916908360ff16021790555060ff1660048110610af357610af3613179565b60030201600082015181600001556020820151816001019080519060200190610b1d929190612cdd565b50604082015160029190910180546060840151608085015160a09095015161ffff1990921693151561ff00191693909317610100931515939093029290921763ffff00001916620100009315159390930263ff00000019169290921763010000009115159190910217905584517f738fbb20ac06733db9d189b456de5d77d03f3f832ea1da86c2a1569fbfd711c6908690600090610bbd57610bbd613179565b6020026020010151604051610bdb919060ff91909116815260200190565b60405180910390a15050505050505050565b6014546000906001600160a01b03163314610c1a5760405162461bcd60e51b81526004016105c4906131be565b816000600160ff831660048110610c3357610c33613179565b600302016040518060c00160405290816000820154815260200160018201805480602002602001604051908101604052809291908181526020018280548015610cb957602002820191906000526020600020906000905b825461010083900a900460ff16815260206001928301818104948501949093039092029101808411610c8a5790505b50505091835250506002919091015460ff8082161515602080850191909152610100830482161515604085015262010000830482161515606085015263010000009092041615156080909201919091528101515190915015801590610d2057508060a00151155b610d5b5760405162461bcd60e51b815260206004820152600c60248201526b12185b99081a5b9d985b1a5960a21b60448201526064016105c4565b8415610d6957610d6961219a565b6000600160ff861660048110610d8157610d81613179565b6003020160020160016101000a81548160ff0219169083151502179055506000600d601260009054906101000a90046001600160a01b03166001600160a01b0316635ec01e4d6040518163ffffffff1660e01b81526004016020604051808303816000875af1158015610df8573d6000803e3d6000fd5b505050506040513d601f19601f82011682018060405250810190610e1c91906131f5565b610e269190613224565b610e31906001613294565b9050600160ff861660048110610e4957610e49613179565b6003020160019081018054918201815560009081526020808220908304018054601f9093166101000a60ff818102199094169385160292909217909155610e91908690612409565b15610f8c577f41536a13788d0a4d884f225410b48ee888ce1f244032a29783f74f321a88cd5f85600160ff821660048110610ece57610ece613179565b60030201600101600181548110610ee757610ee7613179565b90600052602060002090602091828204019190069054906101000a900460ff1660016000018860ff1660048110610f2057610f20613179565b60030201600101600081548110610f3957610f39613179565b90600052602060002090602091828204019190069054906101000a900460ff1684610f649190613294565b610f6e9190613294565b6040805160ff93841681529290911660208301520160405180910390a15b7f76f79ba55614c6fd9a839698f6674fd0a80c3988d6594633c95fdd63814f676e600160ff871660048110610fc357610fc3613179565b60030201600101600181548110610fdc57610fdc613179565b90600052602060002090602091828204019190069054906101000a900460ff1660016000018760ff166004811061101557611015613179565b6003020160010160008154811061102e5761102e613179565b90600052602060002090602091828204019190069054906101000a900460ff16836110599190613294565b6110639190613294565b60405160ff909116815260200160405180910390a195945050505050565b82600160ff83166004811061109857611098613179565b600302016001016000815481106110b1576110b1613179565b90600052602060002090602091828204019190066101000a81548160ff021916908360ff1602179055508160016000018260ff16600481106110f5576110f5613179565b6003020160010160018154811061110e5761110e613179565b90600052602060002090602091828204019190066101000a81548160ff021916908360ff160217905550505050565b6060600160ff83166004811061115557611155613179565b600302016001018054806020026020016040519081016040528092919081815260200182805480156111c457602002820191906000526020600020906000905b825461010083900a900460ff168152602060019283018181049485019490930390920291018084116111955790505b50505050509050919050565b6111d8612488565b6111e260006124e2565b565b60408051610120810190915260009060018160a0810182600486835b828210156112f0578382600302016040518060c0016040529081600082015481526020016001820180548060200260200160405190810160405280929190818152602001828054801561129057602002820191906000526020600020906000905b825461010083900a900460ff168152602060019283018181049485019490930390920291018084116112615790505b50505091835250506002919091015460ff8082161515602080850191909152610100830482161515604085015262010000830482161515606085015263010000009092041615156080909201919091529082526001929092019101611200565b505050508152602001600c8201548152602001600d82016040518060c0016040529081600082015481526020016001820180548060200260200160405190810160405280929190818152602001828054801561138957602002820191906000526020600020906000905b825461010083900a900460ff1681526020600192830181810494850194909303909202910180841161135a5790505b50505091835250506002919091015460ff8082161515602080850191909152610100808404831615156040808701919091526201000085048416151560608701526301000000909404831615156080909501949094529385526010959095015480861693850193909352910490921615159101529050600061140b83826114ce565b825190915060ff84166004811061142457611424613179565b6020020151606001518015611464575060208201518251349060ff86166004811061145157611451613179565b6020020151516114619190613238565b11155b80156114745750600b8160ff1611155b8015611484575060098160ff1610155b80156114905750600034115b61149957600080fd5b34600160ff8516600481106114b0576114b0613179565b6003020180546000906114c4908490613238565b9091555050505050565b604080516101208101909152600090819060018160a0810182600486835b828210156115dc578382600302016040518060c0016040529081600082015481526020016001820180548060200260200160405190810160405280929190818152602001828054801561157c57602002820191906000526020600020906000905b825461010083900a900460ff1681526020600192830181810494850194909303909202910180841161154d5790505b50505091835250506002919091015460ff80821615156020808501919091526101008304821615156040850152620100008304821615156060850152630100000090920416151560809092019190915290825260019290920191016114ec565b505050508152602001600c8201548152602001600d82016040518060c0016040529081600082015481526020016001820180548060200260200160405190810160405280929190818152602001828054801561167557602002820191906000526020600020906000905b825461010083900a900460ff168152602060019283018181049485019490930390920291018084116116465790505b50505091835250506002919091015460ff80821615156020808501919091526101008084048316151560408087019190915262010000850484161515606087015263010000009094048316151560809095019490945293855260109590950154808616938501939093529104909216151591015290506000808461171757825160ff87166004811061170957611709613179565b602002015160200151611721565b8260400151602001515b80519091506000805b8260ff168110156117a857600084828151811061174957611749613179565b602002602001015190508060ff1660011461178b57600a8160ff161015611779576117748187613294565b611784565b61178486600a613294565b9550611797565b61179483613275565b92505b506117a1816131a5565b905061172a565b508360005b8260ff1681101561181f57601560016117c98360ff87166132ad565b6117d391906132ad565b6117de88600b613294565b60ff166117eb9190613238565b1115611801576117fa86613275565b955061180f565b61180c600b87613294565b95505b611818816131a5565b90506117ad565b506000808360ff1611801561184357506118398383613294565b60ff168660ff1614155b9050886118845780600160ff8c166004811061186157611861613179565b6003020160020160006101000a81548160ff021916908315150217905550611893565b6010805460ff19168215151790555b5093955050505050505b92915050565b6014546001600160a01b031633146118cd5760405162461bcd60e51b81526004016105c4906131be565b60408051610120810190915260009060018160a0810182600486835b828210156119d9578382600302016040518060c0016040529081600082015481526020016001820180548060200260200160405190810160405280929190818152602001828054801561197957602002820191906000526020600020906000905b825461010083900a900460ff1681526020600192830181810494850194909303909202910180841161194a5790505b50505091835250506002919091015460ff80821615156020808501919091526101008304821615156040850152620100008304821615156060850152630100000090920416151560809092019190915290825260019290920191016118e9565b505050508152602001600c8201548152602001600d82016040518060c00160405290816000820154815260200160018201805480602002602001604051908101604052809291908181526020018280548015611a7257602002820191906000526020600020906000905b825461010083900a900460ff16815260206001928301818104948501949093039092029101808411611a435790505b50505091835250506002919091015460ff808216151560208085019190915261010080840483161515604080870191909152620100008504841615156060870152630100000090940483161515608090950194909452938552601095909501548086169385019390935291049092161515910152905060005b816060015160ff16811015611b725781518160048110611b0d57611b0d613179565b602002015160a00151611b625760405162461bcd60e51b815260206004820152601b60248201527f4e6f7420616c6c2068616e6473206172652066696e697368656421000000000060448201526064016105c4565b611b6b816131a5565b9050611aeb565b508115611b8157611b8161219a565b60125460408051635ec01e4d60e01b815290516000926001600160a01b031691635ec01e4d916004808301926020929190829003018187875af1158015611bcc573d6000803e3d6000fd5b505050506040513d601f19601f82011682018060405250810190611bf091906131f5565b90506000611c00600060016114ce565b9050611c0a612532565b611cdb575b60158160ff1611611cdb5760128160ff16101580611c3e57508060ff166011148015611c3e575060105460ff16155b611cdb576000600d611c51606485613224565b611c5b9190613224565b611c66906001613238565b9050611c73606484613261565b600f8054600181810183556000928352602082047f8d1108e10bcb7c27dddfc02ed9d693a074039d026cf4ea4240b40f7d581ac80201805460ff808816601f9095166101000a9485029402191692909217909155919450611cd3916114ce565b915050611c0f565b6000805b846060015160ff168160ff161015611ea957611cfc8160006114ce565b915060158260ff161115611d4c576040805160ff8084168252841660208201527f8f5ad994571b74a184999f401db654a36da7f6509445622f8fc202553e74c67b910160405180910390a1611e99565b845160009060ff831660048110611d6557611d65613179565b602002015190151560609091015260ff80831690841603611dc3576040805160ff8084168252841660208201527fa178ea6eac46563a37bb946560ca4fc6dbe8a01cccece492a5e2c3ebde64606891015b60405180910390a1611e57565b60158360ff161180611dda57508260ff168260ff16115b15611e19576040805160ff8084168252841660208201527fea532b028595ca31cd96503d39a9745a409f96c6c31ab0e0e7e5879efd58e9c69101611db6565b6040805160ff8084168252841660208201527f8f5ad994571b74a184999f401db654a36da7f6509445622f8fc202553e74c67b910160405180910390a15b8160ff16601503611e995760405160ff821681527fb39e11924e83f1560d7f5a3b9ea63e91876a0cae8009c1cb7dd09ec32d85fc009060200160405180910390a15b611ea281613275565b9050611cdf565b50611eb3826127af565b5050505050565b600f80546040805160208084028201810190925282815260609390929091830182828015611f2557602002820191906000526020600020906000905b825461010083900a900460ff16815260206001928301818104948501949093039092029101808411611ef65790505b5050505050905090565b611f37612d83565b6040805160808101909152600160046000835b8282101561203a578382600302016040518060c00160405290816000820154815260200160018201805480602002602001604051908101604052809291908181526020018280548015611fda57602002820191906000526020600020906000905b825461010083900a900460ff16815260206001928301818104948501949093039092029101808411611fab5790505b50505091835250506002919091015460ff8082161515602080850191909152610100830482161515604085015262010000830482161515606085015263010000009092041615156080909201919091529082526001929092019101611f4a565b50505050905090565b61204b612488565b6001600160a01b0381166120b05760405162461bcd60e51b815260206004820152602660248201527f4f776e61626c653a206e6577206f776e657220697320746865207a65726f206160448201526564647265737360d01b60648201526084016105c4565b6120b9816124e2565b50565b600d546040805160c081018252600e80548252600f805484516020828102820181019096528181526001958086019391929083018282801561213b57602002820191906000526020600020906000905b825461010083900a900460ff1681526020600192830181810494850194909303909202910180841161210c5790505b50505091835250506002919091015460ff80821615156020840152610100808304821615156040850152620100008304821615156060850152630100000090920481161515608090930192909252601090930154919282821692041684565b60408051610120810190915260009060018160a0810182600486835b828210156122a6578382600302016040518060c0016040529081600082015481526020016001820180548060200260200160405190810160405280929190818152602001828054801561224657602002820191906000526020600020906000905b825461010083900a900460ff168152602060019283018181049485019490930390920291018084116122175790505b50505091835250506002919091015460ff80821615156020808501919091526101008304821615156040850152620100008304821615156060850152630100000090920416151560809092019190915290825260019290920191016121b6565b505050508152602001600c8201548152602001600d82016040518060c0016040529081600082015481526020016001820180548060200260200160405190810160405280929190818152602001828054801561233f57602002820191906000526020600020906000905b825461010083900a900460ff168152602060019283018181049485019490930390920291018084116123105790505b50505091835250506002919091015460ff8082161515602080850191909152610100808404831615156040808701919091526201000085048416151560608701526301000000909404831615156080909501949094529385526010959095015480861685850152919091049093161515918301919091529082015101518051919250906000906123d1576123d1613179565b602002602001015160ff1660011480156123ee5750806020015134145b6123f757600080fd5b506011805461ff001916610100179055565b6000601561241784846114ce565b60ff161160016000018460ff166004811061243457612434613179565b6003020160020160026101000a81548160ff02191690831515021790555060016000018360ff166004811061246b5761246b613179565b6003020160020160029054906101000a900460ff16905092915050565b6000546001600160a01b031633146111e25760405162461bcd60e51b815260206004820181905260248201527f4f776e61626c653a2063616c6c6572206973206e6f7420746865206f776e657260448201526064016105c4565b600080546001600160a01b038381166001600160a01b0319831681178455604051919092169283917f8be0079c531659141344cd1fd0a4f28419497f9722a3daafe3b4186f6b6457e09190a35050565b604080516101208101909152600090819060018160a0810182600486835b82821015612640578382600302016040518060c001604052908160008201548152602001600182018054806020026020016040519081016040528092919081815260200182805480156125e057602002820191906000526020600020906000905b825461010083900a900460ff168152602060019283018181049485019490930390920291018084116125b15790505b50505091835250506002919091015460ff8082161515602080850191909152610100830482161515604085015262010000830482161515606085015263010000009092041615156080909201919091529082526001929092019101612550565b505050508152602001600c8201548152602001600d82016040518060c001604052908160008201548152602001600182018054806020026020016040519081016040528092919081815260200182805480156126d957602002820191906000526020600020906000905b825461010083900a900460ff168152602060019283018181049485019490930390920291018084116126aa5790505b50505091835250506002919091015460ff808216151560208085019190915261010080840483161515604080870191909152620100008504841615156060870152630100000090940483161515608090950194909452938552601095909501548086169385019390935291049092161515910152905060005b816060015160ff168110156127a6578151600090826004811061277757612777613179565b6020020151901580156080909201919091526127965760009250505090565b61279f816131a5565b9050612752565b50600191505090565b601454600160a01b900460ff16156128095760405162461bcd60e51b815260206004820152601860248201527f506c6179657220616c72656164792070616964206f757421000000000000000060448201526064016105c4565b6014805460ff60a01b1916600160a01b17905560408051610120810190915260009060018160a0810182600486835b82821015612928578382600302016040518060c001604052908160008201548152602001600182018054806020026020016040519081016040528092919081815260200182805480156128c857602002820191906000526020600020906000905b825461010083900a900460ff168152602060019283018181049485019490930390920291018084116128995790505b50505091835250506002919091015460ff8082161515602080850191909152610100830482161515604085015262010000830482161515606085015263010000009092041615156080909201919091529082526001929092019101612838565b505050508152602001600c8201548152602001600d82016040518060c001604052908160008201548152602001600182018054806020026020016040519081016040528092919081815260200182805480156129c157602002820191906000526020600020906000905b825461010083900a900460ff168152602060019283018181049485019490930390920291018084116129925790505b50505091835250506002919091015460ff80821615156020808501919091526101008084048316151560408087019190915262010000850484161515606087015263010000009094048316151560809095019490945293855260109590950154808616858501529190910490931615159190920152810151909150600080805b846060015160ff168160ff161015612b5c57612a5e8160006114ce565b91508560ff168260ff16118015612a7d5750612a7b816000612409565b155b15612b0c5760158260ff1611612adb578160ff166015148015612abf5750845160ff821660048110612ab157612ab1613179565b602002015160200151516002145b612acd57600184901b612ad6565b600184901c6005025b830192505b845160019060ff831660048110612af457612af4613179565b602002015151612b05911b84613238565b9250612b4c565b8560ff168260ff1603612b4c57845160ff821660048110612b2f57612b2f613179565b602002015151612b3f9085613238565b612b499084613238565b92505b612b5581613275565b9050612a41565b50836040015160200151516002148015612b7957508460ff166015145b8015612b86575083608001515b15612b9c57612b99600184901b83613238565b91505b6013546040516000916001600160a01b03169047908381818185875af1925050503d8060008114612be9576040519150601f19603f3d011682016040523d82523d6000602084013e612bee565b606091505b5050905080612c335760405162461bcd60e51b8152602060048201526011602482015270139bdd081cd95b9d081d1bc81d985d5b1d607a1b60448201526064016105c4565b8215612cd5576040518381527f581d416ae9dff30c9305c2b35cb09ed5991897ab97804db29ccf92678e9531609060200160405180910390a1601354601454604051634d1a8de160e01b8152600481018690526001600160a01b039182166024820152911690634d1a8de190604401600060405180830381600087803b158015612cbc57600080fd5b505af1158015612cd0573d6000803e3d6000fd5b505050505b505050505050565b82805482825590600052602060002090601f01602090048101928215612d735791602002820160005b83821115612d4457835183826101000a81548160ff021916908360ff1602179055509260200192600101602081600001049283019260010302612d06565b8015612d715782816101000a81549060ff0219169055600101602081600001049283019260010302612d44565b505b50612d7f929150612dd7565b5090565b60405180608001604052806004905b6040805160c08101825260008082526060602080840182905293830182905282018190526080820181905260a08201528252600019909201910181612d925790505090565b5b80821115612d7f5760008155600101612dd8565b803560ff81168114612dfd57600080fd5b919050565b60008060408385031215612e1557600080fd5b612e1e83612dec565b9150612e2c60208401612dec565b90509250929050565b600080600060408486031215612e4a57600080fd5b833567ffffffffffffffff80821115612e6257600080fd5b818601915086601f830112612e7657600080fd5b813581811115612e8557600080fd5b8760208260051b8501011115612e9a57600080fd5b602092830195509350612eb09186019050612dec565b90509250925092565b600060208284031215612ecb57600080fd5b612ed482612dec565b9392505050565b80358015158114612dfd57600080fd5b60008060408385031215612efe57600080fd5b612e1e83612edb565b600080600060608486031215612f1c57600080fd5b612f2584612dec565b9250612f3360208501612dec565b9150612eb060408501612dec565b6020808252825182820181905260009190848201906040850190845b81811015612f7c57835160ff1683529284019291840191600101612f5d565b50909695505050505050565b60008060408385031215612f9b57600080fd5b612fa483612dec565b9150612e2c60208401612edb565b600060208284031215612fc457600080fd5b612ed482612edb565b60008060008060808587031215612fe357600080fd5b612fec85612edb565b9350612ffa60208601612edb565b925061300860408601612edb565b915061301660608601612edb565b905092959194509250565b600060c083018251845260208084015160c08287015282815180855260e0880191508383019450600092505b8083101561307057845160ff16825293830193600192909201919083019061304d565b5060408601519350613086604088018515159052565b6060860151935061309b606088018515159052565b608086015193506130b0608088018515159052565b60a086015193506130c560a088018515159052565b9695505050505050565b602080825260009060a0830183820185845b600481101561311057601f198785030183526130fe848351613021565b935091840191908401906001016130e1565b50919695505050505050565b60006020828403121561312e57600080fd5b81356001600160a01b0381168114612ed457600080fd5b84815260806020820152600061315e6080830186613021565b60ff9490941660408301525090151560609091015292915050565b634e487b7160e01b600052603260045260246000fd5b634e487b7160e01b600052601160045260246000fd5b6000600182016131b7576131b761318f565b5060010190565b6020808252601f908201527f4d75737420626520706c6179657220746f2063616c6c2066756e6374696f6e00604082015260600190565b60006020828403121561320757600080fd5b5051919050565b634e487b7160e01b600052601260045260246000fd5b6000826132335761323361320e565b500690565b8082018082111561189d5761189d61318f565b634e487b7160e01b600052604160045260246000fd5b6000826132705761327061320e565b500490565b600060ff821660ff810361328b5761328b61318f565b60010192915050565b60ff818116838216019081111561189d5761189d61318f565b8181038181111561189d5761189d61318f56fea2646970667358221220b7e302c0bae63db6f79de77f2f4eb914a235e28b748f13010a04aaa1fffe970964736f6c63430008150033",
    "linkReferences": {}
  },
  "methodIdentifiers": {
    "addPlayerCards(uint8[],uint8)": "1d6c4e3b",
    "dealer()": "9de2ee21",
    "doubleDown(uint8)": "720d984e",
    "gameData()": "fa24f743",
    "getBetAmount()": "fde41e29",
    "getCardsFromHand(uint8)": "5a20d60b",
    "getDealerCards()": "974ee4d8",
    "getHandSum(uint8,bool)": "7b2f76a7",
    "getHands()": "e8fa988d",
    "getInsurance()": "267a8da0",
    "getNextOpenHandSlot()": "5db060ee",
    "hit(bool,uint8)": "34e6a776",
    "markFinished(bool,bool,bool,bool)": "b2c836d3",
    "owner()": "8da5cb5b",
    "paidOut()": "5c76ca2d",
    "player()": "48db5f89",
    "renounceOwnership()": "715018a6",
    "setDealerCards(uint8,uint8)": "1707ea98",
    "setPlayerCards(uint8,uint8,uint8)": "40e2e20c",
    "split(uint8)": "1ef44aed",
    "stand(bool)": "9648380c",
    "transferOwnership(address)": "f2fde38b",
    "vault()": "fbfa77cf"
  },
  "id": 21
}