{
  "abi": [
    {
      "inputs": [
        {
          "internalType": "address payable",
          "name": "_vault",
          "type": "address"
        },
        {
          "internalType": "address",
          "name": "_dealer",
          "type": "address"
        }
      ],
      "stateMutability": "payable",
      "type": "constructor"
    },
    {
      "anonymous": false,
      "inputs": [
        {
          "indexed": false,
          "internalType": "uint8",
          "name": "",
          "type": "uint8"
        }
      ],
      "name": "Bust",
      "type": "event"
    },
    {
      "anonymous": false,
      "inputs": [
        {
          "indexed": false,
          "internalType": "uint8",
          "name": "",
          "type": "uint8"
        }
      ],
      "name": "Hit",
      "type": "event"
    },
    {
      "anonymous": false,
      "inputs": [
        {
          "indexed": false,
          "internalType": "uint8",
          "name": "",
          "type": "uint8"
        }
      ],
      "name": "Loss",
      "type": "event"
    },
    {
      "anonymous": false,
      "inputs": [
        {
          "indexed": true,
          "internalType": "address",
          "name": "previousOwner",
          "type": "address"
        },
        {
          "indexed": true,
          "internalType": "address",
          "name": "newOwner",
          "type": "address"
        }
      ],
      "name": "OwnershipTransferred",
      "type": "event"
    },
    {
      "anonymous": false,
      "inputs": [
        {
          "indexed": false,
          "internalType": "uint256",
          "name": "",
          "type": "uint256"
        }
      ],
      "name": "Paid",
      "type": "event"
    },
    {
      "anonymous": false,
      "inputs": [],
      "name": "PlayerBlackjack",
      "type": "event"
    },
    {
      "anonymous": false,
      "inputs": [
        {
          "indexed": false,
          "internalType": "uint8",
          "name": "",
          "type": "uint8"
        }
      ],
      "name": "Push",
      "type": "event"
    },
    {
      "anonymous": false,
      "inputs": [
        {
          "indexed": false,
          "internalType": "uint8",
          "name": "",
          "type": "uint8"
        }
      ],
      "name": "Split",
      "type": "event"
    },
    {
      "anonymous": false,
      "inputs": [
        {
          "indexed": false,
          "internalType": "uint8",
          "name": "",
          "type": "uint8"
        }
      ],
      "name": "Win",
      "type": "event"
    },
    {
      "inputs": [
        {
          "internalType": "uint8[]",
          "name": "_cards",
          "type": "uint8[]"
        },
        {
          "internalType": "uint8",
          "name": "handNum",
          "type": "uint8"
        }
      ],
      "name": "addPlayerCards",
      "outputs": [],
      "stateMutability": "nonpayable",
      "type": "function"
    },
    {
      "inputs": [],
      "name": "cleanup",
      "outputs": [],
      "stateMutability": "nonpayable",
      "type": "function"
    },
    {
      "inputs": [],
      "name": "dealer",
      "outputs": [
        {
          "internalType": "contract Dealer",
          "name": "",
          "type": "address"
        }
      ],
      "stateMutability": "view",
      "type": "function"
    },
    {
      "inputs": [
        {
          "internalType": "uint8",
          "name": "handNum",
          "type": "uint8"
        }
      ],
      "name": "doubleDown",
      "outputs": [],
      "stateMutability": "payable",
      "type": "function"
    },
    {
      "inputs": [],
      "name": "gameData",
      "outputs": [
        {
          "internalType": "uint256",
          "name": "betAmount",
          "type": "uint256"
        },
        {
          "internalType": "uint256",
          "name": "doubleDownAmount",
          "type": "uint256"
        },
        {
          "components": [
            {
              "internalType": "uint8[]",
              "name": "cards",
              "type": "uint8[]"
            },
            {
              "internalType": "bool",
              "name": "soft",
              "type": "bool"
            },
            {
              "internalType": "bool",
              "name": "firstTurn",
              "type": "bool"
            },
            {
              "internalType": "bool",
              "name": "finished",
              "type": "bool"
            }
          ],
          "internalType": "struct Blackjack.Hand",
          "name": "dealerHand",
          "type": "tuple"
        },
        {
          "internalType": "uint8",
          "name": "nextOpenHandSlot",
          "type": "uint8"
        },
        {
          "internalType": "bool",
          "name": "insurance",
          "type": "bool"
        }
      ],
      "stateMutability": "view",
      "type": "function"
    },
    {
      "inputs": [],
      "name": "getBetAmount",
      "outputs": [
        {
          "internalType": "uint256",
          "name": "",
          "type": "uint256"
        }
      ],
      "stateMutability": "view",
      "type": "function"
    },
    {
      "inputs": [
        {
          "internalType": "uint8",
          "name": "handNum",
          "type": "uint8"
        }
      ],
      "name": "getCardsFromHand",
      "outputs": [
        {
          "internalType": "uint8[]",
          "name": "",
          "type": "uint8[]"
        }
      ],
      "stateMutability": "view",
      "type": "function"
    },
    {
      "inputs": [],
      "name": "getDealerCards",
      "outputs": [
        {
          "internalType": "uint8[]",
          "name": "",
          "type": "uint8[]"
        }
      ],
      "stateMutability": "view",
      "type": "function"
    },
    {
      "inputs": [
        {
          "internalType": "uint8",
          "name": "handNum",
          "type": "uint8"
        },
        {
          "internalType": "bool",
          "name": "_dealer",
          "type": "bool"
        }
      ],
      "name": "getHandSum",
      "outputs": [
        {
          "internalType": "uint8",
          "name": "",
          "type": "uint8"
        }
      ],
      "stateMutability": "nonpayable",
      "type": "function"
    },
    {
      "inputs": [],
      "name": "getHands",
      "outputs": [
        {
          "components": [
            {
              "internalType": "uint8[]",
              "name": "cards",
              "type": "uint8[]"
            },
            {
              "internalType": "bool",
              "name": "soft",
              "type": "bool"
            },
            {
              "internalType": "bool",
              "name": "firstTurn",
              "type": "bool"
            },
            {
              "internalType": "bool",
              "name": "finished",
              "type": "bool"
            }
          ],
          "internalType": "struct Blackjack.Hand[4]",
          "name": "",
          "type": "tuple[4]"
        }
      ],
      "stateMutability": "view",
      "type": "function"
    },
    {
      "inputs": [],
      "name": "getInsurance",
      "outputs": [
        {
          "internalType": "bool",
          "name": "",
          "type": "bool"
        }
      ],
      "stateMutability": "view",
      "type": "function"
    },
    {
      "inputs": [],
      "name": "getNextOpenHandSlot",
      "outputs": [
        {
          "internalType": "uint8",
          "name": "",
          "type": "uint8"
        }
      ],
      "stateMutability": "view",
      "type": "function"
    },
    {
      "inputs": [
        {
          "internalType": "bool",
          "name": "_insurance",
          "type": "bool"
        },
        {
          "internalType": "uint8",
          "name": "handNum",
          "type": "uint8"
        }
      ],
      "name": "hit",
      "outputs": [
        {
          "internalType": "uint8",
          "name": "",
          "type": "uint8"
        }
      ],
      "stateMutability": "payable",
      "type": "function"
    },
    {
      "inputs": [],
      "name": "owner",
      "outputs": [
        {
          "internalType": "address",
          "name": "",
          "type": "address"
        }
      ],
      "stateMutability": "view",
      "type": "function"
    },
    {
      "inputs": [],
      "name": "player",
      "outputs": [
        {
          "internalType": "address",
          "name": "",
          "type": "address"
        }
      ],
      "stateMutability": "view",
      "type": "function"
    },
    {
      "inputs": [],
      "name": "renounceOwnership",
      "outputs": [],
      "stateMutability": "nonpayable",
      "type": "function"
    },
    {
      "inputs": [
        {
          "internalType": "uint8",
          "name": "_card1",
          "type": "uint8"
        },
        {
          "internalType": "uint8",
          "name": "_card2",
          "type": "uint8"
        }
      ],
      "name": "setDealerCards",
      "outputs": [],
      "stateMutability": "nonpayable",
      "type": "function"
    },
    {
      "inputs": [
        {
          "internalType": "uint8",
          "name": "_card1",
          "type": "uint8"
        },
        {
          "internalType": "uint8",
          "name": "_card2",
          "type": "uint8"
        },
        {
          "internalType": "uint8",
          "name": "handNum",
          "type": "uint8"
        }
      ],
      "name": "setPlayerCards",
      "outputs": [],
      "stateMutability": "nonpayable",
      "type": "function"
    },
    {
      "inputs": [
        {
          "internalType": "uint8",
          "name": "handNum",
          "type": "uint8"
        }
      ],
      "name": "split",
      "outputs": [],
      "stateMutability": "payable",
      "type": "function"
    },
    {
      "inputs": [
        {
          "internalType": "bool",
          "name": "_insurance",
          "type": "bool"
        },
        {
          "internalType": "uint8",
          "name": "handNum",
          "type": "uint8"
        }
      ],
      "name": "stand",
      "outputs": [],
      "stateMutability": "payable",
      "type": "function"
    },
    {
      "inputs": [
        {
          "internalType": "address",
          "name": "newOwner",
          "type": "address"
        }
      ],
      "name": "transferOwnership",
      "outputs": [],
      "stateMutability": "nonpayable",
      "type": "function"
    },
    {
      "inputs": [],
      "name": "vault",
      "outputs": [
        {
          "internalType": "contract Vault",
          "name": "",
          "type": "address"
        }
      ],
      "stateMutability": "view",
      "type": "function"
    }
  ],
  "bytecode": {
    "object": "0x608060405260405162002d2138038062002d21833981016040819052620000269162000293565b62000031336200022a565b60003411620000865760405162461bcd60e51b815260206004820152601d60248201527f4e65656420746f20706c61636520616e20696e697469616c2062657421000000604482015260640160405180910390fd5b600f80546001600160a01b038085166001600160a01b031992831617909255600e805492841692821683179055601080549091163317905560408051635ec01e4d60e01b8152905160009291635ec01e4d916004808301926020929190829003018187875af1158015620000fe573d6000803e3d6000fd5b505050506040513d601f19601f82011682018060405250810190620001249190620002d2565b60018054808201825560208082047fb10e2d527612073b26eecdfd717e6a320cf44b4afac2b0732d9fcbe2b7fa0cf69081018054601f94851661010090810a60ff81810219909316600d808b068a0185169290920217909355600b80548089019091557f0175b7a638427703f0dbe7bb9bbf987a2551717b34e79f33b5b1008d1fa01db986820401805460648b048690068a018516928916840a928302928502191691909117905586548088018855600088905294850490930180546127109098048390068701821694909516830a938402930219909516919091179091553460095582546002805461ff00191690921790915561ffff191617905550620002ec915050565b600080546001600160a01b038381166001600160a01b0319831681178455604051919092169283917f8be0079c531659141344cd1fd0a4f28419497f9722a3daafe3b4186f6b6457e09190a35050565b6001600160a01b03811681146200029057600080fd5b50565b60008060408385031215620002a757600080fd5b8251620002b4816200027a565b6020840151909250620002c7816200027a565b809150509250929050565b600060208284031215620002e557600080fd5b5051919050565b612a2580620002fc6000396000f3fe6080604052600436106101355760003560e01c8063720d984e116100ab5780639de2ee211161006f5780639de2ee2114610321578063e8fa988d14610341578063f2fde38b14610363578063fa24f74314610383578063fbfa77cf146103a9578063fde41e29146103c957600080fd5b8063720d984e146102a8578063743922b8146102bb5780637b2f76a7146102ce5780638da5cb5b146102ee578063974ee4d81461030c57600080fd5b80633cecd719116100fd5780633cecd719146101e157806340e2e20c146101f657806348db5f89146102165780635a20d60b1461024e5780635db060ee1461027b578063715018a61461029357600080fd5b80631707ea981461013a5780631d6c4e3b1461015c5780631ef44aed1461017c578063267a8da01461018f57806334e6a776146101bc575b600080fd5b34801561014657600080fd5b5061015a61015536600461259a565b6103e7565b005b34801561016857600080fd5b5061015a6101773660046125cd565b61047b565b61015a61018a366004612651565b610514565b34801561019b57600080fd5b50600d54610100900460ff1660405190151581526020015b60405180910390f35b6101cf6101ca36600461267c565b610a22565b60405160ff90911681526020016101b3565b3480156101ed57600080fd5b5061015a610daa565b34801561020257600080fd5b5061015a610211366004612698565b6110ab565b34801561022257600080fd5b50601054610236906001600160a01b031681565b6040516001600160a01b0390911681526020016101b3565b34801561025a57600080fd5b5061026e610269366004612651565b611161565b6040516101b391906126d2565b34801561028757600080fd5b50600d5460ff166101cf565b34801561029f57600080fd5b5061015a6111ee565b61015a6102b6366004612651565b611202565b61015a6102c936600461267c565b611451565b3480156102da57600080fd5b506101cf6102e9366004612719565b61182a565b3480156102fa57600080fd5b506000546001600160a01b0316610236565b34801561031857600080fd5b5061026e611a4d565b34801561032d57600080fd5b50600e54610236906001600160a01b031681565b34801561034d57600080fd5b50610356611ac2565b6040516101b391906127b8565b34801561036f57600080fd5b5061015a61037e366004612805565b611bb2565b34801561038f57600080fd5b50610398611c2b565b6040516101b395949392919061282e565b3480156103b557600080fd5b50600f54610236906001600160a01b031681565b3480156103d557600080fd5b506009546040519081526020016101b3565b600b80548391906000906103fd576103fd612869565b6000918252602080832081830401805460ff958616601f94851661010090810a9182029188021990921617909155600b805460018101825594529083047f0175b7a638427703f0dbe7bb9bbf987a2551717b34e79f33b5b1008d1fa01db901805495851693909216900a918202919092021990921691909117905550565b60005b8281101561050e57600160ff83166004811061049c5761049c612869565b600202018484838181106104b2576104b2612869565b90506020020160208101906104c79190612651565b81546001810183556000928352602092839020928104909201805460ff928316601f9094166101000a938402929093021990921617905561050781612895565b905061047e565b50505050565b6010546001600160a01b031633146105475760405162461bcd60e51b815260040161053e906128ae565b60405180910390fd5b80600160ff82166004811061055e5761055e612869565b60020201546000036105825760405162461bcd60e51b815260040161053e906128e5565b6000600160ff84166004811061059a5761059a612869565b6002020180546040805160208084028201810190925282815292919083018282801561060357602002820191906000526020600020906000905b825461010083900a900460ff168152602060019283018181049485019490930390920291018084116105d45790505b505050505090508060018151811061061d5761061d612869565b602002602001015160ff168160008151811061063b5761063b612869565b602002602001015160ff16146106895760405162461bcd60e51b8152602060048201526013602482015272139959590818481c185a5c881a5b881a185b99606a1b604482015260640161053e565b60095434146106da5760405162461bcd60e51b815260206004820152601a60248201527f4e65656420746f206d61746368206f726967696e616c20626574000000000000604482015260640161053e565b600d54600460ff909116106107315760405162461bcd60e51b815260206004820152601c60248201527f43616e206f6e6c792073706c697420746f20666f75722068616e647300000000604482015260640161053e565b600e5460408051635ec01e4d60e01b815290516000926001600160a01b031691635ec01e4d916004808301926020929190829003018187875af115801561077c573d6000803e3d6000fd5b505050506040513d601f19601f820116820180604052508101906107a0919061290b565b905060006107af600d8361293a565b6107ba90600161294e565b905080600160ff8716600481106107d3576107d3612869565b60020201805460019081106107ea576107ea612869565b90600052602060002090602091828204019190066101000a81548160ff021916908360ff1602179055506000600267ffffffffffffffff81111561083057610830612961565b604051908082528060200260200182016040528015610859578160200160208202803683370190505b5090506000600d61086b606486612977565b610875919061293a565b61088090600161294e565b90508460018151811061089557610895612869565b6020026020010151826000815181106108b0576108b0612869565b602002602001019060ff16908160ff168152505080826001815181106108d8576108d8612869565b60ff928316602091820292909201810191909152604080516080810182528581526000928101839052600191810182905260608101839052600d8054919492939190921691906109278361298b565b91906101000a81548160ff021916908360ff16021790555060ff166004811061095257610952612869565b600202016000820151816000019080519060200190610972929190612482565b5060208201516001909101805460408401516060909401511515620100000262ff0000199415156101000261ff00199415159490941661ffff1990921691909117929092179290921617905584517f738fbb20ac06733db9d189b456de5d77d03f3f832ea1da86c2a1569fbfd711c69086906000906109f3576109f3612869565b6020026020010151604051610a11919060ff91909116815260200190565b60405180910390a150505050505050565b6010546000906001600160a01b03163314610a4f5760405162461bcd60e51b815260040161053e906128ae565b81600160ff821660048110610a6657610a66612869565b6002020154600003610a8a5760405162461bcd60e51b815260040161053e906128e5565b8315610a9957610a9983611cf0565b6000600160ff851660048110610ab157610ab1612869565b6002020160010160016101000a81548160ff0219169083151502179055506000600d600e60009054906101000a90046001600160a01b03166001600160a01b0316635ec01e4d6040518163ffffffff1660e01b81526004016020604051808303816000875af1158015610b28573d6000803e3d6000fd5b505050506040513d601f19601f82011682018060405250810190610b4c919061290b565b610b56919061293a565b610b619060016129aa565b9050600160ff851660048110610b7957610b79612869565b6002020180546001810182556000918252602080832090820401805460ff808616601f9094166101000a93840293021916919091179055610bbb908590611f59565b15610cbc577f7ed0b9d88fc0672a79b9f48e433842d27015f2e5ca611abe22218ed0737ac84e600160ff861660048110610bf757610bf7612869565b6002020180546001908110610c0e57610c0e612869565b90600052602060002090602091828204019190069054906101000a900460ff1660016000018660ff1660048110610c4757610c47612869565b600202018054600090610c5c57610c5c612869565b90600052602060002090602091828204019190069054906101000a900460ff1683610c8791906129aa565b610c9191906129aa565b60405160ff909116815260200160405180910390a1610cbc84610cb586600061182a565b6015611f72565b7f76f79ba55614c6fd9a839698f6674fd0a80c3988d6594633c95fdd63814f676e600160ff861660048110610cf357610cf3612869565b6002020180546001908110610d0a57610d0a612869565b90600052602060002090602091828204019190069054906101000a900460ff1660016000018660ff1660048110610d4357610d43612869565b600202018054600090610d5857610d58612869565b90600052602060002090602091828204019190069054906101000a900460ff1683610d8391906129aa565b610d8d91906129aa565b60405160ff909116815260200160405180910390a1949350505050565b60408051610140810190915260009060018160c0810182600486835b82821015610e925760408051600284028601805460a060208202840181019094526080830181815292939192849290918491840182828015610e4557602002820191906000526020600020906000905b825461010083900a900460ff16815260206001928301818104948501949093039092029101808411610e165790505b505050918352505060019182015460ff8082161515602080850191909152610100830482161515604085015262010000909204161515606090920191909152918352929092019101610dc6565b5050505081526020016008820154815260200160098201548152602001600a820160405180608001604052908160008201805480602002602001604051908101604052809291908181526020018280548015610f2b57602002820191906000526020600020906000905b825461010083900a900460ff16815260206001928301818104948501949093039092029101808411610efc5790505b50505091835250506001919091015460ff8082161515602080850191909152610100808404831615156040808701919091526201000090940483161515606090950194909452938552600c95909501548086169385019390935291049092161515910152905060005b816080015160ff1681101561100f5781518160048110610fb657610fb6612869565b602002015160600151610fff5760405162461bcd60e51b815260206004820152601160248201527011d85b59481b9bdd08199a5b9a5cda1959607a1b604482015260640161053e565b61100881612895565b9050610f94565b50600f546040516000916001600160a01b03169047908381818185875af1925050503d806000811461105d576040519150601f19603f3d011682016040523d82523d6000602084013e611062565b606091505b50509050806110a75760405162461bcd60e51b8152602060048201526011602482015270139bdd081cd95b9d081d1bc81d985d5b1d607a1b604482015260640161053e565b5050565b82600160ff8316600481106110c2576110c2612869565b6002020180546000906110d7576110d7612869565b90600052602060002090602091828204019190066101000a81548160ff021916908360ff1602179055508160016000018260ff166004811061111b5761111b612869565b600202018054600190811061113257611132612869565b90600052602060002090602091828204019190066101000a81548160ff021916908360ff160217905550505050565b6060600160ff83166004811061117957611179612869565b600202018054604080516020808402820181019092528281529291908301828280156111e257602002820191906000526020600020906000905b825461010083900a900460ff168152602060019283018181049485019490930390920291018084116111b35790505b50505050509050919050565b6111f66123ba565b6112006000612414565b565b60408051610140810190915260009060018160c0810182600486835b828210156112ea5760408051600284028601805460a06020820284018101909452608083018181529293919284929091849184018282801561129d57602002820191906000526020600020906000905b825461010083900a900460ff1681526020600192830181810494850194909303909202910180841161126e5790505b505050918352505060019182015460ff808216151560208085019190915261010083048216151560408501526201000090920416151560609092019190915291835292909201910161121e565b5050505081526020016008820154815260200160098201548152602001600a82016040518060800160405290816000820180548060200260200160405190810160405280929190818152602001828054801561138357602002820191906000526020600020906000905b825461010083900a900460ff168152602060019283018181049485019490930390920291018084116113545790505b50505091835250506001919091015460ff8082161515602080850191909152610100808404831615156040808701919091526201000090940483161515606090950194909452938552600c95909501548086169385019390935291049092161515910152905060006113f5838261182a565b905060026114046009836129c3565b60ff1611158015611419575081602001513411155b825160ff85166004811061142f5761142f612869565b6020020151901515604090910181905261144857600080fd5b505034600a5550565b6010546001600160a01b0316331461147b5760405162461bcd60e51b815260040161053e906128ae565b80600160ff82166004811061149257611492612869565b60020201546000036114b65760405162461bcd60e51b815260040161053e906128e5565b600160ff8316600481106114cc576114cc612869565b6002020160010160029054906101000a900460ff16156115265760405162461bcd60e51b815260206004820152601560248201527412185b9908185b1c9958591e48199a5b9a5cda1959605a1b604482015260640161053e565b60018060ff84166004811061153d5761153d612869565b6002020160010160026101000a81548160ff021916908315150217905550821561156a5761156a82611cf0565b6000600160ff84166004811061158257611582612869565b6002020160010160016101000a81548160ff0219169083151502179055506000600e60009054906101000a90046001600160a01b03166001600160a01b0316635ec01e4d6040518163ffffffff1660e01b81526004016020604051808303816000875af11580156115f7573d6000803e3d6000fd5b505050506040513d601f19601f8201168201806040525081019061161b919061290b565b9050600061162a84600061182a565b9050600061163a6000600161182a565b90505b611648601583612464565b60ff168160ff16116117135760128160ff1610158061167857508060ff1660111480156116785750600c5460ff16155b61171357600061169e61168c600d8661293a565b61169790600161294e565b600a612464565b90506116ab606485612977565b600b8054600181810183556000928352602082047f0175b7a638427703f0dbe7bb9bbf987a2551717b34e79f33b5b1008d1fa01db901805460ff808816601f9095166101000a948502940219169290921790915591955061170b9161182a565b91505061163d565b8160ff168160ff160361175c5760405160ff831681527fb4891788e5aeae0a7c35bc54a5c88724c39b101c0efcbf08357254a031870b74906020015b60405180910390a16117e2565b60158160ff16118061177357508060ff168260ff16115b156117ab5760405160ff831681527f1bf0bb3b8aecbdd715eacadcfc823650fc174b037c21da88af0beb4f55bfe4e99060200161174f565b60405160ff831681527fdf7e02b4cc7d28bf9e9c21e7c83f9a8d0926b26168fdc0a43393fe57ddaed8289060200160405180910390a15b6117ed858383611f72565b8160ff16601503611822576040517fac12b2cd30b1f4db38d94e07d1376d0a700299ee9f243744847703a0b55ef5af90600090a15b505050505050565b60008060008361185357600160ff86166004811061184a5761184a612869565b60020201611856565b600b5b8054806020026020016040519081016040528092919081815260200182805480156118be57602002820191906000526020600020906000905b825461010083900a900460ff1681526020600192830181810494850194909303909202910180841161188f5790505b505050505090506000815190506000805b8260ff1681101561194d5760008482815181106118ee576118ee612869565b602002602001015190508060ff1660011461193057600a8160ff16101561191e5761191981876129aa565b611929565b61192986600a6129aa565b955061193c565b6119398361298b565b92505b5061194681612895565b90506118cf565b5060005b8160ff168110156119c3576015600161196d8360ff86166129dc565b61197791906129dc565b61198287600b6129aa565b60ff1661198f919061294e565b11156119a55761199e8561298b565b94506119b3565b6119b0600b866129aa565b94505b6119bc81612895565b9050611951565b5085611a1857600b8460ff161180156119df575060008160ff16115b600160ff8916600481106119f5576119f5612869565b6002020160010160006101000a81548160ff021916908315150217905550611a40565b600b8460ff16118015611a2e575060008160ff16115b600c805460ff19169115159190911790555b5091925050505b92915050565b600b80546040805160208084028201810190925282815260609390929091830182828015611ab857602002820191906000526020600020906000905b825461010083900a900460ff16815260206001928301818104948501949093039092029101808411611a895790505b5050505050905090565b611aca612528565b6040805160808101909152600160046000835b82821015611ba95760408051600284028601805460a060208202840181019094526080830181815292939192849290918491840182828015611b5c57602002820191906000526020600020906000905b825461010083900a900460ff16815260206001928301818104948501949093039092029101808411611b2d5790505b505050918352505060019182015460ff8082161515602080850191909152610100830482161515604085015262010000909204161515606090920191909152918352929092019101611add565b50505050905090565b611bba6123ba565b6001600160a01b038116611c1f5760405162461bcd60e51b815260206004820152602660248201527f4f776e61626c653a206e6577206f776e657220697320746865207a65726f206160448201526564647265737360d01b606482015260840161053e565b611c2881612414565b50565b600954600a5460408051600b805460a060208202840181019094526080830181815260019484928491840182828015611ca157602002820191906000526020600020906000905b825461010083900a900460ff16815260206001928301818104948501949093039092029101808411611c725790505b50505091835250506001919091015460ff808216151560208401526101008083048216151560408501526201000090920481161515606090930192909252600c90930154919282821692041685565b60408051610140810190915260009060018160c0810182600486835b82821015611dd85760408051600284028601805460a060208202840181019094526080830181815292939192849290918491840182828015611d8b57602002820191906000526020600020906000905b825461010083900a900460ff16815260206001928301818104948501949093039092029101808411611d5c5790505b505050918352505060019182015460ff8082161515602080850191909152610100830482161515604085015262010000909204161515606090920191909152918352929092019101611d0c565b5050505081526020016008820154815260200160098201548152602001600a820160405180608001604052908160008201805480602002602001604051908101604052809291908181526020018280548015611e7157602002820191906000526020600020906000905b825461010083900a900460ff16815260206001928301818104948501949093039092029101808411611e425790505b50505091835250506001919091015460ff8082161515602080850191909152610100808404831615156040808701919091526201000090940483161515606090950194909452938552600c9590950154808616938501939093529104831615159101529091508216158015611f0757506060810151518051600090611ef857611ef8612869565b602002602001015160ff166001145b8015611f2e5750805160ff831660048110611f2457611f24612869565b6020020151604001515b8015611f3d5750806020015134145b611f4657600080fd5b5050600d805461ff001916610100179055565b60006015611f67848461182a565b60ff16119392505050565b60408051610140810190915260009060018160c0810182600486835b8282101561205a5760408051600284028601805460a06020820284018101909452608083018181529293919284929091849184018282801561200d57602002820191906000526020600020906000905b825461010083900a900460ff16815260206001928301818104948501949093039092029101808411611fde5790505b505050918352505060019182015460ff8082161515602080850191909152610100830482161515604085015262010000909204161515606090920191909152918352929092019101611f8e565b5050505081526020016008820154815260200160098201548152602001600a8201604051806080016040529081600082018054806020026020016040519081016040528092919081815260200182805480156120f357602002820191906000526020600020906000905b825461010083900a900460ff168152602060019283018181049485019490930390920291018084116120c45790505b505050918352505060019182015460ff8082161515602080850191909152610100808404831615156040808701919091526201000090940483161515606090950194909452948652600c9690960154808716948601949094529204841615159290910191909152919250819086166004811061217157612171612869565b6002020160010160026101000a81548160ff02191690831515021790555060008160200151905060008360ff168560ff161180156121b757506121b5866000611f59565b155b156122155760158560ff1611612210578460ff1660151480156121f65750825160ff8716600481106121eb576121eb612869565b602002015151516002145b61220457600182901b61220d565b600182901c6005025b90505b612225565b8360ff168560ff16036122255750805b60608301515151600214801561223e57508360ff166015145b801561224b57508260a001515b156122615761225e600183901b8261294e565b90505b60408301516122739060011b8261294e565b600f54601054604051634d1a8de160e01b8152600481018490526001600160a01b0391821660248201529293501690634d1a8de190604401600060405180830381600087803b1580156122c557600080fd5b505af11580156122d9573d6000803e3d6000fd5b50505050600081111561231a576040518181527f581d416ae9dff30c9305c2b35cb09ed5991897ab97804db29ccf92678e9531609060200160405180910390a15b600f546040516000916001600160a01b03169084908381818185875af1925050503d8060008114612367576040519150601f19603f3d011682016040523d82523d6000602084013e61236c565b606091505b50509050806123b15760405162461bcd60e51b8152602060048201526011602482015270139bdd081cd95b9d081d1bc81d985d5b1d607a1b604482015260640161053e565b50505050505050565b6000546001600160a01b031633146112005760405162461bcd60e51b815260206004820181905260248201527f4f776e61626c653a2063616c6c6572206973206e6f7420746865206f776e6572604482015260640161053e565b600080546001600160a01b038381166001600160a01b0319831681178455604051919092169283917f8be0079c531659141344cd1fd0a4f28419497f9722a3daafe3b4186f6b6457e09190a35050565b60008160ff168360ff1610612479578161247b565b825b9392505050565b82805482825590600052602060002090601f016020900481019282156125185791602002820160005b838211156124e957835183826101000a81548160ff021916908360ff16021790555092602001926001016020816000010492830192600103026124ab565b80156125165782816101000a81549060ff02191690556001016020816000010492830192600103026124e9565b505b5061252492915061256f565b5090565b60405180608001604052806004905b604080516080810182526060808252600060208084018290529383018190529082015282526000199092019101816125375790505090565b5b808211156125245760008155600101612570565b803560ff8116811461259557600080fd5b919050565b600080604083850312156125ad57600080fd5b6125b683612584565b91506125c460208401612584565b90509250929050565b6000806000604084860312156125e257600080fd5b833567ffffffffffffffff808211156125fa57600080fd5b818601915086601f83011261260e57600080fd5b81358181111561261d57600080fd5b8760208260051b850101111561263257600080fd5b6020928301955093506126489186019050612584565b90509250925092565b60006020828403121561266357600080fd5b61247b82612584565b8035801515811461259557600080fd5b6000806040838503121561268f57600080fd5b6125b68361266c565b6000806000606084860312156126ad57600080fd5b6126b684612584565b92506126c460208501612584565b915061264860408501612584565b6020808252825182820181905260009190848201906040850190845b8181101561270d57835160ff16835292840192918401916001016126ee565b50909695505050505050565b6000806040838503121561272c57600080fd5b61273583612584565b91506125c46020840161266c565b8051608080845281519084018190526000916020919082019060a0860190845b8181101561278257835160ff1683529284019291840191600101612763565b505082850151151583870152604085015115156040870152606085015192506127af606087018415159052565b95945050505050565b602080825260009060a0830183820185845b60048110156127f957601f198785030183526127e7848351612743565b935091840191908401906001016127ca565b50919695505050505050565b60006020828403121561281757600080fd5b81356001600160a01b038116811461247b57600080fd5b85815284602082015260a06040820152600061284d60a0830186612743565b60ff949094166060830152509015156080909101529392505050565b634e487b7160e01b600052603260045260246000fd5b634e487b7160e01b600052601160045260246000fd5b6000600182016128a7576128a761287f565b5060010190565b6020808252601f908201527f4d75737420626520706c6179657220746f2063616c6c2066756e6374696f6e00604082015260600190565b6020808252600c908201526b12185b99081a5b9d985b1a5960a21b604082015260600190565b60006020828403121561291d57600080fd5b5051919050565b634e487b7160e01b600052601260045260246000fd5b60008261294957612949612924565b500690565b80820180821115611a4757611a4761287f565b634e487b7160e01b600052604160045260246000fd5b60008261298657612986612924565b500490565b600060ff821660ff81036129a1576129a161287f565b60010192915050565b60ff8181168382160190811115611a4757611a4761287f565b60ff8281168282160390811115611a4757611a4761287f565b81810381811115611a4757611a4761287f56fea2646970667358221220e8c7a286d5d7de3b5b9ff21e8e4daafac4376633920f721481b0693010d0d6e764736f6c63430008150033",
    "linkReferences": {}
  },
  "methodIdentifiers": {
    "addPlayerCards(uint8[],uint8)": "1d6c4e3b",
    "cleanup()": "3cecd719",
    "dealer()": "9de2ee21",
    "doubleDown(uint8)": "720d984e",
    "gameData()": "fa24f743",
    "getBetAmount()": "fde41e29",
    "getCardsFromHand(uint8)": "5a20d60b",
    "getDealerCards()": "974ee4d8",
    "getHandSum(uint8,bool)": "7b2f76a7",
    "getHands()": "e8fa988d",
    "getInsurance()": "267a8da0",
    "getNextOpenHandSlot()": "5db060ee",
    "hit(bool,uint8)": "34e6a776",
    "owner()": "8da5cb5b",
    "player()": "48db5f89",
    "renounceOwnership()": "715018a6",
    "setDealerCards(uint8,uint8)": "1707ea98",
    "setPlayerCards(uint8,uint8,uint8)": "40e2e20c",
    "split(uint8)": "1ef44aed",
    "stand(bool,uint8)": "743922b8",
    "transferOwnership(address)": "f2fde38b",
    "vault()": "fbfa77cf"
  },
  "id": 21
}