{
  "abi": [
    {
      "inputs": [],
      "stateMutability": "nonpayable",
      "type": "constructor"
    },
    {
      "inputs": [],
      "name": "random",
      "outputs": [
        {
          "internalType": "uint256",
          "name": "",
          "type": "uint256"
        }
      ],
      "stateMutability": "nonpayable",
      "type": "function"
    }
  ],
  "bytecode": {
    "object": "0x6080604052600160005534801561001557600080fd5b50600180546001600160a01b0319163317905561010a806100376000396000f3fe6080604052348015600f57600080fd5b506004361060285760003560e01c80635ec01e4d14602d575b600080fd5b60336045565b60405190815260200160405180910390f35b6001546000906001600160a01b03163314605e57600080fd5b600080549080606b8360ae565b909155505060005460408051446020820152429181019190915260608101919091526080016040516020818303038152906040528051906020012060001c905090565b60006001820160cd57634e487b7160e01b600052601160045260246000fd5b506001019056fea2646970667358221220d468cc86af71ed006e1800923b3d32e28034af2473611831c4c6e3c076f6eea064736f6c63430008150033",
    "linkReferences": {}
  },
  "methodIdentifiers": {
    "random()": "5ec01e4d"
  },
  "id": 25
}