{
  "abi": [
    {
      "inputs": [],
      "stateMutability": "nonpayable",
      "type": "constructor"
    },
    {
      "inputs": [],
      "name": "counter",
      "outputs": [
        {
          "internalType": "uint256",
          "name": "",
          "type": "uint256"
        }
      ],
      "stateMutability": "view",
      "type": "function"
    },
    {
      "inputs": [],
      "name": "random",
      "outputs": [
        {
          "internalType": "uint256",
          "name": "",
          "type": "uint256"
        }
      ],
      "stateMutability": "nonpayable",
      "type": "function"
    },
    {
      "inputs": [
        {
          "internalType": "address",
          "name": "_newOwner",
          "type": "address"
        }
      ],
      "name": "transferOwner",
      "outputs": [],
      "stateMutability": "nonpayable",
      "type": "function"
    }
  ],
  "bytecode": {
    "object": "0x6080604052600160005534801561001557600080fd5b50600180546001600160a01b03191633179055610196806100376000396000f3fe608060405234801561001057600080fd5b50600436106100415760003560e01c80634fb2e45d146100465780635ec01e4d1461005b57806361bc221a14610075575b600080fd5b610059610054366004610109565b61007e565b005b6100636100b7565b60405190815260200160405180910390f35b61006360005481565b6001546001600160a01b0316331461009557600080fd5b600180546001600160a01b0319166001600160a01b0392909216919091179055565b6000805481806100c683610139565b909155505060005460408051446020820152429181019190915260608101919091526080016040516020818303038152906040528051906020012060001c905090565b60006020828403121561011b57600080fd5b81356001600160a01b038116811461013257600080fd5b9392505050565b60006001820161015957634e487b7160e01b600052601160045260246000fd5b506001019056fea264697066735822122088bf80475480429e34bf9587183dc70c75e92dc142fb9ef33faf199e368cb11d64736f6c63430008150033",
    "linkReferences": {}
  },
  "methodIdentifiers": {
    "counter()": "61bc221a",
    "random()": "5ec01e4d",
    "transferOwner(address)": "4fb2e45d"
  },
  "id": 21
}