{
  "abi": [
    {
      "inputs": [],
      "stateMutability": "nonpayable",
      "type": "constructor"
    },
    {
      "anonymous": false,
      "inputs": [
        {
          "indexed": false,
          "internalType": "uint256",
          "name": "",
          "type": "uint256"
        }
      ],
      "name": "EtherReceived",
      "type": "event"
    },
    {
      "stateMutability": "payable",
      "type": "fallback"
    },
    {
      "inputs": [
        {
          "internalType": "address",
          "name": "_newAuthorized",
          "type": "address"
        }
      ],
      "name": "addAuthorized",
      "outputs": [],
      "stateMutability": "nonpayable",
      "type": "function"
    },
    {
      "inputs": [
        {
          "internalType": "uint256",
          "name": "_amount",
          "type": "uint256"
        },
        {
          "internalType": "address",
          "name": "_to",
          "type": "address"
        }
      ],
      "name": "payoutFromVault",
      "outputs": [],
      "stateMutability": "nonpayable",
      "type": "function"
    },
    {
      "stateMutability": "payable",
      "type": "receive"
    }
  ],
  "bytecode": {
    "object": "0x608060405234801561001057600080fd5b5060016000818155600280546001600160a01b031916339081179091558152602082905260409020805460ff19169091179055610318806100526000396000f3fe60806040526004361061002d5760003560e01c80634d1a8de114610098578063cf1c316a146100ba57610068565b36610068576040513481527f0a34e3d4f1e6b837dbce1011b61499fa1a483a0abee6a7a6697660b4b2d97132906020015b60405180910390a1005b6040513481527f0a34e3d4f1e6b837dbce1011b61499fa1a483a0abee6a7a6697660b4b2d971329060200161005e565b3480156100a457600080fd5b506100b86100b3366004610294565b6100da565b005b3480156100c657600080fd5b506100b86100d53660046102c0565b6101e1565b3360009081526001602052604090205460ff1661012f5760405162461bcd60e51b815260206004820152600e60248201526d139bdd08185d5d1a1bdc9a5e995960921b60448201526064015b60405180910390fd5b61013761021f565b600080826001600160a01b03168460405160006040518083038185875af1925050503d8060008114610185576040519150601f19603f3d011682016040523d82523d6000602084013e61018a565b606091505b5091509150816101d15760405162461bcd60e51b81526020600482015260126024820152712737ba1039b2b73a103a3790383630bcb2b960711b6044820152606401610126565b50506101dd6001600055565b5050565b6002546001600160a01b031633146101f857600080fd5b6001600160a01b03166000908152600160208190526040909120805460ff19169091179055565b6002600054036102715760405162461bcd60e51b815260206004820152601f60248201527f5265656e7472616e637947756172643a207265656e7472616e742063616c6c006044820152606401610126565b6002600055565b80356001600160a01b038116811461028f57600080fd5b919050565b600080604083850312156102a757600080fd5b823591506102b760208401610278565b90509250929050565b6000602082840312156102d257600080fd5b6102db82610278565b939250505056fea264697066735822122062e2561ed4af1f14389de48ae8e090c53992e3aeb50f7ba8b09ac31901d2a19664736f6c63430008150033",
    "linkReferences": {}
  },
  "methodIdentifiers": {
    "addAuthorized(address)": "cf1c316a",
    "payoutFromVault(uint256,address)": "4d1a8de1"
  },
  "id": 23
}